{
  "address": "0x5C2Ec5cAa8A062ad19072E632d1D3db5AA1f0B3B",
  "abi": [
    {
      "inputs": [],
      "stateMutability": "nonpayable",
      "type": "constructor"
    },
    {
      "inputs": [
        {
          "internalType": "uint256",
          "name": "market",
          "type": "uint256"
        },
        {
          "internalType": "uint256",
          "name": "amount",
          "type": "uint256"
        },
        {
          "internalType": "uint256",
          "name": "quoteAmount",
          "type": "uint256"
        }
      ],
      "name": "BondBuyTransferFailed",
      "type": "error"
    },
    {
      "inputs": [],
      "name": "BondIndexCorrupted",
      "type": "error"
    },
    {
      "inputs": [
        {
          "internalType": "uint256",
          "name": "amount",
          "type": "uint256"
        },
        {
          "internalType": "uint256",
          "name": "balance",
          "type": "uint256"
        }
      ],
      "name": "BondMarketClosingInsufficientBalance",
      "type": "error"
    },
    {
      "inputs": [
        {
          "internalType": "uint256",
          "name": "amount",
          "type": "uint256"
        }
      ],
      "name": "BondMarketClosingRefundTransferFailed",
      "type": "error"
    },
    {
      "inputs": [
        {
          "internalType": "uint256",
          "name": "volume",
          "type": "uint256"
        }
      ],
      "name": "BondMarketFundingTransferFailed",
      "type": "error"
    },
    {
      "inputs": [
        {
          "internalType": "uint256",
          "name": "id",
          "type": "uint256"
        },
        {
          "internalType": "uint256",
          "name": "amount",
          "type": "uint256"
        },
        {
          "internalType": "uint256",
          "name": "volume",
          "type": "uint256"
        }
      ],
      "name": "BondMarketInsufficientVolume",
      "type": "error"
    },
    {
      "inputs": [
        {
          "internalType": "uint256",
          "name": "id",
          "type": "uint256"
        }
      ],
      "name": "BondMarketNotActive",
      "type": "error"
    },
    {
      "inputs": [
        {
          "internalType": "uint256",
          "name": "id",
          "type": "uint256"
        }
      ],
      "name": "BondNotActive",
      "type": "error"
    },
    {
      "inputs": [
        {
          "internalType": "uint256",
          "name": "id",
          "type": "uint256"
        }
      ],
      "name": "BondNotMatured",
      "type": "error"
    },
    {
      "inputs": [
        {
          "internalType": "uint256",
          "name": "id",
          "type": "uint256"
        }
      ],
      "name": "BondNotOwnedByCaller",
      "type": "error"
    },
    {
      "inputs": [
        {
          "internalType": "uint256",
          "name": "id",
          "type": "uint256"
        }
      ],
      "name": "BondPayoutTransferFailed",
      "type": "error"
    },
    {
      "inputs": [],
      "name": "BondSaleActive",
      "type": "error"
    },
    {
      "inputs": [],
      "name": "BondSaleNotActive",
      "type": "error"
    },
    {
      "inputs": [
        {
          "internalType": "address",
          "name": "requestedElevator",
          "type": "address"
        }
      ],
      "name": "NotAdmin",
      "type": "error"
    },
    {
      "anonymous": false,
      "inputs": [
        {
          "indexed": false,
          "internalType": "address",
          "name": "previousAdmin",
          "type": "address"
        },
        {
          "indexed": false,
          "internalType": "address",
          "name": "newAdmin",
          "type": "address"
        }
      ],
      "name": "AdminChanged",
      "type": "event"
    },
    {
      "anonymous": false,
      "inputs": [
        {
          "indexed": true,
          "internalType": "address",
          "name": "beacon",
          "type": "address"
        }
      ],
      "name": "BeaconUpgraded",
      "type": "event"
    },
    {
      "anonymous": false,
      "inputs": [
        {
          "indexed": true,
          "internalType": "address",
          "name": "owner",
          "type": "address"
        },
        {
          "components": [
            {
              "internalType": "uint256",
              "name": "id",
              "type": "uint256"
            },
            {
              "internalType": "uint256",
              "name": "marketId",
              "type": "uint256"
            },
            {
              "internalType": "address",
              "name": "owner",
              "type": "address"
            },
            {
              "internalType": "uint256",
              "name": "maturation",
              "type": "uint256"
            },
            {
              "internalType": "uint256",
              "name": "amount",
              "type": "uint256"
            },
            {
              "internalType": "uint256",
              "name": "price",
              "type": "uint256"
            },
            {
              "internalType": "address",
              "name": "quoteToken",
              "type": "address"
            },
            {
              "internalType": "uint256",
              "name": "term",
              "type": "uint256"
            }
          ],
          "indexed": false,
          "internalType": "struct Bondage.Bond",
          "name": "bond",
          "type": "tuple"
        }
      ],
      "name": "BondClaimed",
      "type": "event"
    },
    {
      "anonymous": false,
      "inputs": [
        {
          "components": [
            {
              "internalType": "uint256",
              "name": "id",
              "type": "uint256"
            },
            {
              "internalType": "address",
              "name": "quoteToken",
              "type": "address"
            },
            {
              "internalType": "uint256",
              "name": "price",
              "type": "uint256"
            },
            {
              "internalType": "uint256",
              "name": "duration",
              "type": "uint256"
            },
            {
              "internalType": "uint256",
              "name": "volume",
              "type": "uint256"
            },
            {
              "internalType": "uint256",
              "name": "sold",
              "type": "uint256"
            }
          ],
          "indexed": false,
          "internalType": "struct Bondage.BondMarket",
          "name": "market",
          "type": "tuple"
        }
      ],
      "name": "BondMarketClosed",
      "type": "event"
    },
    {
      "anonymous": false,
      "inputs": [
        {
          "components": [
            {
              "internalType": "uint256",
              "name": "id",
              "type": "uint256"
            },
            {
              "internalType": "address",
              "name": "quoteToken",
              "type": "address"
            },
            {
              "internalType": "uint256",
              "name": "price",
              "type": "uint256"
            },
            {
              "internalType": "uint256",
              "name": "duration",
              "type": "uint256"
            },
            {
              "internalType": "uint256",
              "name": "volume",
              "type": "uint256"
            },
            {
              "internalType": "uint256",
              "name": "sold",
              "type": "uint256"
            }
          ],
          "indexed": false,
          "internalType": "struct Bondage.BondMarket",
          "name": "market",
          "type": "tuple"
        }
      ],
      "name": "BondMarketCreated",
      "type": "event"
    },
    {
      "anonymous": false,
      "inputs": [
        {
          "components": [
            {
              "internalType": "uint256",
              "name": "id",
              "type": "uint256"
            },
            {
              "internalType": "address",
              "name": "quoteToken",
              "type": "address"
            },
            {
              "internalType": "uint256",
              "name": "price",
              "type": "uint256"
            },
            {
              "internalType": "uint256",
              "name": "duration",
              "type": "uint256"
            },
            {
              "internalType": "uint256",
              "name": "volume",
              "type": "uint256"
            },
            {
              "internalType": "uint256",
              "name": "sold",
              "type": "uint256"
            }
          ],
          "indexed": false,
          "internalType": "struct Bondage.BondMarket",
          "name": "market",
          "type": "tuple"
        }
      ],
      "name": "BondMarketDeleted",
      "type": "event"
    },
    {
      "anonymous": false,
      "inputs": [
        {
          "components": [
            {
              "internalType": "uint256",
              "name": "id",
              "type": "uint256"
            },
            {
              "internalType": "address",
              "name": "quoteToken",
              "type": "address"
            },
            {
              "internalType": "uint256",
              "name": "price",
              "type": "uint256"
            },
            {
              "internalType": "uint256",
              "name": "duration",
              "type": "uint256"
            },
            {
              "internalType": "uint256",
              "name": "volume",
              "type": "uint256"
            },
            {
              "internalType": "uint256",
              "name": "sold",
              "type": "uint256"
            }
          ],
          "indexed": false,
          "internalType": "struct Bondage.BondMarket",
          "name": "market",
          "type": "tuple"
        }
      ],
      "name": "BondMarketOpened",
      "type": "event"
    },
    {
      "anonymous": false,
      "inputs": [
        {
          "indexed": true,
          "internalType": "address",
          "name": "owner",
          "type": "address"
        },
        {
          "components": [
            {
              "internalType": "uint256",
              "name": "id",
              "type": "uint256"
            },
            {
              "internalType": "uint256",
              "name": "marketId",
              "type": "uint256"
            },
            {
              "internalType": "address",
              "name": "owner",
              "type": "address"
            },
            {
              "internalType": "uint256",
              "name": "maturation",
              "type": "uint256"
            },
            {
              "internalType": "uint256",
              "name": "amount",
              "type": "uint256"
            },
            {
              "internalType": "uint256",
              "name": "price",
              "type": "uint256"
            },
            {
              "internalType": "address",
              "name": "quoteToken",
              "type": "address"
            },
            {
              "internalType": "uint256",
              "name": "term",
              "type": "uint256"
            }
          ],
          "indexed": false,
          "internalType": "struct Bondage.Bond",
          "name": "bond",
          "type": "tuple"
        }
      ],
      "name": "BondSold",
      "type": "event"
    },
    {
      "anonymous": false,
      "inputs": [],
      "name": "DefaultAdminDelayChangeCanceled",
      "type": "event"
    },
    {
      "anonymous": false,
      "inputs": [
        {
          "indexed": false,
          "internalType": "uint48",
          "name": "newDelay",
          "type": "uint48"
        },
        {
          "indexed": false,
          "internalType": "uint48",
          "name": "effectSchedule",
          "type": "uint48"
        }
      ],
      "name": "DefaultAdminDelayChangeScheduled",
      "type": "event"
    },
    {
      "anonymous": false,
      "inputs": [],
      "name": "DefaultAdminTransferCanceled",
      "type": "event"
    },
    {
      "anonymous": false,
      "inputs": [
        {
          "indexed": true,
          "internalType": "address",
          "name": "newAdmin",
          "type": "address"
        },
        {
          "indexed": false,
          "internalType": "uint48",
          "name": "acceptSchedule",
          "type": "uint48"
        }
      ],
      "name": "DefaultAdminTransferScheduled",
      "type": "event"
    },
    {
      "anonymous": false,
      "inputs": [
        {
          "indexed": false,
          "internalType": "uint8",
          "name": "version",
          "type": "uint8"
        }
      ],
      "name": "Initialized",
      "type": "event"
    },
    {
      "anonymous": false,
      "inputs": [
        {
          "indexed": false,
          "internalType": "address",
          "name": "account",
          "type": "address"
        }
      ],
      "name": "Paused",
      "type": "event"
    },
    {
      "anonymous": false,
      "inputs": [
        {
          "indexed": true,
          "internalType": "bytes32",
          "name": "role",
          "type": "bytes32"
        },
        {
          "indexed": true,
          "internalType": "bytes32",
          "name": "previousAdminRole",
          "type": "bytes32"
        },
        {
          "indexed": true,
          "internalType": "bytes32",
          "name": "newAdminRole",
          "type": "bytes32"
        }
      ],
      "name": "RoleAdminChanged",
      "type": "event"
    },
    {
      "anonymous": false,
      "inputs": [
        {
          "indexed": true,
          "internalType": "bytes32",
          "name": "role",
          "type": "bytes32"
        },
        {
          "indexed": true,
          "internalType": "address",
          "name": "account",
          "type": "address"
        },
        {
          "indexed": true,
          "internalType": "address",
          "name": "sender",
          "type": "address"
        }
      ],
      "name": "RoleGranted",
      "type": "event"
    },
    {
      "anonymous": false,
      "inputs": [
        {
          "indexed": true,
          "internalType": "bytes32",
          "name": "role",
          "type": "bytes32"
        },
        {
          "indexed": true,
          "internalType": "address",
          "name": "account",
          "type": "address"
        },
        {
          "indexed": true,
          "internalType": "address",
          "name": "sender",
          "type": "address"
        }
      ],
      "name": "RoleRevoked",
      "type": "event"
    },
    {
      "anonymous": false,
      "inputs": [
        {
          "indexed": false,
          "internalType": "address",
          "name": "account",
          "type": "address"
        }
      ],
      "name": "Unpaused",
      "type": "event"
    },
    {
      "anonymous": false,
      "inputs": [
        {
          "indexed": true,
          "internalType": "address",
          "name": "implementation",
          "type": "address"
        }
      ],
      "name": "Upgraded",
      "type": "event"
    },
    {
      "inputs": [],
      "name": "ADMIN_ROLE",
      "outputs": [
        {
          "internalType": "bytes32",
          "name": "",
          "type": "bytes32"
        }
      ],
      "stateMutability": "view",
      "type": "function"
    },
    {
      "inputs": [],
      "name": "DEFAULT_ADMIN_ROLE",
      "outputs": [
        {
          "internalType": "bytes32",
          "name": "",
          "type": "bytes32"
        }
      ],
      "stateMutability": "view",
      "type": "function"
    },
    {
      "inputs": [],
      "name": "MANAGER_ROLE",
      "outputs": [
        {
          "internalType": "bytes32",
          "name": "",
          "type": "bytes32"
        }
      ],
      "stateMutability": "view",
      "type": "function"
    },
    {
      "inputs": [],
      "name": "OPERATOR_ROLE",
      "outputs": [
        {
          "internalType": "bytes32",
          "name": "",
          "type": "bytes32"
        }
      ],
      "stateMutability": "view",
      "type": "function"
    },
    {
      "inputs": [],
      "name": "PAUSER_ROLE",
      "outputs": [
        {
          "internalType": "bytes32",
          "name": "",
          "type": "bytes32"
        }
      ],
      "stateMutability": "view",
      "type": "function"
    },
    {
      "inputs": [],
      "name": "UPGRADER_ROLE",
      "outputs": [
        {
          "internalType": "bytes32",
          "name": "",
          "type": "bytes32"
        }
      ],
      "stateMutability": "view",
      "type": "function"
    },
    {
      "inputs": [],
      "name": "acceptDefaultAdminTransfer",
      "outputs": [],
      "stateMutability": "nonpayable",
      "type": "function"
    },
    {
      "inputs": [],
      "name": "activeMarkets",
      "outputs": [
        {
          "components": [
            {
              "internalType": "uint256",
              "name": "id",
              "type": "uint256"
            },
            {
              "internalType": "address",
              "name": "quoteToken",
              "type": "address"
            },
            {
              "internalType": "uint256",
              "name": "price",
              "type": "uint256"
            },
            {
              "internalType": "uint256",
              "name": "duration",
              "type": "uint256"
            },
            {
              "internalType": "uint256",
              "name": "volume",
              "type": "uint256"
            },
            {
              "internalType": "uint256",
              "name": "sold",
              "type": "uint256"
            }
          ],
          "internalType": "struct Bondage.BondMarket[]",
          "name": "",
          "type": "tuple[]"
        }
      ],
      "stateMutability": "view",
      "type": "function"
    },
    {
      "inputs": [],
      "name": "allMaturingBonds",
      "outputs": [
        {
          "components": [
            {
              "internalType": "uint256",
              "name": "id",
              "type": "uint256"
            },
            {
              "internalType": "uint256",
              "name": "marketId",
              "type": "uint256"
            },
            {
              "internalType": "address",
              "name": "owner",
              "type": "address"
            },
            {
              "internalType": "uint256",
              "name": "maturation",
              "type": "uint256"
            },
            {
              "internalType": "uint256",
              "name": "amount",
              "type": "uint256"
            },
            {
              "internalType": "uint256",
              "name": "price",
              "type": "uint256"
            },
            {
              "internalType": "address",
              "name": "quoteToken",
              "type": "address"
            },
            {
              "internalType": "uint256",
              "name": "term",
              "type": "uint256"
            }
          ],
          "internalType": "struct Bondage.Bond[]",
          "name": "",
          "type": "tuple[]"
        }
      ],
      "stateMutability": "view",
      "type": "function"
    },
    {
      "inputs": [
        {
          "internalType": "address",
          "name": "newAdmin",
          "type": "address"
        }
      ],
      "name": "beginDefaultAdminTransfer",
      "outputs": [],
      "stateMutability": "nonpayable",
      "type": "function"
    },
    {
      "inputs": [
        {
          "internalType": "uint256",
          "name": "id",
          "type": "uint256"
        }
      ],
      "name": "bondMarketClose",
      "outputs": [],
      "stateMutability": "nonpayable",
      "type": "function"
    },
    {
      "inputs": [
        {
          "internalType": "address",
          "name": "quoteToken",
          "type": "address"
        },
        {
          "internalType": "uint256",
          "name": "price",
          "type": "uint256"
        },
        {
          "internalType": "uint256",
          "name": "duration",
          "type": "uint256"
        },
        {
          "internalType": "uint256",
          "name": "volume",
          "type": "uint256"
        }
      ],
      "name": "bondSaleAdd",
      "outputs": [],
      "stateMutability": "nonpayable",
      "type": "function"
    },
    {
      "inputs": [],
      "name": "bondSaleClose",
      "outputs": [],
      "stateMutability": "nonpayable",
      "type": "function"
    },
    {
      "inputs": [],
      "name": "bondSaleNew",
      "outputs": [],
      "stateMutability": "nonpayable",
      "type": "function"
    },
    {
      "inputs": [],
      "name": "bondSaleStart",
      "outputs": [],
      "stateMutability": "nonpayable",
      "type": "function"
    },
    {
      "inputs": [],
      "name": "bondSaleViewStaging",
      "outputs": [],
      "stateMutability": "view",
      "type": "function"
    },
    {
      "inputs": [
        {
          "internalType": "uint256",
          "name": "marketId",
          "type": "uint256"
        },
        {
          "internalType": "uint256",
          "name": "amount",
          "type": "uint256"
        }
      ],
      "name": "buyBond",
      "outputs": [],
      "stateMutability": "nonpayable",
      "type": "function"
    },
    {
      "inputs": [],
      "name": "cancelDefaultAdminTransfer",
      "outputs": [],
      "stateMutability": "nonpayable",
      "type": "function"
    },
    {
      "inputs": [
        {
          "internalType": "uint48",
          "name": "newDelay",
          "type": "uint48"
        }
      ],
      "name": "changeDefaultAdminDelay",
      "outputs": [],
      "stateMutability": "nonpayable",
      "type": "function"
    },
    {
      "inputs": [
        {
          "internalType": "uint256",
          "name": "bondId",
          "type": "uint256"
        }
      ],
      "name": "claimBond",
      "outputs": [],
      "stateMutability": "nonpayable",
      "type": "function"
    },
    {
      "inputs": [
        {
          "internalType": "uint256[]",
          "name": "bondIds",
          "type": "uint256[]"
        }
      ],
      "name": "claimBonds",
      "outputs": [],
      "stateMutability": "nonpayable",
      "type": "function"
    },
    {
      "inputs": [],
      "name": "claimableBonds",
      "outputs": [
        {
          "components": [
            {
              "internalType": "uint256",
              "name": "id",
              "type": "uint256"
            },
            {
              "internalType": "uint256",
              "name": "marketId",
              "type": "uint256"
            },
            {
              "internalType": "address",
              "name": "owner",
              "type": "address"
            },
            {
              "internalType": "uint256",
              "name": "maturation",
              "type": "uint256"
            },
            {
              "internalType": "uint256",
              "name": "amount",
              "type": "uint256"
            },
            {
              "internalType": "uint256",
              "name": "price",
              "type": "uint256"
            },
            {
              "internalType": "address",
              "name": "quoteToken",
              "type": "address"
            },
            {
              "internalType": "uint256",
              "name": "term",
              "type": "uint256"
            }
          ],
          "internalType": "struct Bondage.Bond[]",
          "name": "",
          "type": "tuple[]"
        }
      ],
      "stateMutability": "view",
      "type": "function"
    },
    {
      "inputs": [],
      "name": "defaultAdmin",
      "outputs": [
        {
          "internalType": "address",
          "name": "",
          "type": "address"
        }
      ],
      "stateMutability": "view",
      "type": "function"
    },
    {
      "inputs": [],
      "name": "defaultAdminDelay",
      "outputs": [
        {
          "internalType": "uint48",
          "name": "",
          "type": "uint48"
        }
      ],
      "stateMutability": "view",
      "type": "function"
    },
    {
      "inputs": [],
      "name": "defaultAdminDelayIncreaseWait",
      "outputs": [
        {
          "internalType": "uint48",
          "name": "",
          "type": "uint48"
        }
      ],
      "stateMutability": "view",
      "type": "function"
    },
    {
      "inputs": [],
      "name": "defaultElevationDuration",
      "outputs": [
        {
          "internalType": "uint48",
          "name": "",
          "type": "uint48"
        }
      ],
      "stateMutability": "view",
      "type": "function"
    },
    {
      "inputs": [
        {
          "internalType": "bytes32",
          "name": "role",
          "type": "bytes32"
        },
        {
          "internalType": "address",
          "name": "elevatedAddress",
          "type": "address"
        },
        {
          "internalType": "uint256",
          "name": "duration",
          "type": "uint256"
        }
      ],
      "name": "elevate",
      "outputs": [],
      "stateMutability": "nonpayable",
      "type": "function"
    },
    {
      "inputs": [
        {
          "internalType": "bytes32",
          "name": "role",
          "type": "bytes32"
        },
        {
          "internalType": "address",
          "name": "elevatedAddress",
          "type": "address"
        }
      ],
      "name": "elevate",
      "outputs": [],
      "stateMutability": "nonpayable",
      "type": "function"
    },
    {
      "inputs": [
        {
          "internalType": "bytes32",
          "name": "role",
          "type": "bytes32"
        }
      ],
      "name": "getRoleAdmin",
      "outputs": [
        {
          "internalType": "bytes32",
          "name": "",
          "type": "bytes32"
        }
      ],
      "stateMutability": "view",
      "type": "function"
    },
    {
      "inputs": [
        {
          "internalType": "bytes32",
          "name": "role",
          "type": "bytes32"
        },
        {
          "internalType": "uint256",
          "name": "index",
          "type": "uint256"
        }
      ],
      "name": "getRoleMember",
      "outputs": [
        {
          "internalType": "address",
          "name": "",
          "type": "address"
        }
      ],
      "stateMutability": "view",
      "type": "function"
    },
    {
      "inputs": [
        {
          "internalType": "bytes32",
          "name": "role",
          "type": "bytes32"
        }
      ],
      "name": "getRoleMemberCount",
      "outputs": [
        {
          "internalType": "uint256",
          "name": "",
          "type": "uint256"
        }
      ],
      "stateMutability": "view",
      "type": "function"
    },
    {
      "inputs": [
        {
          "internalType": "bytes32",
          "name": "role",
          "type": "bytes32"
        },
        {
          "internalType": "address",
          "name": "account",
          "type": "address"
        }
      ],
      "name": "grantRole",
      "outputs": [],
      "stateMutability": "nonpayable",
      "type": "function"
    },
    {
      "inputs": [
        {
          "internalType": "bytes32",
          "name": "role",
          "type": "bytes32"
        },
        {
          "internalType": "address",
          "name": "account",
          "type": "address"
        }
      ],
      "name": "hasRole",
      "outputs": [
        {
          "internalType": "bool",
          "name": "",
          "type": "bool"
        }
      ],
      "stateMutability": "view",
      "type": "function"
    },
    {
      "inputs": [],
      "name": "housekeeping",
      "outputs": [],
      "stateMutability": "nonpayable",
      "type": "function"
    },
    {
      "inputs": [
        {
          "internalType": "address",
          "name": "admin",
          "type": "address"
        },
        {
          "internalType": "address",
          "name": "token",
          "type": "address"
        },
        {
          "internalType": "address",
          "name": "treasury",
          "type": "address"
        }
      ],
      "name": "initialize",
      "outputs": [],
      "stateMutability": "nonpayable",
      "type": "function"
    },
    {
      "inputs": [
        {
          "internalType": "address",
          "name": "owner",
          "type": "address"
        }
      ],
      "name": "maturingBonds",
      "outputs": [
        {
          "components": [
            {
              "internalType": "uint256",
              "name": "id",
              "type": "uint256"
            },
            {
              "internalType": "uint256",
              "name": "marketId",
              "type": "uint256"
            },
            {
              "internalType": "address",
              "name": "owner",
              "type": "address"
            },
            {
              "internalType": "uint256",
              "name": "maturation",
              "type": "uint256"
            },
            {
              "internalType": "uint256",
              "name": "amount",
              "type": "uint256"
            },
            {
              "internalType": "uint256",
              "name": "price",
              "type": "uint256"
            },
            {
              "internalType": "address",
              "name": "quoteToken",
              "type": "address"
            },
            {
              "internalType": "uint256",
              "name": "term",
              "type": "uint256"
            }
          ],
          "internalType": "struct Bondage.Bond[]",
          "name": "",
          "type": "tuple[]"
        }
      ],
      "stateMutability": "view",
      "type": "function"
    },
    {
      "inputs": [],
      "name": "owner",
      "outputs": [
        {
          "internalType": "address",
          "name": "",
          "type": "address"
        }
      ],
      "stateMutability": "view",
      "type": "function"
    },
    {
      "inputs": [],
      "name": "pause",
      "outputs": [],
      "stateMutability": "nonpayable",
      "type": "function"
    },
    {
      "inputs": [],
      "name": "paused",
      "outputs": [
        {
          "internalType": "bool",
          "name": "",
          "type": "bool"
        }
      ],
      "stateMutability": "view",
      "type": "function"
    },
    {
      "inputs": [],
      "name": "pendingDefaultAdmin",
      "outputs": [
        {
          "internalType": "address",
          "name": "newAdmin",
          "type": "address"
        },
        {
          "internalType": "uint48",
          "name": "schedule",
          "type": "uint48"
        }
      ],
      "stateMutability": "view",
      "type": "function"
    },
    {
      "inputs": [],
      "name": "pendingDefaultAdminDelay",
      "outputs": [
        {
          "internalType": "uint48",
          "name": "newDelay",
          "type": "uint48"
        },
        {
          "internalType": "uint48",
          "name": "schedule",
          "type": "uint48"
        }
      ],
      "stateMutability": "view",
      "type": "function"
    },
    {
      "inputs": [],
      "name": "proxiableUUID",
      "outputs": [
        {
          "internalType": "bytes32",
          "name": "",
          "type": "bytes32"
        }
      ],
      "stateMutability": "view",
      "type": "function"
    },
    {
      "inputs": [
        {
          "internalType": "bytes32",
          "name": "role",
          "type": "bytes32"
        },
        {
          "internalType": "address",
          "name": "account",
          "type": "address"
        }
      ],
      "name": "renounceRole",
      "outputs": [],
      "stateMutability": "nonpayable",
      "type": "function"
    },
    {
      "inputs": [
        {
          "internalType": "bytes32",
          "name": "role",
          "type": "bytes32"
        },
        {
          "internalType": "address",
          "name": "admin",
          "type": "address"
        },
        {
          "internalType": "uint256",
          "name": "duration",
          "type": "uint256"
        }
      ],
      "name": "requestElevation",
      "outputs": [],
      "stateMutability": "nonpayable",
      "type": "function"
    },
    {
      "inputs": [
        {
          "internalType": "bytes32",
          "name": "role",
          "type": "bytes32"
        },
        {
          "internalType": "address",
          "name": "admin",
          "type": "address"
        }
      ],
      "name": "requestElevation",
      "outputs": [],
      "stateMutability": "nonpayable",
      "type": "function"
    },
    {
      "inputs": [
        {
          "internalType": "bytes32",
          "name": "role",
          "type": "bytes32"
        },
        {
          "internalType": "address",
          "name": "account",
          "type": "address"
        }
      ],
      "name": "revokeRole",
      "outputs": [],
      "stateMutability": "nonpayable",
      "type": "function"
    },
    {
      "inputs": [],
      "name": "rollbackDefaultAdminDelay",
      "outputs": [],
      "stateMutability": "nonpayable",
      "type": "function"
    },
    {
      "inputs": [
        {
          "internalType": "uint48",
          "name": "duration",
          "type": "uint48"
        }
      ],
      "name": "setDefaultElevationDuration",
      "outputs": [],
      "stateMutability": "nonpayable",
      "type": "function"
    },
    {
      "inputs": [
        {
          "internalType": "bytes4",
          "name": "interfaceId",
          "type": "bytes4"
        }
      ],
      "name": "supportsInterface",
      "outputs": [
        {
          "internalType": "bool",
          "name": "",
          "type": "bool"
        }
      ],
      "stateMutability": "view",
      "type": "function"
    },
    {
      "inputs": [],
      "name": "unpause",
      "outputs": [],
      "stateMutability": "nonpayable",
      "type": "function"
    },
    {
      "inputs": [
        {
          "internalType": "address",
          "name": "newImplementation",
          "type": "address"
        }
      ],
      "name": "upgradeTo",
      "outputs": [],
      "stateMutability": "nonpayable",
      "type": "function"
    },
    {
      "inputs": [
        {
          "internalType": "address",
          "name": "newImplementation",
          "type": "address"
        },
        {
          "internalType": "bytes",
          "name": "data",
          "type": "bytes"
        }
      ],
      "name": "upgradeToAndCall",
      "outputs": [],
      "stateMutability": "payable",
      "type": "function"
    }
  ],
  "numDeployments": 1,
  "solcInputHash": "87008615dbfb9bc132891f8e6a002816",
  "bytecode": "0x60a0604052306080523480156200001557600080fd5b50620000206200003a565b6200002a6200003a565b620000346200003a565b620000fb565b603254610100900460ff1615620000a75760405162461bcd60e51b815260206004820152602760248201527f496e697469616c697a61626c653a20636f6e747261637420697320696e697469604482015266616c697a696e6760c81b606482015260840160405180910390fd5b60325460ff90811614620000f9576032805460ff191660ff9081179091556040519081527f7f26b83ff96e1f2b6a682f133852f6798a09c465da95921460cefb38474024989060200160405180910390a15b565b608051614ae66200013360003960008181610c7701528181610cb701528181610ea001528181610ee00152610f6f0152614ae66000f3fe6080604052600436106102ff5760003560e01c806384ef8ffc11610190578063ca15c873116100dc578063dbcc308311610095578063ec87621c1161006f578063ec87621c146108d3578063f5b541a6146108f5578063f72c0d8b14610917578063fce101221461094b57600080fd5b8063dbcc30831461087c578063e63ab1e91461089c578063eaf459ef146108be57600080fd5b8063ca15c873146107c2578063cc8463c8146107e2578063cefc1429146107f7578063cf6eefb71461080c578063d547741f14610847578063d602b9fd1461086757600080fd5b8063a0d1368411610149578063a96b9a6011610123578063a96b9a601461074d578063c0c53b8b1461076d578063c0f1e53a1461078d578063c2ca269a146107a257600080fd5b8063a0d13684146106ef578063a1eda53c14610704578063a217fddf1461073857600080fd5b806384ef8ffc1461063d5780638da5cb5b146106705780639010d07c1461068557806391d14854146106a557806398b3fea3146106c55780639eb0326e146106da57600080fd5b80633e9ab6451161024f5780635c975abb116102085780636514f217116101e25780636514f217146105cf57806375b238fc146105f15780637677eaf2146106135780638456cb591461062857600080fd5b80635c975abb14610577578063634e93da1461058f578063649a5ec7146105af57600080fd5b80633e9ab645146104e55780633f4ba83a146104fa5780634192400d1461050f5780634977a0ca1461052f5780634f1ef2861461054f57806352d1902d1461056257600080fd5b806321aa3e99116102bc5780632b4542fd116102965780632b4542fd146104585780632f2ff15d1461048557806336568abe146104a55780633659cfe6146104c557600080fd5b806321aa3e99146103d957806321ee7350146103f9578063248a9ca31461041957600080fd5b806301ffc9a714610304578063022d63fb1461033957806302f9e4a3146103625780630aa6220b1461038457806312909595146103995780631c08c08e146103b9575b600080fd5b34801561031057600080fd5b5061032461031f366004614140565b610960565b60405190151581526020015b60405180910390f35b34801561034557600080fd5b50620697805b60405165ffffffffffff9091168152602001610330565b34801561036e57600080fd5b5061038261037d36600461416a565b610971565b005b34801561039057600080fd5b506103826109ba565b3480156103a557600080fd5b506103826103b436600461419f565b6109d0565b3480156103c557600080fd5b506103826103d436600461416a565b610a1a565b3480156103e557600080fd5b506103826103f43660046141d4565b610a36565b34801561040557600080fd5b50610382610414366004614249565b610a88565b34801561042557600080fd5b5061044a61043436600461416a565b600090815261012d602052604090206001015490565b604051908152602001610330565b34801561046457600080fd5b50610478610473366004614282565b610ad7565b60405161033091906142f9565b34801561049157600080fd5b506103826104a0366004614348565b610c59565b3480156104b157600080fd5b506103826104c0366004614348565b610c63565b3480156104d157600080fd5b506103826104e0366004614282565b610c6d565b3480156104f157600080fd5b50610382610d49565b34801561050657600080fd5b50610382610d85565b34801561051b57600080fd5b5061038261052a366004614374565b610da5565b34801561053b57600080fd5b5061038261054a36600461419f565b610ddd565b61038261055d3660046143b2565b610e96565b34801561056e57600080fd5b5061044a610f62565b34801561058357600080fd5b5060fb5460ff16610324565b34801561059b57600080fd5b506103826105aa366004614282565b611015565b3480156105bb57600080fd5b506103826105ca366004614374565b611029565b3480156105db57600080fd5b506105e461103d565b60405161033091906144b4565b3480156105fd57600080fd5b5061044a600080516020614a9183398151915281565b34801561061f57600080fd5b5061038261108f565b34801561063457600080fd5b50610382611151565b34801561064957600080fd5b50610192546001600160a01b03165b6040516001600160a01b039091168152602001610330565b34801561067c57600080fd5b50610658611171565b34801561069157600080fd5b506106586106a03660046144f6565b611186565b3480156106b157600080fd5b506103246106c0366004614348565b6111a6565b3480156106d157600080fd5b506104786111d2565b3480156106e657600080fd5b506104786113e8565b3480156106fb57600080fd5b50610382611534565b34801561071057600080fd5b5061071961164e565b6040805165ffffffffffff938416815292909116602083015201610330565b34801561074457600080fd5b5061044a600081565b34801561075957600080fd5b50610382610768366004614348565b6116a4565b34801561077957600080fd5b50610382610788366004614518565b61176c565b34801561079957600080fd5b506103826118b3565b3480156107ae57600080fd5b506103826107bd3660046144f6565b61195e565b3480156107ce57600080fd5b5061044a6107dd36600461416a565b611d63565b3480156107ee57600080fd5b5061034b611d7b565b34801561080357600080fd5b50610382611ddd565b34801561081857600080fd5b50610821611e5b565b604080516001600160a01b03909316835265ffffffffffff909116602083015201610330565b34801561085357600080fd5b50610382610862366004614348565b611e7d565b34801561087357600080fd5b50610382611e87565b34801561088857600080fd5b50610382610897366004614348565b611e9a565b3480156108a857600080fd5b5061044a600080516020614a4a83398151915281565b3480156108ca57600080fd5b50610382611eb4565b3480156108df57600080fd5b5061044a600080516020614a0a83398151915281565b34801561090157600080fd5b5061044a600080516020614a2a83398151915281565b34801561092357600080fd5b5061044a7f189ab7a9244df0848122154315af71fe140f3db0fe014031783b0946b8c9d2e381565b34801561095757600080fd5b5061034b611f3b565b600061096b82611f67565b92915050565b600080516020614a2a83398151915261098981611fa7565b610268546001146109ad576040516320108b2960e21b815260040160405180910390fd5b6109b682611fb0565b5050565b60006109c581611fa7565b6109cd61221f565b50565b6109e8600080516020614a91833981519152836111a6565b610a1557604051630bd4212160e11b81526001600160a01b03831660048201526024015b60405180910390fd5b505050565b610a2261222c565b610a2b81612287565b6109cd600161022b55565b610a3e61222c565b60005b81811015610a7c57610a6a838383818110610a5e57610a5e61455b565b90506020020135612287565b80610a7481614587565b915050610a41565b506109b6600161022b55565b600080516020614a2a833981519152610aa081611fa7565b61026854600103610ac457604051631cfbe66f60e21b815260040160405180910390fd5b610ad0858585856126cb565b5050505050565b6001600160a01b038116600090815261026260205260408120546060919067ffffffffffffffff811115610b0d57610b0d61439c565b604051908082528060200260200182016040528015610b4657816020015b610b3361407c565b815260200190600190039081610b2b5790505b50905060005b6001600160a01b03841660009081526102626020526040902054811015610c52576001600160a01b038416600090815261026260205260408120805461026392919084908110610b9e57610b9e61455b565b6000918252602080832090910154835282810193909352604091820190208151610100810183528154815260018201549381019390935260028101546001600160a01b03908116928401929092526003810154606084015260048101546080840152600581015460a0840152600681015490911660c08301526007015460e08201528251839083908110610c3457610c3461455b565b60200260200101819052508080610c4a90614587565b915050610b4c565b5092915050565b6109b682826128be565b6109b68282612934565b6001600160a01b037f0000000000000000000000000000000000000000000000000000000000000000163003610cb55760405162461bcd60e51b8152600401610a0c906145a0565b7f00000000000000000000000000000000000000000000000000000000000000006001600160a01b0316610cfe6000805160206149ea833981519152546001600160a01b031690565b6001600160a01b031614610d245760405162461bcd60e51b8152600401610a0c906145ec565b610d2d81612a20565b604080516000808252602082019092526109cd91839190612a4a565b600080516020614a2a833981519152610d6181611fa7565b610268546001036109cd57604051631cfbe66f60e21b815260040160405180910390fd5b600080516020614a4a833981519152610d9d81611fa7565b6109cd612bb5565b610dbc600080516020614a91833981519152612c07565b6101c3805465ffffffffffff191665ffffffffffff92909216919091179055565b610df4600080516020614a91833981519152612c07565b6040518060800160405280848152602001836001600160a01b03168152602001610e1b3390565b6001600160a01b03168152602001610e338342614638565b90523360009081526101c6602090815260409182902083518155908301516001820180546001600160a01b03199081166001600160a01b039384161790915592840151600283018054909416911617909155606090910151600390910155505050565b6001600160a01b037f0000000000000000000000000000000000000000000000000000000000000000163003610ede5760405162461bcd60e51b8152600401610a0c906145a0565b7f00000000000000000000000000000000000000000000000000000000000000006001600160a01b0316610f276000805160206149ea833981519152546001600160a01b031690565b6001600160a01b031614610f4d5760405162461bcd60e51b8152600401610a0c906145ec565b610f5682612a20565b6109b682826001612a4a565b6000306001600160a01b037f000000000000000000000000000000000000000000000000000000000000000016146110025760405162461bcd60e51b815260206004820152603860248201527f555550535570677261646561626c653a206d757374206e6f742062652063616c60448201527f6c6564207468726f7567682064656c656761746563616c6c00000000000000006064820152608401610a0c565b506000805160206149ea83398151915290565b600061102081611fa7565b6109b682612c11565b600061103481611fa7565b6109b682612c84565b6102685460609060011461108257604080516000808252602082019092529061107c565b6110696140d3565b8152602001906001900390816110615790505b50905090565b61108a612cf4565b905090565b600080516020614a2a8339815191526110a781611fa7565b610268546001036110cb57604051631cfbe66f60e21b815260040160405180910390fd5b60016102685560005b6110df610265612e12565b8110156109b65760006110f461026583612e1c565b600081815261026760205260409081902090519192507fff66b6af87103a3a208905f19b8cc3c00ffb581b60f8be8f3ae878bed65fbbe591611136919061464b565b60405180910390a1508061114981614587565b9150506110d4565b600080516020614a4a83398151915261116981611fa7565b6109cd612e28565b600061108a610192546001600160a01b031690565b600082815261015f6020526040812061119f9083612e1c565b9392505050565b600091825261012d602090815260408084206001600160a01b0393909316845291905290205460ff1690565b60606000805b6111e3610260612e12565b8110156112355760006111f861026083612e1c565b6001600160a01b0381166000908152610262602052604090205490915061121f9084614638565b925050808061122d90614587565b9150506111d8565b5060008167ffffffffffffffff8111156112515761125161439c565b60405190808252806020026020018201604052801561128a57816020015b61127761407c565b81526020019060019003908161126f5790505b5090506000805b61129c610260612e12565b8110156113df5760006112b161026083612e1c565b905060005b6001600160a01b038216600090815261026260205260409020548110156113ca576001600160a01b0382166000908152610262602052604081208054610263929190849081106113085761130861455b565b6000918252602080832090910154835282810193909352604091820190208151610100810183528154815260018201549381019390935260028101546001600160a01b03908116928401929092526003810154606084015260048101546080840152600581015460a0840152600681015490911660c08301526007015460e0820152855186908690811061139e5761139e61455b565b602002602001018190525083806113b490614587565b94505080806113c290614587565b9150506112b6565b505080806113d790614587565b915050611291565b50909392505050565b606060006113f46111d2565b90506000805b825181101561144857428382815181106114165761141661455b565b6020026020010151606001511015611436578161143281614587565b9250505b8061144081614587565b9150506113fa565b5060008167ffffffffffffffff8111156114645761146461439c565b60405190808252806020026020018201604052801561149d57816020015b61148a61407c565b8152602001906001900390816114825790505b5090506000805b845181101561152a57428582815181106114c0576114c061455b565b6020026020010151606001511015611518578481815181106114e4576114e461455b565b60200260200101518383815181106114fe576114fe61455b565b6020026020010181905250818061151490614587565b9250505b8061152281614587565b9150506114a4565b5090949350505050565b600080516020614a2a83398151915261154c81611fa7565b6102685460010361157057604051631cfbe66f60e21b815260040160405180910390fd5b600061157d610265612e12565b11156109cd5760005b611591610265612e12565b8110156109b65760006115a661026583612e1c565b600081815261026760205260409081902090519192507f5c98f4246715e31e5987fe3352f14d95527ec6d347ec6e3a23dfa5ab2738b2ac916115e8919061464b565b60405180910390a16000818152610267602052604081208181556001810180546001600160a01b03191690556002810182905560038101829055600481018290556005015561163961026582612e65565b5050808061164690614587565b915050611586565b61019254600090600160d01b900465ffffffffffff16801515801561167b57504265ffffffffffff821610155b6116875760008061169c565b61019254600160a01b900465ffffffffffff16815b915091509091565b6116bb600080516020614a91833981519152612c07565b6040518060800160405280838152602001826001600160a01b031681526020016116e23390565b6001600160a01b031681526020016116f8611f3b565b61170a9065ffffffffffff1642614638565b90523360009081526101c6602090815260409182902083518155908301516001820180546001600160a01b03199081166001600160a01b0393841617909155928401516002830180549094169116179091556060909101516003909101555050565b603254610100900460ff161580801561178c5750603254600160ff909116105b806117a65750303b1580156117a6575060325460ff166001145b6118095760405162461bcd60e51b815260206004820152602e60248201527f496e697469616c697a61626c653a20636f6e747261637420697320616c72656160448201526d191e481a5b9a5d1a585b1a5e995960921b6064820152608401610a0c565b6032805460ff19166001179055801561182c576032805461ff0019166101001790555b61183584612e71565b61025d80546001600160a01b038086166001600160a01b03199283161790925561025e80549285169290911691909117905580156118ad576032805461ff0019169055604051600181527f7f26b83ff96e1f2b6a682f133852f6798a09c465da95921460cefb38474024989060200160405180910390a15b50505050565b60005b6118c16101c4612e12565b8110156109cd5760006118d66101c483612e1c565b6001600160a01b03811660009081526101c6602052604090206003015490915042111561194b576119096101c482612eed565b506001600160a01b03811660009081526101c6602052604081208181556001810180546001600160a01b03199081169091556002820180549091169055600301555b508061195681614587565b9150506118b6565b61196661222c565b61197261026583612f02565b6119925760405163d4e15afd60e01b815260048101839052602401610a0c565b60008281526102676020908152604091829020825160c0810184528154815260018201546001600160a01b0316928101929092526002810154928201929092526003820154606082015260048201546080820181905260059092015460a0820181905290918391611a0291614691565b1015611a3857608081015160405163acbd4acb60e01b815260048101859052602481018490526044810191909152606401610a0c565b60208082015161025d546040805163313ce56760e01b8152905192936000936001600160a01b039093169263313ce5679260048082019392918290030181865afa158015611a8a573d6000803e3d6000fd5b505050506040513d601f19601f82011682018060405250810190611aae91906146a4565b611ab990600a6147ab565b6040840151611ac890866147ba565b611ad291906147d1565b905060006001600160a01b0383166323b872dd3361025e5460405160e084901b6001600160e01b03191681526001600160a01b03928316600482015291166024820152604481018590526064016020604051808303816000875af1158015611b3e573d6000803e3d6000fd5b505050506040513d601f19601f82011682018060405250810190611b6291906147f3565b905080611b9357604051635f2223fb60e11b8152600481018790526024810186905260448101839052606401610a0c565b611ba261025f80546001019055565b6000604051806101000160405280611bbd61025f6000015490565b8152602001888152602001611bcf3390565b6001600160a01b03168152602001866060015142611bed9190614638565b8152602080820189905260408881015181840152888201516001600160a01b03908116606080860191909152808b0151608095860152855160009081526102638552838120875181558786015160018083019190915588860180516002840180549188166001600160a01b03199283168117909155958b01516003850155988a0151600484015560a08a0151600584015560c08a01516006840180549190971699169890981790945560e0880151600790910155908152610262845291822085518154928301825590835292909120015551909150611ccf9061026090612f1a565b50858560a001818151611ce29190614638565b90525060a0850180516000898152610267602052604090206005015551608086015103611d1257611d1287611fb0565b336001600160a01b03167fe2144c03cb7f552d28bcb22adfe7e52c9a2e5f633fec295a72d95a4ea0af61e382604051611d4b9190614815565b60405180910390a250505050506109b6600161022b55565b600081815261015f6020526040812061096b90612e12565b61019254600090600160d01b900465ffffffffffff168015158015611da757504265ffffffffffff8216105b611dc35761019154600160d01b900465ffffffffffff16611dd7565b61019254600160a01b900465ffffffffffff165b91505090565b6000611de7611e5b565b509050336001600160a01b03821614611e535760405162461bcd60e51b815260206004820152602860248201527f416363657373436f6e74726f6c3a2070656e64696e672061646d696e206d75736044820152671d081858d8d95c1d60c21b6064820152608401610a0c565b6109cd612f2f565b610191546001600160a01b03811691600160a01b90910465ffffffffffff1690565b6109b68282612ffc565b6000611e9281611fa7565b6109cd613079565b6109b68282611ea7611f3b565b65ffffffffffff166109d0565b600080516020614a2a833981519152611ecc81611fa7565b61026854600114611ef0576040516320108b2960e21b815260040160405180910390fd5b60005b611efe610265612e12565b811015611f31576000611f1361026583612e1c565b9050611f1e81611fb0565b5080611f2981614587565b915050611ef3565b5050600061026855565b6101c35460009065ffffffffffff1615611f5f57506101c35465ffffffffffff1690565b506201518090565b60006001600160e01b0319821663700e1d5560e11b1480611f9857506001600160e01b03198216636078f29d60e11b145b8061096b575061096b82613084565b6109cd816130a9565b611fbc61026582612f02565b611fdc5760405163d4e15afd60e01b815260048101829052602401610a0c565b60008181526102676020908152604091829020825160c0810184528154815260018201546001600160a01b031692810192909252600281015492820192909252600382015460608201526004820154608082015260059091015460a082015261204761026583612e65565b506000828152610267602052604081208181556001810180546001600160a01b031916905560028101829055600381018290556004810182905560050181905560a0820151608083015161209b9190614691565b905080156121e35761025d546040516370a0823160e01b81523060048201526001600160a01b039091169060009082906370a0823190602401602060405180830381865afa1580156120f1573d6000803e3d6000fd5b505050506040513d601f19601f820116820180604052508101906121159190614824565b9050808311156121425760405163fdc3848f60e01b81526004810184905260248101829052604401610a0c565b61025e5460405163a9059cbb60e01b81526001600160a01b0391821660048201526024810185905260009184169063a9059cbb906044016020604051808303816000875af1158015612198573d6000803e3d6000fd5b505050506040513d601f19601f820116820180604052508101906121bc91906147f3565b9050806121df576040516306c348b560e41b815260048101859052602401610a0c565b5050505b7f414253ba4fb6dd24fa628901f7cd1c6411381dc868f68489e72bb38bd9c9341882604051612212919061483d565b60405180910390a1505050565b61222a600080613174565b565b600261022b540361227f5760405162461bcd60e51b815260206004820152601f60248201527f5265656e7472616e637947756172643a207265656e7472616e742063616c6c006044820152606401610a0c565b600261022b55565b600081815261026360209081526040808320815161010081018352815480825260018301549482019490945260028201546001600160a01b03908116938201939093526003820154606082015260048201546080820152600582015460a0820152600682015490921660c08301526007015460e0820152910361232057604051637eec931b60e01b815260048101839052602401610a0c565b60408101516001600160a01b031633148015906123525750612350600080516020614a0a833981519152336111a6565b155b1561237357604051631d62ac0b60e01b815260048101839052602401610a0c565b428160600151111561239b57604051633937aecf60e01b815260048101839052602401610a0c565b6040808201516001600160a01b031660009081526102626020529081205490036123d857604051636231f6d160e11b815260040160405180910390fd5b6040808201516001600160a01b031660009081526102626020522054600103612439576040808201516001600160a01b0316600090815261026260205290812061242191614112565b60408101516124339061026090612eed565b50612578565b6040808201516001600160a01b0316600090815261026260205290812054905b81811015612575576040808401516001600160a01b03166000908152610262602052208054859190839081106124915761249161455b565b906000526020600020015403612563576040808401516001600160a01b03166000908152610262602052206124c7600184614691565b815481106124d7576124d761455b565b60009182526020808320909101546040808701516001600160a01b0316845261026290925291208054839081106125105761251061455b565b60009182526020808320909101929092556040808601516001600160a01b03168252610262909252208054806125485761254861484b565b60019003818190600052602060002001600090559055612575565b8061256d81614587565b915050612459565b50505b60008281526102636020526040808220828155600181018390556002810180546001600160a01b031990811690915560038201849055600482810185905560058301859055600683018054909216909155600790910183905561025d54848301516080860151935163a9059cbb60e01b81526001600160a01b03929092169363a9059cbb9361261b93016001600160a01b03929092168252602082015260400190565b6020604051808303816000875af115801561263a573d6000803e3d6000fd5b505050506040513d601f19601f8201168201806040525081019061265e91906147f3565b90508061268157604051631642107560e11b815260048101849052602401610a0c565b81604001516001600160a01b03167fddfa0fc7382fc87f92519e42e515abffe96f67341f77ef115d5ce31d3b6bad44836040516126be9190614815565b60405180910390a2505050565b6126da61026480546001019055565b60006040518060c001604052806126f46102646000015490565b81526001600160a01b03878116602080840191909152604080840189905260608085018990526080808601899052600060a09687018190528751815261026785528390208751808255948801516001820180546001600160a01b0319169190971617909555918601516002850155850151600384015584015160048301559183015160059091015590915061278c9061026590613238565b5061025e546040805163f56ebd1960e01b815290516001600160a01b039092169163a6fb97d191839163f56ebd19916004808201926020929091908290030181865afa1580156127e0573d6000803e3d6000fd5b505050506040513d601f19601f820116820180604052508101906128049190614824565b61025d5460405160e084901b6001600160e01b031916815260048101929092526001600160a01b03166024820152604481018590526064016020604051808303816000875af115801561285b573d6000803e3d6000fd5b505050506040513d601f19601f8201168201806040525081019061287f91906147f3565b507f0a458c1c4a5162de299a41f1e458082cc5839c48a726cb5ac89bf6d11ba5e8ae816040516128af919061483d565b60405180910390a15050505050565b8161292a5760405162461bcd60e51b815260206004820152603660248201527f416363657373436f6e74726f6c3a2063616e2774206469726563746c79206772604482015275616e742064656661756c742061646d696e20726f6c6560501b6064820152608401610a0c565b6109b68282613244565b811580156129505750610192546001600160a01b038281169116145b15612a1657600080612960611e5b565b90925090506001600160a01b038216158015612983575065ffffffffffff811615155b801561299657504265ffffffffffff8216105b612a005760405162461bcd60e51b815260206004820152603560248201527f416363657373436f6e74726f6c3a206f6e6c792063616e2072656e6f756e636560448201527420696e2074776f2064656c6179656420737465707360581b6064820152608401610a0c565b5050610191805465ffffffffffff60a01b191690555b6109b6828261326a565b7f189ab7a9244df0848122154315af71fe140f3db0fe014031783b0946b8c9d2e36109b681611fa7565b7f4910fdfa16fed3260ed0e7147f7cc6da11a60208b5b9406d12a635614ffd91435460ff1615612a7d57610a15836132e4565b826001600160a01b03166352d1902d6040518163ffffffff1660e01b8152600401602060405180830381865afa925050508015612ad7575060408051601f3d908101601f19168201909252612ad491810190614824565b60015b612b3a5760405162461bcd60e51b815260206004820152602e60248201527f45524331393637557067726164653a206e657720696d706c656d656e7461746960448201526d6f6e206973206e6f74205555505360901b6064820152608401610a0c565b6000805160206149ea8339815191528114612ba95760405162461bcd60e51b815260206004820152602960248201527f45524331393637557067726164653a20756e737570706f727465642070726f786044820152681a58589b195555525160ba1b6064820152608401610a0c565b50610a15838383613380565b612bbd6133a5565b60fb805460ff191690557f5db9ee0a495bf2e6ff9c91a7834c1ba4fdd244a5e8aa4e537bd38aeae4b073aa335b6040516001600160a01b03909116815260200160405180910390a1565b6109cd81336133ee565b6000612c1b611d7b565b612c2442613447565b612c2e9190614861565b9050612c3a82826134b2565b60405165ffffffffffff821681526001600160a01b038316907f3377dc44241e779dd06afab5b788a35ca5f3b778836e2990bdb26a2a4b2e5ed69060200160405180910390a25050565b6000612c8f82613532565b612c9842613447565b612ca29190614861565b9050612cae8282613174565b6040805165ffffffffffff8085168252831660208201527ff1038c18cf84a56e432fdbfaf746924b7ea511dfe03a6506a0ceba4888788d9b910160405180910390a15050565b60606000612d03610265612e12565b67ffffffffffffffff811115612d1b57612d1b61439c565b604051908082528060200260200182016040528015612d5457816020015b612d416140d3565b815260200190600190039081612d395790505b50905060005b612d65610265612e12565b811015612e0c576102676000612d7d61026584612e1c565b81526020808201929092526040908101600020815160c0810183528154815260018201546001600160a01b03169381019390935260028101549183019190915260038101546060830152600481015460808301526005015460a08201528251839083908110612dee57612dee61455b565b60200260200101819052508080612e0490614587565b915050612d5a565b50919050565b600061096b825490565b600061119f838361357a565b612e306135a4565b60fb805460ff191660011790557f62e78cea01bee320cd4e420270b5ea74000d11b0c9f74754ebdbfc544b05a258612bea3390565b600061119f83836135ea565b603254610100900460ff16612e985760405162461bcd60e51b8152600401610a0c90614880565b612ea1816136dd565b612ec7600080516020614a0a833981519152600080516020614a918339815191526137aa565b6109cd600080516020614a2a833981519152600080516020614a0a8339815191526137aa565b600061119f836001600160a01b0384166135ea565b6000818152600183016020526040812054151561119f565b600061119f836001600160a01b0384166137cd565b600080612f3a611e5b565b91509150612f4f8165ffffffffffff16151590565b8015612f6257504265ffffffffffff8216105b612fbf5760405162461bcd60e51b815260206004820152602860248201527f416363657373436f6e74726f6c3a207472616e736665722064656c6179206e6f6044820152671d081c185cdcd95960c21b6064820152608401610a0c565b612fdc6000612fd7610192546001600160a01b031690565b61381c565b612fe7600083613826565b505061019180546001600160d01b0319169055565b8161306f5760405162461bcd60e51b815260206004820152603760248201527f416363657373436f6e74726f6c3a2063616e2774206469726563746c7920726560448201527f766f6b652064656661756c742061646d696e20726f6c650000000000000000006064820152608401610a0c565b6109b68282613830565b61222a6000806134b2565b60006001600160e01b031982166318a4c3c360e11b148061096b575061096b82613856565b600080516020614a91833981519152811480156130db57506130d9600080516020614a91833981519152336111a6565b155b1561316b576130ec6101c43361387b565b1561316b573360009081526101c660209081526040918290208251608081018452815480825260018301546001600160a01b0390811694830194909452600283015490931693810193909352600301546060830152600080516020614a918339815191521480156131605750428160600151115b15613169575050565b505b6109cd81612c07565b61019254600160d01b900465ffffffffffff1680156131fa574265ffffffffffff821610156131d0576101925461019180546001600160d01b0316600160a01b90920465ffffffffffff16600160d01b029190911790556131fa565b6040517f2b1fa2edafe6f7b9e97c1a9e0c3660e645beb2dcaa2d45bdbf9beaf5472e1ec590600090a15b5061019280546001600160a01b0316600160a01b65ffffffffffff948516026001600160d01b031617600160d01b9290931691909102919091179055565b600061119f83836137cd565b600082815261012d602052604090206001015461326081611fa7565b610a158383613826565b6001600160a01b03811633146132da5760405162461bcd60e51b815260206004820152602f60248201527f416363657373436f6e74726f6c3a2063616e206f6e6c792072656e6f756e636560448201526e103937b632b9903337b91039b2b63360891b6064820152608401610a0c565b6109b6828261381c565b6001600160a01b0381163b6133515760405162461bcd60e51b815260206004820152602d60248201527f455243313936373a206e657720696d706c656d656e746174696f6e206973206e60448201526c1bdd08184818dbdb9d1c9858dd609a1b6064820152608401610a0c565b6000805160206149ea83398151915280546001600160a01b0319166001600160a01b0392909216919091179055565b6133898361389d565b6000825111806133965750805b15610a15576118ad83836138dd565b60fb5460ff1661222a5760405162461bcd60e51b815260206004820152601460248201527314185d5cd8589b194e881b9bdd081c185d5cd95960621b6044820152606401610a0c565b6133f882826111a6565b6109b65761340581613902565b613410836020613914565b6040516020016134219291906148ef565b60408051601f198184030181529082905262461bcd60e51b8252610a0c91600401614964565b600065ffffffffffff8211156134ae5760405162461bcd60e51b815260206004820152602660248201527f53616665436173743a2076616c756520646f65736e27742066697420696e203460448201526538206269747360d01b6064820152608401610a0c565b5090565b60006134bc611e5b565b610191805465ffffffffffff8616600160a01b026001600160d01b03199091166001600160a01b0388161717905591506134ff90508165ffffffffffff16151590565b15610a15576040517f8886ebfc4259abdbc16601dd8fb5678e54878f47b3c34836cfc51154a960510990600090a1505050565b60008061353d611d7b565b90508065ffffffffffff168365ffffffffffff1611613565576135608382614997565b61119f565b61119f65ffffffffffff841662069780613ab0565b60008260000182815481106135915761359161455b565b9060005260206000200154905092915050565b60fb5460ff161561222a5760405162461bcd60e51b815260206004820152601060248201526f14185d5cd8589b194e881c185d5cd95960821b6044820152606401610a0c565b600081815260018301602052604081205480156136d357600061360e600183614691565b855490915060009061362290600190614691565b90508181146136875760008660000182815481106136425761364261455b565b90600052602060002001549050808760000184815481106136655761366561455b565b6000918252602080832090910192909255918252600188019052604090208390555b85548690806136985761369861484b565b60019003818190600052602060002001600090559055856001016000868152602001908152602001600020600090556001935050505061096b565b600091505061096b565b603254610100900460ff166137045760405162461bcd60e51b8152600401610a0c90614880565b61370c613ac6565b613714613aed565b61371c613ac6565b613724613ac6565b6137316203f48082613b1c565b61373c600082613b4d565b613754600080516020614a4a83398151915282613b4d565b61377e7f189ab7a9244df0848122154315af71fe140f3db0fe014031783b0946b8c9d2e382613b4d565b613796600080516020614a9183398151915282613b4d565b6109cd600080516020614a91833981519152805b600082815261012d602052604090206001015481146109b6576109b68282613b65565b60008181526001830160205260408120546138145750815460018181018455600084815260208082209093018490558454848252828601909352604090209190915561096b565b50600061096b565b6109b68282613b6f565b6109b68282613bac565b600082815261012d602052604090206001015461384c81611fa7565b610a15838361381c565b60006001600160e01b03198216635a05180f60e01b148061096b575061096b82613c58565b6001600160a01b0381166000908152600183016020526040812054151561119f565b6138a6816132e4565b6040516001600160a01b038216907fbc7cd75a20ee27fd9adebab32041f755214dbc6bffa90cc0225b39da2e5c2d3b90600090a250565b606061119f8383604051806060016040528060278152602001614a6a60279139613c8d565b606061096b6001600160a01b03831660145b606060006139238360026147ba565b61392e906002614638565b67ffffffffffffffff8111156139465761394661439c565b6040519080825280601f01601f191660200182016040528015613970576020820181803683370190505b509050600360fc1b8160008151811061398b5761398b61455b565b60200101906001600160f81b031916908160001a905350600f60fb1b816001815181106139ba576139ba61455b565b60200101906001600160f81b031916908160001a90535060006139de8460026147ba565b6139e9906001614638565b90505b6001811115613a61576f181899199a1a9b1b9c1cb0b131b232b360811b85600f1660108110613a1d57613a1d61455b565b1a60f81b828281518110613a3357613a3361455b565b60200101906001600160f81b031916908160001a90535060049490941c93613a5a816149b6565b90506139ec565b50831561119f5760405162461bcd60e51b815260206004820181905260248201527f537472696e67733a20686578206c656e67746820696e73756666696369656e746044820152606401610a0c565b6000818310613abf578161119f565b5090919050565b603254610100900460ff1661222a5760405162461bcd60e51b8152600401610a0c90614880565b603254610100900460ff16613b145760405162461bcd60e51b8152600401610a0c90614880565b61222a613d05565b603254610100900460ff16613b435760405162461bcd60e51b8152600401610a0c90614880565b6109b68282613d38565b613b5782826111a6565b6109b6576109b68282613826565b6109b68282613de0565b81158015613b8b5750610192546001600160a01b038281169116145b15613ba25761019280546001600160a01b03191690555b6109b68282613e50565b81613c4e576000613bc6610192546001600160a01b031690565b6001600160a01b031614613c315760405162461bcd60e51b815260206004820152602c60248201527f416363657373436f6e74726f6c3a2064656661756c742061646d696e20616c7260448201526b1958591e4819dc985b9d195960a21b6064820152608401610a0c565b61019280546001600160a01b0319166001600160a01b0383161790555b6109b68282613e73565b60006001600160e01b03198216637965db0b60e01b148061096b57506301ffc9a760e01b6001600160e01b031983161461096b565b6060600080856001600160a01b031685604051613caa91906149cd565b600060405180830381855af49150503d8060008114613ce5576040519150601f19603f3d011682016040523d82523d6000602084013e613cea565b606091505b5091509150613cfb86838387613e96565b9695505050505050565b603254610100900460ff16613d2c5760405162461bcd60e51b8152600401610a0c90614880565b60fb805460ff19169055565b603254610100900460ff16613d5f5760405162461bcd60e51b8152600401610a0c90614880565b6001600160a01b038116613db55760405162461bcd60e51b815260206004820152601e60248201527f416363657373436f6e74726f6c3a20302064656661756c742061646d696e00006044820152606401610a0c565b61019180546001600160d01b0316600160d01b65ffffffffffff8516021790556109b6600082613826565b81613e465760405162461bcd60e51b815260206004820152603060248201527f416363657373436f6e74726f6c3a2063616e27742076696f6c6174652064656660448201526f61756c742061646d696e2072756c657360801b6064820152608401610a0c565b6109b68282613f17565b613e5a8282613f63565b600082815261015f60205260409020610a159082612eed565b613e7d8282613fcb565b600082815261015f60205260409020610a159082612f1a565b60608315613f05578251600003613efe576001600160a01b0385163b613efe5760405162461bcd60e51b815260206004820152601d60248201527f416464726573733a2063616c6c20746f206e6f6e2d636f6e74726163740000006044820152606401610a0c565b5081613f0f565b613f0f8383614052565b949350505050565b600082815261012d6020526040808220600101805490849055905190918391839186917fbd79b86ffe0ab8e8776151514217cd7cacd52c909f66475c3af44e129f0b00ff9190a4505050565b613f6d82826111a6565b156109b657600082815261012d602090815260408083206001600160a01b0385168085529252808320805460ff1916905551339285917ff6391f5c32d9c69d2a47ea670b442974b53935d1edc7fd64eb21e047a839171b9190a45050565b613fd582826111a6565b6109b657600082815261012d602090815260408083206001600160a01b03851684529091529020805460ff1916600117905561400e3390565b6001600160a01b0316816001600160a01b0316837f2f8788117e7eff1d82e926ec794901d17c78024a50270940304540a733656f0d60405160405180910390a45050565b8151156140625781518083602001fd5b8060405162461bcd60e51b8152600401610a0c9190614964565b604051806101000160405280600081526020016000815260200160006001600160a01b0316815260200160008152602001600081526020016000815260200160006001600160a01b03168152602001600081525090565b6040518060c001604052806000815260200160006001600160a01b03168152602001600081526020016000815260200160008152602001600081525090565b50805460008255906000526020600020908101906109cd91905b808211156134ae576000815560010161412c565b60006020828403121561415257600080fd5b81356001600160e01b03198116811461119f57600080fd5b60006020828403121561417c57600080fd5b5035919050565b80356001600160a01b038116811461419a57600080fd5b919050565b6000806000606084860312156141b457600080fd5b833592506141c460208501614183565b9150604084013590509250925092565b600080602083850312156141e757600080fd5b823567ffffffffffffffff808211156141ff57600080fd5b818501915085601f83011261421357600080fd5b81358181111561422257600080fd5b8660208260051b850101111561423757600080fd5b60209290920196919550909350505050565b6000806000806080858703121561425f57600080fd5b61426885614183565b966020860135965060408601359560600135945092505050565b60006020828403121561429457600080fd5b61119f82614183565b8051825260208101516020830152604081015160018060a01b038082166040850152606083015160608501526080830151608085015260a083015160a08501528060c08401511660c0850152505060e081015160e08301525050565b6020808252825182820181905260009190848201906040850190845b8181101561433c5761432883855161429d565b928401926101009290920191600101614315565b50909695505050505050565b6000806040838503121561435b57600080fd5b8235915061436b60208401614183565b90509250929050565b60006020828403121561438657600080fd5b813565ffffffffffff8116811461119f57600080fd5b634e487b7160e01b600052604160045260246000fd5b600080604083850312156143c557600080fd5b6143ce83614183565b9150602083013567ffffffffffffffff808211156143eb57600080fd5b818501915085601f8301126143ff57600080fd5b8135818111156144115761441161439c565b604051601f8201601f19908116603f011681019083821181831017156144395761443961439c565b8160405282815288602084870101111561445257600080fd5b8260208601602083013760006020848301015280955050505050509250929050565b805182526020808201516001600160a01b03169083015260408082015190830152606080820151908301526080808201519083015260a090810151910152565b6020808252825182820181905260009190848201906040850190845b8181101561433c576144e3838551614474565b9284019260c092909201916001016144d0565b6000806040838503121561450957600080fd5b50508035926020909101359150565b60008060006060848603121561452d57600080fd5b61453684614183565b925061454460208501614183565b915061455260408501614183565b90509250925092565b634e487b7160e01b600052603260045260246000fd5b634e487b7160e01b600052601160045260246000fd5b60006001820161459957614599614571565b5060010190565b6020808252602c908201527f46756e6374696f6e206d7573742062652063616c6c6564207468726f7567682060408201526b19195b1959d85d1958d85b1b60a21b606082015260800190565b6020808252602c908201527f46756e6374696f6e206d7573742062652063616c6c6564207468726f7567682060408201526b6163746976652070726f787960a01b606082015260800190565b8082018082111561096b5761096b614571565b8154815260018201546001600160a01b0316602082015260028201546040820152600382015460608201526004820154608082015260059091015460a082015260c00190565b8181038181111561096b5761096b614571565b6000602082840312156146b657600080fd5b815160ff8116811461119f57600080fd5b600181815b808511156147025781600019048211156146e8576146e8614571565b808516156146f557918102915b93841c93908002906146cc565b509250929050565b6000826147195750600161096b565b816147265750600061096b565b816001811461473c576002811461474657614762565b600191505061096b565b60ff84111561475757614757614571565b50506001821b61096b565b5060208310610133831016604e8410600b8410161715614785575081810a61096b565b61478f83836146c7565b80600019048211156147a3576147a3614571565b029392505050565b600061119f60ff84168361470a565b808202811582820484141761096b5761096b614571565b6000826147ee57634e487b7160e01b600052601260045260246000fd5b500490565b60006020828403121561480557600080fd5b8151801515811461119f57600080fd5b610100810161096b828461429d565b60006020828403121561483657600080fd5b5051919050565b60c0810161096b8284614474565b634e487b7160e01b600052603160045260246000fd5b65ffffffffffff818116838216019080821115610c5257610c52614571565b6020808252602b908201527f496e697469616c697a61626c653a20636f6e7472616374206973206e6f74206960408201526a6e697469616c697a696e6760a81b606082015260800190565b60005b838110156148e65781810151838201526020016148ce565b50506000910152565b7f416363657373436f6e74726f6c3a206163636f756e74200000000000000000008152600083516149278160178501602088016148cb565b7001034b99036b4b9b9b4b733903937b6329607d1b60179184019182015283516149588160288401602088016148cb565b01602801949350505050565b60208152600082518060208401526149838160408501602087016148cb565b601f01601f19169190910160400192915050565b65ffffffffffff828116828216039080821115610c5257610c52614571565b6000816149c5576149c5614571565b506000190190565b600082516149df8184602087016148cb565b919091019291505056fe360894a13ba1a3210667c828492db98dca3e2076cc3735a920a3ca505d382bbc241ecf16d79d0f8dbfb92cbc07fe17840425976cf0667f022fe9877caa831b0897667070c54ef182b0f5858b034beac1b6f3089aa2d3188bb1e8929f4fa9b92965d7a28e3265b37a6474929f336521b332c1681b933f6cb9f3376673440d862a416464726573733a206c6f772d6c6576656c2064656c65676174652063616c6c206661696c6564a49807205ce4d355092ef5a8a18f56e8913cf4a201fbe287825b095693c21775a264697066735822122057cefc6fa0c85556aa5917b761f8b46ee320cb9253f0d51a61a8e493b8e8415064736f6c63430008120033",
  "devdoc": {
    "custom:security-contact": "security@hydranet.ai",
    "events": {
      "AdminChanged(address,address)": {
        "details": "Emitted when the admin account has changed."
      },
      "BeaconUpgraded(address)": {
        "details": "Emitted when the beacon is changed."
      },
      "DefaultAdminDelayChangeCanceled()": {
        "details": "Emitted when a {pendingDefaultAdminDelay} is reset if its schedule didn't pass."
      },
      "DefaultAdminDelayChangeScheduled(uint48,uint48)": {
        "details": "Emitted when a {defaultAdminDelay} change is started, setting `newDelay` as the next delay to be applied between default admin transfer after `effectSchedule` has passed."
      },
      "DefaultAdminTransferCanceled()": {
        "details": "Emitted when a {pendingDefaultAdmin} is reset if it was never accepted, regardless of its schedule."
      },
      "DefaultAdminTransferScheduled(address,uint48)": {
        "details": "Emitted when a {defaultAdmin} transfer is started, setting `newAdmin` as the next address to become the {defaultAdmin} by calling {acceptDefaultAdminTransfer} only after `acceptSchedule` passes."
      },
      "Initialized(uint8)": {
        "details": "Triggered when the contract has been initialized or reinitialized."
      },
      "Paused(address)": {
        "details": "Emitted when the pause is triggered by `account`."
      },
      "RoleAdminChanged(bytes32,bytes32,bytes32)": {
        "details": "Emitted when `newAdminRole` is set as ``role``'s admin role, replacing `previousAdminRole` `DEFAULT_ADMIN_ROLE` is the starting admin for all roles, despite {RoleAdminChanged} not being emitted signaling this. _Available since v3.1._"
      },
      "RoleGranted(bytes32,address,address)": {
        "details": "Emitted when `account` is granted `role`. `sender` is the account that originated the contract call, an admin role bearer except when using {AccessControl-_setupRole}."
      },
      "RoleRevoked(bytes32,address,address)": {
        "details": "Emitted when `account` is revoked `role`. `sender` is the account that originated the contract call:   - if using `revokeRole`, it is the admin role bearer   - if using `renounceRole`, it is the role bearer (i.e. `account`)"
      },
      "Unpaused(address)": {
        "details": "Emitted when the pause is lifted by `account`."
      },
      "Upgraded(address)": {
        "details": "Emitted when the implementation is upgraded."
      }
    },
    "kind": "dev",
    "methods": {
      "acceptDefaultAdminTransfer()": {
        "details": "Completes a {defaultAdmin} transfer previously started with {beginDefaultAdminTransfer}. After calling the function: - `DEFAULT_ADMIN_ROLE` should be granted to the caller. - `DEFAULT_ADMIN_ROLE` should be revoked from the previous holder. - {pendingDefaultAdmin} should be reset to zero values. Requirements: - Only can be called by the {pendingDefaultAdmin}'s `newAdmin`. - The {pendingDefaultAdmin}'s `acceptSchedule` should've passed."
      },
      "beginDefaultAdminTransfer(address)": {
        "details": "Starts a {defaultAdmin} transfer by setting a {pendingDefaultAdmin} scheduled for acceptance after the current timestamp plus a {defaultAdminDelay}. Requirements: - Only can be called by the current {defaultAdmin}. Emits a DefaultAdminRoleChangeStarted event."
      },
      "cancelDefaultAdminTransfer()": {
        "details": "Cancels a {defaultAdmin} transfer previously started with {beginDefaultAdminTransfer}. A {pendingDefaultAdmin} not yet accepted can also be cancelled with this function. Requirements: - Only can be called by the current {defaultAdmin}. May emit a DefaultAdminTransferCanceled event."
      },
      "changeDefaultAdminDelay(uint48)": {
        "details": "Initiates a {defaultAdminDelay} update by setting a {pendingDefaultAdminDelay} scheduled for getting into effect after the current timestamp plus a {defaultAdminDelay}. This function guarantees that any call to {beginDefaultAdminTransfer} done between the timestamp this method is called and the {pendingDefaultAdminDelay} effect schedule will use the current {defaultAdminDelay} set before calling. The {pendingDefaultAdminDelay}'s effect schedule is defined in a way that waiting until the schedule and then calling {beginDefaultAdminTransfer} with the new delay will take at least the same as another {defaultAdmin} complete transfer (including acceptance). The schedule is designed for two scenarios: - When the delay is changed for a larger one the schedule is `block.timestamp + newDelay` capped by {defaultAdminDelayIncreaseWait}. - When the delay is changed for a shorter one, the schedule is `block.timestamp + (current delay - new delay)`. A {pendingDefaultAdminDelay} that never got into effect will be canceled in favor of a new scheduled change. Requirements: - Only can be called by the current {defaultAdmin}. Emits a DefaultAdminDelayChangeScheduled event and may emit a DefaultAdminDelayChangeCanceled event."
      },
      "constructor": {
        "custom:oz-upgrades-unsafe-allow": "constructor"
      },
      "defaultAdmin()": {
        "details": "Returns the address of the current `DEFAULT_ADMIN_ROLE` holder."
      },
      "defaultAdminDelay()": {
        "details": "Returns the delay required to schedule the acceptance of a {defaultAdmin} transfer started. This delay will be added to the current timestamp when calling {beginDefaultAdminTransfer} to set the acceptance schedule. NOTE: If a delay change has been scheduled, it will take effect as soon as the schedule passes, making this function returns the new delay. See {changeDefaultAdminDelay}."
      },
      "defaultAdminDelayIncreaseWait()": {
        "details": "Maximum time in seconds for an increase to {defaultAdminDelay} (that is scheduled using {changeDefaultAdminDelay}) to take effect. Default to 5 days. When the {defaultAdminDelay} is scheduled to be increased, it goes into effect after the new delay has passed with the purpose of giving enough time for reverting any accidental change (i.e. using milliseconds instead of seconds) that may lock the contract. However, to avoid excessive schedules, the wait is capped by this function and it can be overrode for a custom {defaultAdminDelay} increase scheduling. IMPORTANT: Make sure to add a reasonable amount of time while overriding this value, otherwise, there's a risk of setting a high new delay that goes into effect almost immediately without the possibility of human intervention in the case of an input error (eg. set milliseconds instead of seconds)."
      },
      "getRoleAdmin(bytes32)": {
        "details": "Returns the admin role that controls `role`. See {grantRole} and {revokeRole}. To change a role's admin, use {_setRoleAdmin}."
      },
      "getRoleMember(bytes32,uint256)": {
        "details": "Returns one of the accounts that have `role`. `index` must be a value between 0 and {getRoleMemberCount}, non-inclusive. Role bearers are not sorted in any particular way, and their ordering may change at any point. WARNING: When using {getRoleMember} and {getRoleMemberCount}, make sure you perform all queries on the same block. See the following https://forum.openzeppelin.com/t/iterating-over-elements-on-enumerableset-in-openzeppelin-contracts/2296[forum post] for more information."
      },
      "getRoleMemberCount(bytes32)": {
        "details": "Returns the number of accounts that have `role`. Can be used together with {getRoleMember} to enumerate all bearers of a role."
      },
      "hasRole(bytes32,address)": {
        "details": "Returns `true` if `account` has been granted `role`."
      },
      "owner()": {
        "details": "See {IERC5313-owner}."
      },
      "paused()": {
        "details": "Returns true if the contract is paused, and false otherwise."
      },
      "pendingDefaultAdmin()": {
        "details": "Returns a tuple of a `newAdmin` and an accept schedule. After the `schedule` passes, the `newAdmin` will be able to accept the {defaultAdmin} role by calling {acceptDefaultAdminTransfer}, completing the role transfer. A zero value only in `acceptSchedule` indicates no pending admin transfer. NOTE: A zero address `newAdmin` means that {defaultAdmin} is being renounced."
      },
      "pendingDefaultAdminDelay()": {
        "details": "Returns a tuple of `newDelay` and an effect schedule. After the `schedule` passes, the `newDelay` will get into effect immediately for every new {defaultAdmin} transfer started with {beginDefaultAdminTransfer}. A zero value only in `effectSchedule` indicates no pending delay change. NOTE: A zero value only for `newDelay` means that the next {defaultAdminDelay} will be zero after the effect schedule."
      },
      "proxiableUUID()": {
        "details": "Implementation of the ERC1822 {proxiableUUID} function. This returns the storage slot used by the implementation. It is used to validate the implementation's compatibility when performing an upgrade. IMPORTANT: A proxy pointing at a proxiable contract should not be considered proxiable itself, because this risks bricking a proxy that upgrades to it, by delegating to itself until out of gas. Thus it is critical that this function revert if invoked through a proxy. This is guaranteed by the `notDelegated` modifier."
      },
      "rollbackDefaultAdminDelay()": {
        "details": "Cancels a scheduled {defaultAdminDelay} change. Requirements: - Only can be called by the current {defaultAdmin}. May emit a DefaultAdminDelayChangeCanceled event."
      },
      "supportsInterface(bytes4)": {
        "details": "See {IERC165-supportsInterface}."
      },
      "upgradeTo(address)": {
        "custom:oz-upgrades-unsafe-allow-reachable": "delegatecall",
        "details": "Upgrade the implementation of the proxy to `newImplementation`. Calls {_authorizeUpgrade}. Emits an {Upgraded} event."
      },
      "upgradeToAndCall(address,bytes)": {
        "custom:oz-upgrades-unsafe-allow-reachable": "delegatecall",
        "details": "Upgrade the implementation of the proxy to `newImplementation`, and subsequently execute the function call encoded in `data`. Calls {_authorizeUpgrade}. Emits an {Upgraded} event."
      }
    },
    "version": 1
  },
  "userdoc": {
    "kind": "user",
    "methods": {
      "defaultElevationDuration()": {
        "notice": "VIEWS ///"
      },
      "pause()": {
        "notice": "OZ INTERFACE ///"
      },
      "requestElevation(bytes32,address)": {
        "notice": "IMPLEMENTATION ///"
      },
      "setDefaultElevationDuration(uint48)": {
        "notice": "ADMIN ACTIONS ///"
      }
    },
    "version": 1
  },
  "storageLayout": {
    "storage": [
      {
        "astId": 10054,
        "contract": "contracts/Bondage.sol:Bondage",
        "label": "__gap",
        "offset": 0,
        "slot": "0",
        "type": "t_array(t_uint256)50_storage"
      },
      {
        "astId": 1758,
        "contract": "contracts/Bondage.sol:Bondage",
        "label": "_initialized",
        "offset": 0,
        "slot": "50",
        "type": "t_uint8"
      },
      {
        "astId": 1761,
        "contract": "contracts/Bondage.sol:Bondage",
        "label": "_initializing",
        "offset": 1,
        "slot": "50",
        "type": "t_bool"
      },
      {
        "astId": 1740,
        "contract": "contracts/Bondage.sol:Bondage",
        "label": "__gap",
        "offset": 0,
        "slot": "51",
        "type": "t_array(t_uint256)50_storage"
      },
      {
        "astId": 2638,
        "contract": "contracts/Bondage.sol:Bondage",
        "label": "__gap",
        "offset": 0,
        "slot": "101",
        "type": "t_array(t_uint256)50_storage"
      },
      {
        "astId": 3095,
        "contract": "contracts/Bondage.sol:Bondage",
        "label": "__gap",
        "offset": 0,
        "slot": "151",
        "type": "t_array(t_uint256)50_storage"
      },
      {
        "astId": 2055,
        "contract": "contracts/Bondage.sol:Bondage",
        "label": "__gap",
        "offset": 0,
        "slot": "201",
        "type": "t_array(t_uint256)50_storage"
      },
      {
        "astId": 2077,
        "contract": "contracts/Bondage.sol:Bondage",
        "label": "_paused",
        "offset": 0,
        "slot": "251",
        "type": "t_bool"
      },
      {
        "astId": 2182,
        "contract": "contracts/Bondage.sol:Bondage",
        "label": "__gap",
        "offset": 0,
        "slot": "252",
        "type": "t_array(t_uint256)49_storage"
      },
      {
        "astId": 897,
        "contract": "contracts/Bondage.sol:Bondage",
        "label": "_roles",
        "offset": 0,
        "slot": "301",
        "type": "t_mapping(t_bytes32,t_struct(RoleData)892_storage)"
      },
      {
        "astId": 1192,
        "contract": "contracts/Bondage.sol:Bondage",
        "label": "__gap",
        "offset": 0,
        "slot": "302",
        "type": "t_array(t_uint256)49_storage"
      },
      {
        "astId": 746,
        "contract": "contracts/Bondage.sol:Bondage",
        "label": "_roleMembers",
        "offset": 0,
        "slot": "351",
        "type": "t_mapping(t_bytes32,t_struct(AddressSet)7204_storage)"
      },
      {
        "astId": 856,
        "contract": "contracts/Bondage.sol:Bondage",
        "label": "__gap",
        "offset": 0,
        "slot": "352",
        "type": "t_array(t_uint256)49_storage"
      },
      {
        "astId": 17,
        "contract": "contracts/Bondage.sol:Bondage",
        "label": "_pendingDefaultAdmin",
        "offset": 0,
        "slot": "401",
        "type": "t_address"
      },
      {
        "astId": 19,
        "contract": "contracts/Bondage.sol:Bondage",
        "label": "_pendingDefaultAdminSchedule",
        "offset": 20,
        "slot": "401",
        "type": "t_uint48"
      },
      {
        "astId": 21,
        "contract": "contracts/Bondage.sol:Bondage",
        "label": "_currentDelay",
        "offset": 26,
        "slot": "401",
        "type": "t_uint48"
      },
      {
        "astId": 23,
        "contract": "contracts/Bondage.sol:Bondage",
        "label": "_currentDefaultAdmin",
        "offset": 0,
        "slot": "402",
        "type": "t_address"
      },
      {
        "astId": 25,
        "contract": "contracts/Bondage.sol:Bondage",
        "label": "_pendingDelay",
        "offset": 20,
        "slot": "402",
        "type": "t_uint48"
      },
      {
        "astId": 27,
        "contract": "contracts/Bondage.sol:Bondage",
        "label": "_pendingDelaySchedule",
        "offset": 26,
        "slot": "402",
        "type": "t_uint48"
      },
      {
        "astId": 711,
        "contract": "contracts/Bondage.sol:Bondage",
        "label": "__gap",
        "offset": 0,
        "slot": "403",
        "type": "t_array(t_uint256)48_storage"
      },
      {
        "astId": 9678,
        "contract": "contracts/Bondage.sol:Bondage",
        "label": "_elevationDuration",
        "offset": 0,
        "slot": "451",
        "type": "t_uint48"
      },
      {
        "astId": 9681,
        "contract": "contracts/Bondage.sol:Bondage",
        "label": "_elevationKeys",
        "offset": 0,
        "slot": "452",
        "type": "t_struct(AddressSet)7204_storage"
      },
      {
        "astId": 9686,
        "contract": "contracts/Bondage.sol:Bondage",
        "label": "_elevations",
        "offset": 0,
        "slot": "454",
        "type": "t_mapping(t_address,t_struct(Elevation)9699_storage)"
      },
      {
        "astId": 10374,
        "contract": "contracts/Bondage.sol:Bondage",
        "label": "__gap",
        "offset": 0,
        "slot": "455",
        "type": "t_array(t_uint256)50_storage"
      },
      {
        "astId": 10418,
        "contract": "contracts/Bondage.sol:Bondage",
        "label": "__gap",
        "offset": 0,
        "slot": "505",
        "type": "t_array(t_uint256)50_storage"
      },
      {
        "astId": 2197,
        "contract": "contracts/Bondage.sol:Bondage",
        "label": "_status",
        "offset": 0,
        "slot": "555",
        "type": "t_uint256"
      },
      {
        "astId": 2266,
        "contract": "contracts/Bondage.sol:Bondage",
        "label": "__gap",
        "offset": 0,
        "slot": "556",
        "type": "t_array(t_uint256)49_storage"
      },
      {
        "astId": 7630,
        "contract": "contracts/Bondage.sol:Bondage",
        "label": "_token",
        "offset": 0,
        "slot": "605",
        "type": "t_contract(IERC20Metadata)7600"
      },
      {
        "astId": 7633,
        "contract": "contracts/Bondage.sol:Bondage",
        "label": "_treasury",
        "offset": 0,
        "slot": "606",
        "type": "t_contract(Treasury)9629"
      },
      {
        "astId": 7636,
        "contract": "contracts/Bondage.sol:Bondage",
        "label": "_maturingBonds",
        "offset": 0,
        "slot": "607",
        "type": "t_struct(BondMap)7790_storage"
      },
      {
        "astId": 7639,
        "contract": "contracts/Bondage.sol:Bondage",
        "label": "_bondMarkets",
        "offset": 0,
        "slot": "612",
        "type": "t_struct(BondMarketMap)7773_storage"
      }
    ],
    "types": {
      "t_address": {
        "encoding": "inplace",
        "label": "address",
        "numberOfBytes": "20"
      },
      "t_array(t_bytes32)dyn_storage": {
        "base": "t_bytes32",
        "encoding": "dynamic_array",
        "label": "bytes32[]",
        "numberOfBytes": "32"
      },
      "t_array(t_uint256)48_storage": {
        "base": "t_uint256",
        "encoding": "inplace",
        "label": "uint256[48]",
        "numberOfBytes": "1536"
      },
      "t_array(t_uint256)49_storage": {
        "base": "t_uint256",
        "encoding": "inplace",
        "label": "uint256[49]",
        "numberOfBytes": "1568"
      },
      "t_array(t_uint256)50_storage": {
        "base": "t_uint256",
        "encoding": "inplace",
        "label": "uint256[50]",
        "numberOfBytes": "1600"
      },
      "t_array(t_uint256)dyn_storage": {
        "base": "t_uint256",
        "encoding": "dynamic_array",
        "label": "uint256[]",
        "numberOfBytes": "32"
      },
      "t_bool": {
        "encoding": "inplace",
        "label": "bool",
        "numberOfBytes": "1"
      },
      "t_bytes32": {
        "encoding": "inplace",
        "label": "bytes32",
        "numberOfBytes": "32"
      },
      "t_contract(IERC20Metadata)7600": {
        "encoding": "inplace",
        "label": "contract IERC20Metadata",
        "numberOfBytes": "20"
      },
      "t_contract(Treasury)9629": {
        "encoding": "inplace",
        "label": "contract Treasury",
        "numberOfBytes": "20"
      },
      "t_mapping(t_address,t_array(t_uint256)dyn_storage)": {
        "encoding": "mapping",
        "key": "t_address",
        "label": "mapping(address => uint256[])",
        "numberOfBytes": "32",
        "value": "t_array(t_uint256)dyn_storage"
      },
      "t_mapping(t_address,t_bool)": {
        "encoding": "mapping",
        "key": "t_address",
        "label": "mapping(address => bool)",
        "numberOfBytes": "32",
        "value": "t_bool"
      },
      "t_mapping(t_address,t_struct(Elevation)9699_storage)": {
        "encoding": "mapping",
        "key": "t_address",
        "label": "mapping(address => struct AccessControlElevation.Elevation)",
        "numberOfBytes": "32",
        "value": "t_struct(Elevation)9699_storage"
      },
      "t_mapping(t_bytes32,t_struct(AddressSet)7204_storage)": {
        "encoding": "mapping",
        "key": "t_bytes32",
        "label": "mapping(bytes32 => struct EnumerableSetUpgradeable.AddressSet)",
        "numberOfBytes": "32",
        "value": "t_struct(AddressSet)7204_storage"
      },
      "t_mapping(t_bytes32,t_struct(RoleData)892_storage)": {
        "encoding": "mapping",
        "key": "t_bytes32",
        "label": "mapping(bytes32 => struct AccessControlUpgradeable.RoleData)",
        "numberOfBytes": "32",
        "value": "t_struct(RoleData)892_storage"
      },
      "t_mapping(t_bytes32,t_uint256)": {
        "encoding": "mapping",
        "key": "t_bytes32",
        "label": "mapping(bytes32 => uint256)",
        "numberOfBytes": "32",
        "value": "t_uint256"
      },
      "t_mapping(t_uint256,t_struct(Bond)7759_storage)": {
        "encoding": "mapping",
        "key": "t_uint256",
        "label": "mapping(uint256 => struct Bondage.Bond)",
        "numberOfBytes": "32",
        "value": "t_struct(Bond)7759_storage"
      },
      "t_mapping(t_uint256,t_struct(BondMarket)7742_storage)": {
        "encoding": "mapping",
        "key": "t_uint256",
        "label": "mapping(uint256 => struct Bondage.BondMarket)",
        "numberOfBytes": "32",
        "value": "t_struct(BondMarket)7742_storage"
      },
      "t_struct(AddressSet)7204_storage": {
        "encoding": "inplace",
        "label": "struct EnumerableSetUpgradeable.AddressSet",
        "members": [
          {
            "astId": 7203,
            "contract": "contracts/Bondage.sol:Bondage",
            "label": "_inner",
            "offset": 0,
            "slot": "0",
            "type": "t_struct(Set)6889_storage"
          }
        ],
        "numberOfBytes": "64"
      },
      "t_struct(Bond)7759_storage": {
        "encoding": "inplace",
        "label": "struct Bondage.Bond",
        "members": [
          {
            "astId": 7744,
            "contract": "contracts/Bondage.sol:Bondage",
            "label": "id",
            "offset": 0,
            "slot": "0",
            "type": "t_uint256"
          },
          {
            "astId": 7746,
            "contract": "contracts/Bondage.sol:Bondage",
            "label": "marketId",
            "offset": 0,
            "slot": "1",
            "type": "t_uint256"
          },
          {
            "astId": 7748,
            "contract": "contracts/Bondage.sol:Bondage",
            "label": "owner",
            "offset": 0,
            "slot": "2",
            "type": "t_address"
          },
          {
            "astId": 7750,
            "contract": "contracts/Bondage.sol:Bondage",
            "label": "maturation",
            "offset": 0,
            "slot": "3",
            "type": "t_uint256"
          },
          {
            "astId": 7752,
            "contract": "contracts/Bondage.sol:Bondage",
            "label": "amount",
            "offset": 0,
            "slot": "4",
            "type": "t_uint256"
          },
          {
            "astId": 7754,
            "contract": "contracts/Bondage.sol:Bondage",
            "label": "price",
            "offset": 0,
            "slot": "5",
            "type": "t_uint256"
          },
          {
            "astId": 7756,
            "contract": "contracts/Bondage.sol:Bondage",
            "label": "quoteToken",
            "offset": 0,
            "slot": "6",
            "type": "t_address"
          },
          {
            "astId": 7758,
            "contract": "contracts/Bondage.sol:Bondage",
            "label": "term",
            "offset": 0,
            "slot": "7",
            "type": "t_uint256"
          }
        ],
        "numberOfBytes": "256"
      },
      "t_struct(BondMap)7790_storage": {
        "encoding": "inplace",
        "label": "struct Bondage.BondMap",
        "members": [
          {
            "astId": 7776,
            "contract": "contracts/Bondage.sol:Bondage",
            "label": "seqId",
            "offset": 0,
            "slot": "0",
            "type": "t_struct(Counter)2645_storage"
          },
          {
            "astId": 7779,
            "contract": "contracts/Bondage.sol:Bondage",
            "label": "addresses",
            "offset": 0,
            "slot": "1",
            "type": "t_struct(AddressSet)7204_storage"
          },
          {
            "astId": 7784,
            "contract": "contracts/Bondage.sol:Bondage",
            "label": "index",
            "offset": 0,
            "slot": "3",
            "type": "t_mapping(t_address,t_array(t_uint256)dyn_storage)"
          },
          {
            "astId": 7789,
            "contract": "contracts/Bondage.sol:Bondage",
            "label": "bonds",
            "offset": 0,
            "slot": "4",
            "type": "t_mapping(t_uint256,t_struct(Bond)7759_storage)"
          }
        ],
        "numberOfBytes": "160"
      },
      "t_struct(BondMarket)7742_storage": {
        "encoding": "inplace",
        "label": "struct Bondage.BondMarket",
        "members": [
          {
            "astId": 7731,
            "contract": "contracts/Bondage.sol:Bondage",
            "label": "id",
            "offset": 0,
            "slot": "0",
            "type": "t_uint256"
          },
          {
            "astId": 7733,
            "contract": "contracts/Bondage.sol:Bondage",
            "label": "quoteToken",
            "offset": 0,
            "slot": "1",
            "type": "t_address"
          },
          {
            "astId": 7735,
            "contract": "contracts/Bondage.sol:Bondage",
            "label": "price",
            "offset": 0,
            "slot": "2",
            "type": "t_uint256"
          },
          {
            "astId": 7737,
            "contract": "contracts/Bondage.sol:Bondage",
            "label": "duration",
            "offset": 0,
            "slot": "3",
            "type": "t_uint256"
          },
          {
            "astId": 7739,
            "contract": "contracts/Bondage.sol:Bondage",
            "label": "volume",
            "offset": 0,
            "slot": "4",
            "type": "t_uint256"
          },
          {
            "astId": 7741,
            "contract": "contracts/Bondage.sol:Bondage",
            "label": "sold",
            "offset": 0,
            "slot": "5",
            "type": "t_uint256"
          }
        ],
        "numberOfBytes": "192"
      },
      "t_struct(BondMarketMap)7773_storage": {
        "encoding": "inplace",
        "label": "struct Bondage.BondMarketMap",
        "members": [
          {
            "astId": 7762,
            "contract": "contracts/Bondage.sol:Bondage",
            "label": "seqId",
            "offset": 0,
            "slot": "0",
            "type": "t_struct(Counter)2645_storage"
          },
          {
            "astId": 7765,
            "contract": "contracts/Bondage.sol:Bondage",
            "label": "ids",
            "offset": 0,
            "slot": "1",
            "type": "t_struct(UintSet)7361_storage"
          },
          {
            "astId": 7770,
            "contract": "contracts/Bondage.sol:Bondage",
            "label": "markets",
            "offset": 0,
            "slot": "3",
            "type": "t_mapping(t_uint256,t_struct(BondMarket)7742_storage)"
          },
          {
            "astId": 7772,
            "contract": "contracts/Bondage.sol:Bondage",
            "label": "live",
            "offset": 0,
            "slot": "4",
            "type": "t_uint256"
          }
        ],
        "numberOfBytes": "160"
      },
      "t_struct(Counter)2645_storage": {
        "encoding": "inplace",
        "label": "struct CountersUpgradeable.Counter",
        "members": [
          {
            "astId": 2644,
            "contract": "contracts/Bondage.sol:Bondage",
            "label": "_value",
            "offset": 0,
            "slot": "0",
            "type": "t_uint256"
          }
        ],
        "numberOfBytes": "32"
      },
      "t_struct(Elevation)9699_storage": {
        "encoding": "inplace",
        "label": "struct AccessControlElevation.Elevation",
        "members": [
          {
            "astId": 9692,
            "contract": "contracts/Bondage.sol:Bondage",
            "label": "role",
            "offset": 0,
            "slot": "0",
            "type": "t_bytes32"
          },
          {
            "astId": 9694,
            "contract": "contracts/Bondage.sol:Bondage",
            "label": "elevatedAddress",
            "offset": 0,
            "slot": "1",
            "type": "t_address"
          },
          {
            "astId": 9696,
            "contract": "contracts/Bondage.sol:Bondage",
            "label": "elevatedBy",
            "offset": 0,
            "slot": "2",
            "type": "t_address"
          },
          {
            "astId": 9698,
            "contract": "contracts/Bondage.sol:Bondage",
            "label": "expires",
            "offset": 0,
            "slot": "3",
            "type": "t_uint256"
          }
        ],
        "numberOfBytes": "128"
      },
      "t_struct(RoleData)892_storage": {
        "encoding": "inplace",
        "label": "struct AccessControlUpgradeable.RoleData",
        "members": [
          {
            "astId": 889,
            "contract": "contracts/Bondage.sol:Bondage",
            "label": "members",
            "offset": 0,
            "slot": "0",
            "type": "t_mapping(t_address,t_bool)"
          },
          {
            "astId": 891,
            "contract": "contracts/Bondage.sol:Bondage",
            "label": "adminRole",
            "offset": 0,
            "slot": "1",
            "type": "t_bytes32"
          }
        ],
        "numberOfBytes": "64"
      },
      "t_struct(Set)6889_storage": {
        "encoding": "inplace",
        "label": "struct EnumerableSetUpgradeable.Set",
        "members": [
          {
            "astId": 6884,
            "contract": "contracts/Bondage.sol:Bondage",
            "label": "_values",
            "offset": 0,
            "slot": "0",
            "type": "t_array(t_bytes32)dyn_storage"
          },
          {
            "astId": 6888,
            "contract": "contracts/Bondage.sol:Bondage",
            "label": "_indexes",
            "offset": 0,
            "slot": "1",
            "type": "t_mapping(t_bytes32,t_uint256)"
          }
        ],
        "numberOfBytes": "64"
      },
      "t_struct(UintSet)7361_storage": {
        "encoding": "inplace",
        "label": "struct EnumerableSetUpgradeable.UintSet",
        "members": [
          {
            "astId": 7360,
            "contract": "contracts/Bondage.sol:Bondage",
            "label": "_inner",
            "offset": 0,
            "slot": "0",
            "type": "t_struct(Set)6889_storage"
          }
        ],
        "numberOfBytes": "64"
      },
      "t_uint256": {
        "encoding": "inplace",
        "label": "uint256",
        "numberOfBytes": "32"
      },
      "t_uint48": {
        "encoding": "inplace",
        "label": "uint48",
        "numberOfBytes": "6"
      },
      "t_uint8": {
        "encoding": "inplace",
        "label": "uint8",
        "numberOfBytes": "1"
      }
    }
  }
}