{
  "address": "0x3bdE44D3F2Db945d7746Fc9113C4d6B120Aa336a",
  "abi": [
    {
      "inputs": [],
      "stateMutability": "nonpayable",
      "type": "constructor"
    },
    {
      "inputs": [
        {
          "internalType": "uint256",
          "name": "market",
          "type": "uint256"
        },
        {
          "internalType": "uint256",
          "name": "amount",
          "type": "uint256"
        },
        {
          "internalType": "uint256",
          "name": "quoteAmount",
          "type": "uint256"
        }
      ],
      "name": "BondBuyTransferFailed",
      "type": "error"
    },
    {
      "inputs": [],
      "name": "BondIndexCorrupted",
      "type": "error"
    },
    {
      "inputs": [
        {
          "internalType": "uint256",
          "name": "amount",
          "type": "uint256"
        },
        {
          "internalType": "uint256",
          "name": "balance",
          "type": "uint256"
        }
      ],
      "name": "BondMarketClosingInsufficientBalance",
      "type": "error"
    },
    {
      "inputs": [
        {
          "internalType": "uint256",
          "name": "amount",
          "type": "uint256"
        }
      ],
      "name": "BondMarketClosingRefundTransferFailed",
      "type": "error"
    },
    {
      "inputs": [
        {
          "internalType": "uint256",
          "name": "volume",
          "type": "uint256"
        }
      ],
      "name": "BondMarketFundingTransferFailed",
      "type": "error"
    },
    {
      "inputs": [
        {
          "internalType": "uint256",
          "name": "id",
          "type": "uint256"
        },
        {
          "internalType": "uint256",
          "name": "amount",
          "type": "uint256"
        },
        {
          "internalType": "uint256",
          "name": "volume",
          "type": "uint256"
        }
      ],
      "name": "BondMarketInsufficientVolume",
      "type": "error"
    },
    {
      "inputs": [
        {
          "internalType": "uint256",
          "name": "id",
          "type": "uint256"
        }
      ],
      "name": "BondMarketNotActive",
      "type": "error"
    },
    {
      "inputs": [
        {
          "internalType": "uint256",
          "name": "id",
          "type": "uint256"
        }
      ],
      "name": "BondNotActive",
      "type": "error"
    },
    {
      "inputs": [
        {
          "internalType": "uint256",
          "name": "id",
          "type": "uint256"
        }
      ],
      "name": "BondNotMatured",
      "type": "error"
    },
    {
      "inputs": [
        {
          "internalType": "uint256",
          "name": "id",
          "type": "uint256"
        }
      ],
      "name": "BondNotOwnedByCaller",
      "type": "error"
    },
    {
      "inputs": [
        {
          "internalType": "uint256",
          "name": "id",
          "type": "uint256"
        }
      ],
      "name": "BondPayoutTransferFailed",
      "type": "error"
    },
    {
      "anonymous": false,
      "inputs": [
        {
          "indexed": false,
          "internalType": "address",
          "name": "previousAdmin",
          "type": "address"
        },
        {
          "indexed": false,
          "internalType": "address",
          "name": "newAdmin",
          "type": "address"
        }
      ],
      "name": "AdminChanged",
      "type": "event"
    },
    {
      "anonymous": false,
      "inputs": [
        {
          "indexed": true,
          "internalType": "address",
          "name": "beacon",
          "type": "address"
        }
      ],
      "name": "BeaconUpgraded",
      "type": "event"
    },
    {
      "anonymous": false,
      "inputs": [
        {
          "indexed": true,
          "internalType": "address",
          "name": "owner",
          "type": "address"
        },
        {
          "components": [
            {
              "internalType": "uint256",
              "name": "id",
              "type": "uint256"
            },
            {
              "internalType": "uint256",
              "name": "marketId",
              "type": "uint256"
            },
            {
              "internalType": "address",
              "name": "owner",
              "type": "address"
            },
            {
              "internalType": "uint256",
              "name": "maturation",
              "type": "uint256"
            },
            {
              "internalType": "uint256",
              "name": "amount",
              "type": "uint256"
            },
            {
              "internalType": "uint256",
              "name": "price",
              "type": "uint256"
            },
            {
              "internalType": "address",
              "name": "quoteToken",
              "type": "address"
            },
            {
              "internalType": "uint256",
              "name": "term",
              "type": "uint256"
            }
          ],
          "indexed": false,
          "internalType": "struct Bondage.Bond",
          "name": "bond",
          "type": "tuple"
        }
      ],
      "name": "BondClaimed",
      "type": "event"
    },
    {
      "anonymous": false,
      "inputs": [
        {
          "components": [
            {
              "internalType": "uint256",
              "name": "id",
              "type": "uint256"
            },
            {
              "internalType": "address",
              "name": "quoteToken",
              "type": "address"
            },
            {
              "internalType": "uint256",
              "name": "price",
              "type": "uint256"
            },
            {
              "internalType": "uint256",
              "name": "duration",
              "type": "uint256"
            },
            {
              "internalType": "uint256",
              "name": "volume",
              "type": "uint256"
            },
            {
              "internalType": "uint256",
              "name": "sold",
              "type": "uint256"
            }
          ],
          "indexed": false,
          "internalType": "struct Bondage.BondMarket",
          "name": "market",
          "type": "tuple"
        }
      ],
      "name": "BondMarketClosed",
      "type": "event"
    },
    {
      "anonymous": false,
      "inputs": [
        {
          "components": [
            {
              "internalType": "uint256",
              "name": "id",
              "type": "uint256"
            },
            {
              "internalType": "address",
              "name": "quoteToken",
              "type": "address"
            },
            {
              "internalType": "uint256",
              "name": "price",
              "type": "uint256"
            },
            {
              "internalType": "uint256",
              "name": "duration",
              "type": "uint256"
            },
            {
              "internalType": "uint256",
              "name": "volume",
              "type": "uint256"
            },
            {
              "internalType": "uint256",
              "name": "sold",
              "type": "uint256"
            }
          ],
          "indexed": false,
          "internalType": "struct Bondage.BondMarket",
          "name": "market",
          "type": "tuple"
        }
      ],
      "name": "BondMarketOpened",
      "type": "event"
    },
    {
      "anonymous": false,
      "inputs": [
        {
          "indexed": true,
          "internalType": "address",
          "name": "owner",
          "type": "address"
        },
        {
          "components": [
            {
              "internalType": "uint256",
              "name": "id",
              "type": "uint256"
            },
            {
              "internalType": "uint256",
              "name": "marketId",
              "type": "uint256"
            },
            {
              "internalType": "address",
              "name": "owner",
              "type": "address"
            },
            {
              "internalType": "uint256",
              "name": "maturation",
              "type": "uint256"
            },
            {
              "internalType": "uint256",
              "name": "amount",
              "type": "uint256"
            },
            {
              "internalType": "uint256",
              "name": "price",
              "type": "uint256"
            },
            {
              "internalType": "address",
              "name": "quoteToken",
              "type": "address"
            },
            {
              "internalType": "uint256",
              "name": "term",
              "type": "uint256"
            }
          ],
          "indexed": false,
          "internalType": "struct Bondage.Bond",
          "name": "bond",
          "type": "tuple"
        }
      ],
      "name": "BondSold",
      "type": "event"
    },
    {
      "anonymous": false,
      "inputs": [
        {
          "indexed": false,
          "internalType": "uint8",
          "name": "version",
          "type": "uint8"
        }
      ],
      "name": "Initialized",
      "type": "event"
    },
    {
      "anonymous": false,
      "inputs": [
        {
          "indexed": false,
          "internalType": "address",
          "name": "account",
          "type": "address"
        }
      ],
      "name": "Paused",
      "type": "event"
    },
    {
      "anonymous": false,
      "inputs": [
        {
          "indexed": true,
          "internalType": "bytes32",
          "name": "role",
          "type": "bytes32"
        },
        {
          "indexed": true,
          "internalType": "bytes32",
          "name": "previousAdminRole",
          "type": "bytes32"
        },
        {
          "indexed": true,
          "internalType": "bytes32",
          "name": "newAdminRole",
          "type": "bytes32"
        }
      ],
      "name": "RoleAdminChanged",
      "type": "event"
    },
    {
      "anonymous": false,
      "inputs": [
        {
          "indexed": true,
          "internalType": "bytes32",
          "name": "role",
          "type": "bytes32"
        },
        {
          "indexed": true,
          "internalType": "address",
          "name": "account",
          "type": "address"
        },
        {
          "indexed": true,
          "internalType": "address",
          "name": "sender",
          "type": "address"
        }
      ],
      "name": "RoleGranted",
      "type": "event"
    },
    {
      "anonymous": false,
      "inputs": [
        {
          "indexed": true,
          "internalType": "bytes32",
          "name": "role",
          "type": "bytes32"
        },
        {
          "indexed": true,
          "internalType": "address",
          "name": "account",
          "type": "address"
        },
        {
          "indexed": true,
          "internalType": "address",
          "name": "sender",
          "type": "address"
        }
      ],
      "name": "RoleRevoked",
      "type": "event"
    },
    {
      "anonymous": false,
      "inputs": [
        {
          "indexed": false,
          "internalType": "address",
          "name": "account",
          "type": "address"
        }
      ],
      "name": "Unpaused",
      "type": "event"
    },
    {
      "anonymous": false,
      "inputs": [
        {
          "indexed": true,
          "internalType": "address",
          "name": "implementation",
          "type": "address"
        }
      ],
      "name": "Upgraded",
      "type": "event"
    },
    {
      "inputs": [],
      "name": "BONDS_MANAGER_ROLE",
      "outputs": [
        {
          "internalType": "bytes32",
          "name": "",
          "type": "bytes32"
        }
      ],
      "stateMutability": "view",
      "type": "function"
    },
    {
      "inputs": [],
      "name": "DEFAULT_ADMIN_ROLE",
      "outputs": [
        {
          "internalType": "bytes32",
          "name": "",
          "type": "bytes32"
        }
      ],
      "stateMutability": "view",
      "type": "function"
    },
    {
      "inputs": [],
      "name": "PAUSER_ROLE",
      "outputs": [
        {
          "internalType": "bytes32",
          "name": "",
          "type": "bytes32"
        }
      ],
      "stateMutability": "view",
      "type": "function"
    },
    {
      "inputs": [],
      "name": "UPGRADER_ROLE",
      "outputs": [
        {
          "internalType": "bytes32",
          "name": "",
          "type": "bytes32"
        }
      ],
      "stateMutability": "view",
      "type": "function"
    },
    {
      "inputs": [],
      "name": "activeMarkets",
      "outputs": [
        {
          "components": [
            {
              "internalType": "uint256",
              "name": "id",
              "type": "uint256"
            },
            {
              "internalType": "address",
              "name": "quoteToken",
              "type": "address"
            },
            {
              "internalType": "uint256",
              "name": "price",
              "type": "uint256"
            },
            {
              "internalType": "uint256",
              "name": "duration",
              "type": "uint256"
            },
            {
              "internalType": "uint256",
              "name": "volume",
              "type": "uint256"
            },
            {
              "internalType": "uint256",
              "name": "sold",
              "type": "uint256"
            }
          ],
          "internalType": "struct Bondage.BondMarket[]",
          "name": "",
          "type": "tuple[]"
        }
      ],
      "stateMutability": "view",
      "type": "function"
    },
    {
      "inputs": [],
      "name": "allMaturingBonds",
      "outputs": [
        {
          "components": [
            {
              "internalType": "uint256",
              "name": "id",
              "type": "uint256"
            },
            {
              "internalType": "uint256",
              "name": "marketId",
              "type": "uint256"
            },
            {
              "internalType": "address",
              "name": "owner",
              "type": "address"
            },
            {
              "internalType": "uint256",
              "name": "maturation",
              "type": "uint256"
            },
            {
              "internalType": "uint256",
              "name": "amount",
              "type": "uint256"
            },
            {
              "internalType": "uint256",
              "name": "price",
              "type": "uint256"
            },
            {
              "internalType": "address",
              "name": "quoteToken",
              "type": "address"
            },
            {
              "internalType": "uint256",
              "name": "term",
              "type": "uint256"
            }
          ],
          "internalType": "struct Bondage.Bond[]",
          "name": "",
          "type": "tuple[]"
        }
      ],
      "stateMutability": "view",
      "type": "function"
    },
    {
      "inputs": [
        {
          "internalType": "uint256",
          "name": "marketId",
          "type": "uint256"
        },
        {
          "internalType": "uint256",
          "name": "amount",
          "type": "uint256"
        }
      ],
      "name": "buyBond",
      "outputs": [],
      "stateMutability": "nonpayable",
      "type": "function"
    },
    {
      "inputs": [
        {
          "internalType": "uint256",
          "name": "bondId",
          "type": "uint256"
        }
      ],
      "name": "claimBond",
      "outputs": [],
      "stateMutability": "nonpayable",
      "type": "function"
    },
    {
      "inputs": [
        {
          "internalType": "uint256",
          "name": "id",
          "type": "uint256"
        }
      ],
      "name": "closeBondMarket",
      "outputs": [],
      "stateMutability": "nonpayable",
      "type": "function"
    },
    {
      "inputs": [
        {
          "internalType": "address",
          "name": "quoteToken",
          "type": "address"
        },
        {
          "internalType": "uint256",
          "name": "price",
          "type": "uint256"
        },
        {
          "internalType": "uint256",
          "name": "duration",
          "type": "uint256"
        },
        {
          "internalType": "uint256",
          "name": "volume",
          "type": "uint256"
        }
      ],
      "name": "createBondMarket",
      "outputs": [],
      "stateMutability": "nonpayable",
      "type": "function"
    },
    {
      "inputs": [
        {
          "internalType": "uint256[]",
          "name": "bondIds",
          "type": "uint256[]"
        }
      ],
      "name": "forceClaimOverdueBonds",
      "outputs": [],
      "stateMutability": "nonpayable",
      "type": "function"
    },
    {
      "inputs": [
        {
          "internalType": "bytes32",
          "name": "role",
          "type": "bytes32"
        }
      ],
      "name": "getRoleAdmin",
      "outputs": [
        {
          "internalType": "bytes32",
          "name": "",
          "type": "bytes32"
        }
      ],
      "stateMutability": "view",
      "type": "function"
    },
    {
      "inputs": [
        {
          "internalType": "bytes32",
          "name": "role",
          "type": "bytes32"
        },
        {
          "internalType": "address",
          "name": "account",
          "type": "address"
        }
      ],
      "name": "grantRole",
      "outputs": [],
      "stateMutability": "nonpayable",
      "type": "function"
    },
    {
      "inputs": [
        {
          "internalType": "bytes32",
          "name": "role",
          "type": "bytes32"
        },
        {
          "internalType": "address",
          "name": "account",
          "type": "address"
        }
      ],
      "name": "hasRole",
      "outputs": [
        {
          "internalType": "bool",
          "name": "",
          "type": "bool"
        }
      ],
      "stateMutability": "view",
      "type": "function"
    },
    {
      "inputs": [
        {
          "internalType": "address",
          "name": "admin",
          "type": "address"
        },
        {
          "internalType": "address",
          "name": "token",
          "type": "address"
        },
        {
          "internalType": "address",
          "name": "treasury",
          "type": "address"
        }
      ],
      "name": "initialize",
      "outputs": [],
      "stateMutability": "nonpayable",
      "type": "function"
    },
    {
      "inputs": [
        {
          "internalType": "address",
          "name": "owner",
          "type": "address"
        }
      ],
      "name": "maturingBonds",
      "outputs": [
        {
          "components": [
            {
              "internalType": "uint256",
              "name": "id",
              "type": "uint256"
            },
            {
              "internalType": "uint256",
              "name": "marketId",
              "type": "uint256"
            },
            {
              "internalType": "address",
              "name": "owner",
              "type": "address"
            },
            {
              "internalType": "uint256",
              "name": "maturation",
              "type": "uint256"
            },
            {
              "internalType": "uint256",
              "name": "amount",
              "type": "uint256"
            },
            {
              "internalType": "uint256",
              "name": "price",
              "type": "uint256"
            },
            {
              "internalType": "address",
              "name": "quoteToken",
              "type": "address"
            },
            {
              "internalType": "uint256",
              "name": "term",
              "type": "uint256"
            }
          ],
          "internalType": "struct Bondage.Bond[]",
          "name": "",
          "type": "tuple[]"
        }
      ],
      "stateMutability": "view",
      "type": "function"
    },
    {
      "inputs": [],
      "name": "overdueMaturingBonds",
      "outputs": [
        {
          "components": [
            {
              "internalType": "uint256",
              "name": "id",
              "type": "uint256"
            },
            {
              "internalType": "uint256",
              "name": "marketId",
              "type": "uint256"
            },
            {
              "internalType": "address",
              "name": "owner",
              "type": "address"
            },
            {
              "internalType": "uint256",
              "name": "maturation",
              "type": "uint256"
            },
            {
              "internalType": "uint256",
              "name": "amount",
              "type": "uint256"
            },
            {
              "internalType": "uint256",
              "name": "price",
              "type": "uint256"
            },
            {
              "internalType": "address",
              "name": "quoteToken",
              "type": "address"
            },
            {
              "internalType": "uint256",
              "name": "term",
              "type": "uint256"
            }
          ],
          "internalType": "struct Bondage.Bond[]",
          "name": "",
          "type": "tuple[]"
        }
      ],
      "stateMutability": "view",
      "type": "function"
    },
    {
      "inputs": [],
      "name": "pause",
      "outputs": [],
      "stateMutability": "nonpayable",
      "type": "function"
    },
    {
      "inputs": [],
      "name": "paused",
      "outputs": [
        {
          "internalType": "bool",
          "name": "",
          "type": "bool"
        }
      ],
      "stateMutability": "view",
      "type": "function"
    },
    {
      "inputs": [],
      "name": "proxiableUUID",
      "outputs": [
        {
          "internalType": "bytes32",
          "name": "",
          "type": "bytes32"
        }
      ],
      "stateMutability": "view",
      "type": "function"
    },
    {
      "inputs": [
        {
          "internalType": "bytes32",
          "name": "role",
          "type": "bytes32"
        },
        {
          "internalType": "address",
          "name": "account",
          "type": "address"
        }
      ],
      "name": "renounceRole",
      "outputs": [],
      "stateMutability": "nonpayable",
      "type": "function"
    },
    {
      "inputs": [
        {
          "internalType": "bytes32",
          "name": "role",
          "type": "bytes32"
        },
        {
          "internalType": "address",
          "name": "account",
          "type": "address"
        }
      ],
      "name": "revokeRole",
      "outputs": [],
      "stateMutability": "nonpayable",
      "type": "function"
    },
    {
      "inputs": [
        {
          "internalType": "bytes4",
          "name": "interfaceId",
          "type": "bytes4"
        }
      ],
      "name": "supportsInterface",
      "outputs": [
        {
          "internalType": "bool",
          "name": "",
          "type": "bool"
        }
      ],
      "stateMutability": "view",
      "type": "function"
    },
    {
      "inputs": [],
      "name": "unpause",
      "outputs": [],
      "stateMutability": "nonpayable",
      "type": "function"
    },
    {
      "inputs": [
        {
          "internalType": "address",
          "name": "newImplementation",
          "type": "address"
        }
      ],
      "name": "upgradeTo",
      "outputs": [],
      "stateMutability": "nonpayable",
      "type": "function"
    },
    {
      "inputs": [
        {
          "internalType": "address",
          "name": "newImplementation",
          "type": "address"
        },
        {
          "internalType": "bytes",
          "name": "data",
          "type": "bytes"
        }
      ],
      "name": "upgradeToAndCall",
      "outputs": [],
      "stateMutability": "payable",
      "type": "function"
    }
  ],
  "numDeployments": 4,
  "solcInputHash": "accc34ced671c7d5f0b0748ab0ca2477",
  "bytecode": "0x60a0604052306080523480156200001557600080fd5b506200002062000026565b620000e7565b600054610100900460ff1615620000935760405162461bcd60e51b815260206004820152602760248201527f496e697469616c697a61626c653a20636f6e747261637420697320696e697469604482015266616c697a696e6760c81b606482015260840160405180910390fd5b60005460ff90811614620000e5576000805460ff191660ff9081179091556040519081527f7f26b83ff96e1f2b6a682f133852f6798a09c465da95921460cefb38474024989060200160405180910390a15b565b60805161315e6200011f600039600081816108f501528181610935015281816109f101528181610a310152610ac0015261315e6000f3fe6080604052600436106101815760003560e01c80635c975abb116100d1578063a217fddf1161008a578063c2ca269a11610064578063c2ca269a14610435578063d547741f14610455578063e63ab1e914610475578063f72c0d8b1461049757600080fd5b8063a217fddf146103e0578063b171dbd4146103f5578063c0c53b8b1461041557600080fd5b80635c975abb1461033c5780636514f2171461035457806368809f8d146103765780638456cb591461039657806391d14854146103ab57806398b3fea3146103cb57600080fd5b80632f2ff15d1161013e5780633f4ba83a116101185780633f4ba83a146102dd5780634f1ef286146102f257806351a0a0591461030557806352d1902d1461032757600080fd5b80632f2ff15d1461027d57806336568abe1461029d5780633659cfe6146102bd57600080fd5b806301ffc9a71461018657806316223f94146101bb5780631c08c08e146101dd5780632112c73b146101fd578063248a9ca31461021f5780632b4542fd1461025d575b600080fd5b34801561019257600080fd5b506101a66101a13660046128d9565b6104cb565b60405190151581526020015b60405180910390f35b3480156101c757600080fd5b506101db6101d6366004612903565b610502565b005b3480156101e957600080fd5b506101db6101f8366004612978565b610551565b34801561020957600080fd5b50610212610570565b6040516101b291906129ed565b34801561022b57600080fd5b5061024f61023a366004612978565b60009081526097602052604090206001015490565b6040519081526020016101b2565b34801561026957600080fd5b50610212610278366004612a58565b6106bc565b34801561028957600080fd5b506101db610298366004612a73565b61083e565b3480156102a957600080fd5b506101db6102b8366004612a73565b610868565b3480156102c957600080fd5b506101db6102d8366004612a58565b6108eb565b3480156102e957600080fd5b506101db6109c7565b6101db610300366004612ab5565b6109e7565b34801561031157600080fd5b5061024f6000805160206130c283398151915281565b34801561033357600080fd5b5061024f610ab3565b34801561034857600080fd5b5060335460ff166101a6565b34801561036057600080fd5b50610369610b66565b6040516101b29190612bb7565b34801561038257600080fd5b506101db610391366004612978565b610cbe565b3480156103a257600080fd5b506101db610cdf565b3480156103b757600080fd5b506101a66103c6366004612a73565b610cff565b3480156103d757600080fd5b50610212610d2a565b3480156103ec57600080fd5b5061024f600081565b34801561040157600080fd5b506101db610410366004612bf9565b610f40565b34801561042157600080fd5b506101db610430366004612c32565b611108565b34801561044157600080fd5b506101db610450366004612c75565b6112c2565b34801561046157600080fd5b506101db610470366004612a73565b6116c7565b34801561048157600080fd5b5061024f6000805160206130e283398151915281565b3480156104a357600080fd5b5061024f7f189ab7a9244df0848122154315af71fe140f3db0fe014031783b0946b8c9d2e381565b60006001600160e01b03198216637965db0b60e01b14806104fc57506301ffc9a760e01b6001600160e01b03198316145b92915050565b600061050d816116ec565b60005b8281101561054b5761053984848381811061052d5761052d612c97565b905060200201356116f6565b8061054381612cc3565b915050610510565b50505050565b610559611b2d565b610562816116f6565b61056d600161012d55565b50565b6060600061057c610d2a565b90506000805b82518110156105d0574283828151811061059e5761059e612c97565b60200260200101516060015110156105be57816105ba81612cc3565b9250505b806105c881612cc3565b915050610582565b5060008167ffffffffffffffff8111156105ec576105ec612a9f565b60405190808252806020026020018201604052801561062557816020015b610612612850565b81526020019060019003908161060a5790505b5090506000805b84518110156106b2574285828151811061064857610648612c97565b60200260200101516060015110156106a05784818151811061066c5761066c612c97565b602002602001015183838151811061068657610686612c97565b6020026020010181905250818061069c90612cc3565b9250505b806106aa81612cc3565b91505061062c565b5090949350505050565b6001600160a01b038116600090815261016860205260408120546060919067ffffffffffffffff8111156106f2576106f2612a9f565b60405190808252806020026020018201604052801561072b57816020015b610718612850565b8152602001906001900390816107105790505b50905060005b6001600160a01b03841660009081526101686020526040902054811015610837576001600160a01b03841660009081526101686020526040812080546101699291908490811061078357610783612c97565b6000918252602080832090910154835282810193909352604091820190208151610100810183528154815260018201549381019390935260028101546001600160a01b03908116928401929092526003810154606084015260048101546080840152600581015460a0840152600681015490911660c08301526007015460e0820152825183908390811061081957610819612c97565b6020026020010181905250808061082f90612cc3565b915050610731565b5092915050565b600082815260976020526040902060010154610859816116ec565b6108638383611b88565b505050565b6001600160a01b03811633146108dd5760405162461bcd60e51b815260206004820152602f60248201527f416363657373436f6e74726f6c3a2063616e206f6e6c792072656e6f756e636560448201526e103937b632b9903337b91039b2b63360891b60648201526084015b60405180910390fd5b6108e78282611c0e565b5050565b6001600160a01b037f00000000000000000000000000000000000000000000000000000000000000001630036109335760405162461bcd60e51b81526004016108d490612cdc565b7f00000000000000000000000000000000000000000000000000000000000000006001600160a01b031661097c6000805160206130a2833981519152546001600160a01b031690565b6001600160a01b0316146109a25760405162461bcd60e51b81526004016108d490612d28565b6109ab81611c75565b6040805160008082526020820190925261056d91839190611c9f565b6000805160206130e28339815191526109df816116ec565b61056d611e0a565b6001600160a01b037f0000000000000000000000000000000000000000000000000000000000000000163003610a2f5760405162461bcd60e51b81526004016108d490612cdc565b7f00000000000000000000000000000000000000000000000000000000000000006001600160a01b0316610a786000805160206130a2833981519152546001600160a01b031690565b6001600160a01b031614610a9e5760405162461bcd60e51b81526004016108d490612d28565b610aa782611c75565b6108e782826001611c9f565b6000306001600160a01b037f00000000000000000000000000000000000000000000000000000000000000001614610b535760405162461bcd60e51b815260206004820152603860248201527f555550535570677261646561626c653a206d757374206e6f742062652063616c60448201527f6c6564207468726f7567682064656c656761746563616c6c000000000000000060648201526084016108d4565b506000805160206130a283398151915290565b60606000610b75610163611e5c565b67ffffffffffffffff811115610b8d57610b8d612a9f565b604051908082528060200260200182016040528015610c0057816020015b610bed6040518060c001604052806000815260200160006001600160a01b03168152602001600081526020016000815260200160008152602001600081525090565b815260200190600190039081610bab5790505b50905060005b610c11610163611e5c565b811015610cb8576101656000610c2961016384611e66565b81526020808201929092526040908101600020815160c0810183528154815260018201546001600160a01b03169381019390935260028101549183019190915260038101546060830152600481015460808301526005015460a08201528251839083908110610c9a57610c9a612c97565b60200260200101819052508080610cb090612cc3565b915050610c06565b50919050565b6000805160206130c2833981519152610cd6816116ec565b6108e782611e79565b6000805160206130e2833981519152610cf7816116ec565b61056d6120e8565b60009182526097602090815260408084206001600160a01b0393909316845291905290205460ff1690565b60606000805b610d3b610166611e5c565b811015610d8d576000610d5061016683611e66565b6001600160a01b03811660009081526101686020526040902054909150610d779084612d74565b9250508080610d8590612cc3565b915050610d30565b5060008167ffffffffffffffff811115610da957610da9612a9f565b604051908082528060200260200182016040528015610de257816020015b610dcf612850565b815260200190600190039081610dc75790505b5090506000805b610df4610166611e5c565b811015610f37576000610e0961016683611e66565b905060005b6001600160a01b03821660009081526101686020526040902054811015610f22576001600160a01b038216600090815261016860205260408120805461016992919084908110610e6057610e60612c97565b6000918252602080832090910154835282810193909352604091820190208151610100810183528154815260018201549381019390935260028101546001600160a01b03908116928401929092526003810154606084015260048101546080840152600581015460a0840152600681015490911660c08301526007015460e08201528551869086908110610ef657610ef6612c97565b60200260200101819052508380610f0c90612cc3565b9450508080610f1a90612cc3565b915050610e0e565b50508080610f2f90612cc3565b915050610de9565b50909392505050565b6000805160206130c2833981519152610f58816116ec565b610f6761016180546001019055565b60006040518060c00160405280610f7e6101615490565b81526001600160a01b0388811660208084019190915260408084018a905260608085018a905260808086018a9052600060a09687018190528751815261016585528390208751808255948801516001820180546001600160a01b031916919097161790955591860151600285015585015160038401558401516004830155918301516005909101559091506110169061016390612125565b5061015f546001600160a01b03166000816323b872dd336040516001600160e01b031960e084901b1681526001600160a01b039091166004820152306024820152604481018890526064016020604051808303816000875af1158015611080573d6000803e3d6000fd5b505050506040513d601f19601f820116820180604052508101906110a49190612d87565b9050806110c7576040516319e3427360e01b8152600481018690526024016108d4565b7fff66b6af87103a3a208905f19b8cc3c00ffb581b60f8be8f3ae878bed65fbbe5836040516110f69190612da9565b60405180910390a15050505050505050565b600054610100900460ff16158080156111285750600054600160ff909116105b806111425750303b158015611142575060005460ff166001145b6111a55760405162461bcd60e51b815260206004820152602e60248201527f496e697469616c697a61626c653a20636f6e747261637420697320616c72656160448201526d191e481a5b9a5d1a585b1a5e995960921b60648201526084016108d4565b6000805460ff1916600117905580156111c8576000805461ff0019166101001790555b6111d0612131565b6111d8612162565b6111e0612162565b6111eb600085611b88565b6112036000805160206130e283398151915285611b88565b61122d7f189ab7a9244df0848122154315af71fe140f3db0fe014031783b0946b8c9d2e385611b88565b6112456000805160206130c283398151915285611b88565b61015f80546001600160a01b038086166001600160a01b031992831617909255610160805492851692909116919091179055801561054b576000805461ff0019169055604051600181527f7f26b83ff96e1f2b6a682f133852f6798a09c465da95921460cefb38474024989060200160405180910390a150505050565b6112ca611b2d565b6112d661016383612189565b6112f65760405163d4e15afd60e01b8152600481018390526024016108d4565b60008281526101656020908152604091829020825160c0810184528154815260018201546001600160a01b0316928101929092526002810154928201929092526003820154606082015260048201546080820181905260059092015460a082018190529091839161136691612db7565b101561139c57608081015160405163acbd4acb60e01b8152600481018590526024810184905260448101919091526064016108d4565b61015f546020808301516040805163313ce56760e01b815290516001600160a01b03909416939192600092859263313ce5679260048083019391928290030181865afa1580156113f0573d6000803e3d6000fd5b505050506040513d601f19601f820116820180604052508101906114149190612dca565b61141f90600a612ed1565b604085015161142e9087612ee0565b6114389190612ef7565b905060006001600160a01b0383166323b872dd336101605460405160e084901b6001600160e01b03191681526001600160a01b03928316600482015291166024820152604481018590526064016020604051808303816000875af11580156114a4573d6000803e3d6000fd5b505050506040513d601f19601f820116820180604052508101906114c89190612d87565b9050806114f957604051635f2223fb60e11b81526004810188905260248101879052604481018390526064016108d4565b61150861016280546001019055565b60006040518061010001604052806115206101625490565b81526020018981526020016115323390565b6001600160a01b031681526020018760600151426115509190612d74565b815260208082018a905260408981015181840152898201516001600160a01b03908116606080860191909152808c0151608095860152855160009081526101698552838120875181558786015160018083019190915588860180516002840180549188166001600160a01b03199283168117909155958b01516003850155988a0151600484015560a08a0151600584015560c08a01516006840180549190971699169890981790945560e088015160079091015590815261016884529182208551815492830182559083529290912001555190915061163290610166906121a1565b50868660a0018181516116459190612d74565b90525060a08601805160008a81526101656020526040902060050155516080870151036116755761167588611e79565b336001600160a01b03167fe2144c03cb7f552d28bcb22adfe7e52c9a2e5f633fec295a72d95a4ea0af61e3826040516116ae9190612f19565b60405180910390a25050505050506108e7600161012d55565b6000828152609760205260409020600101546116e2816116ec565b6108638383611c0e565b61056d81336121b6565b600081815261016960209081526040808320815161010081018352815480825260018301549482019490945260028201546001600160a01b03908116938201939093526003820154606082015260048201546080820152600582015460a0820152600682015490921660c08301526007015460e0820152910361178f57604051637eec931b60e01b8152600481018390526024016108d4565b60408101516001600160a01b031633148015906117b457506117b2600033610cff565b155b156117d557604051631d62ac0b60e01b8152600481018390526024016108d4565b42816060015111156117fd57604051633937aecf60e01b8152600481018390526024016108d4565b6040808201516001600160a01b0316600090815261016860205290812054900361183a57604051636231f6d160e11b815260040160405180910390fd5b6040808201516001600160a01b03166000908152610168602052205460010361189b576040808201516001600160a01b03166000908152610168602052908120611883916128a7565b6040810151611895906101669061220f565b506119da565b6040808201516001600160a01b0316600090815261016860205290812054905b818110156119d7576040808401516001600160a01b03166000908152610168602052208054859190839081106118f3576118f3612c97565b9060005260206000200154036119c5576040808401516001600160a01b0316600090815261016860205220611929600184612db7565b8154811061193957611939612c97565b60009182526020808320909101546040808701516001600160a01b03168452610168909252912080548390811061197257611972612c97565b60009182526020808320909101929092556040808601516001600160a01b03168252610168909252208054806119aa576119aa612f28565b600190038181906000526020600020016000905590556119d7565b806119cf81612cc3565b9150506118bb565b50505b60008281526101696020526040808220828155600181018390556002810180546001600160a01b031990811690915560038201849055600480830185905560058301859055600683018054909216909155600790910183905561015f54848301516080860151935163a9059cbb60e01b81526001600160a01b03929092169363a9059cbb93611a7d93016001600160a01b03929092168252602082015260400190565b6020604051808303816000875af1158015611a9c573d6000803e3d6000fd5b505050506040513d601f19601f82011682018060405250810190611ac09190612d87565b905080611ae357604051631642107560e11b8152600481018490526024016108d4565b81604001516001600160a01b03167fddfa0fc7382fc87f92519e42e515abffe96f67341f77ef115d5ce31d3b6bad4483604051611b209190612f19565b60405180910390a2505050565b600261012d5403611b805760405162461bcd60e51b815260206004820152601f60248201527f5265656e7472616e637947756172643a207265656e7472616e742063616c6c0060448201526064016108d4565b600261012d55565b611b928282610cff565b6108e75760008281526097602090815260408083206001600160a01b03851684529091529020805460ff19166001179055611bca3390565b6001600160a01b0316816001600160a01b0316837f2f8788117e7eff1d82e926ec794901d17c78024a50270940304540a733656f0d60405160405180910390a45050565b611c188282610cff565b156108e75760008281526097602090815260408083206001600160a01b0385168085529252808320805460ff1916905551339285917ff6391f5c32d9c69d2a47ea670b442974b53935d1edc7fd64eb21e047a839171b9190a45050565b7f189ab7a9244df0848122154315af71fe140f3db0fe014031783b0946b8c9d2e36108e7816116ec565b7f4910fdfa16fed3260ed0e7147f7cc6da11a60208b5b9406d12a635614ffd91435460ff1615611cd25761086383612224565b826001600160a01b03166352d1902d6040518163ffffffff1660e01b8152600401602060405180830381865afa925050508015611d2c575060408051601f3d908101601f19168201909252611d2991810190612f3e565b60015b611d8f5760405162461bcd60e51b815260206004820152602e60248201527f45524331393637557067726164653a206e657720696d706c656d656e7461746960448201526d6f6e206973206e6f74205555505360901b60648201526084016108d4565b6000805160206130a28339815191528114611dfe5760405162461bcd60e51b815260206004820152602960248201527f45524331393637557067726164653a20756e737570706f727465642070726f786044820152681a58589b195555525160ba1b60648201526084016108d4565b506108638383836122c0565b611e126122e5565b6033805460ff191690557f5db9ee0a495bf2e6ff9c91a7834c1ba4fdd244a5e8aa4e537bd38aeae4b073aa335b6040516001600160a01b03909116815260200160405180910390a1565b60006104fc825490565b6000611e72838361232e565b9392505050565b611e8561016382612189565b611ea55760405163d4e15afd60e01b8152600481018290526024016108d4565b60008181526101656020908152604091829020825160c0810184528154815260018201546001600160a01b031692810192909252600281015492820192909252600382015460608201526004820154608082015260059091015460a0820152611f1061016383612358565b506000828152610165602052604081208181556001810180546001600160a01b031916905560028101829055600381018290556004810182905560050181905560a08201516080830151611f649190612db7565b905080156120ac5761015f546040516370a0823160e01b81523060048201526001600160a01b039091169060009082906370a0823190602401602060405180830381865afa158015611fba573d6000803e3d6000fd5b505050506040513d601f19601f82011682018060405250810190611fde9190612f3e565b90508083111561200b5760405163fdc3848f60e01b815260048101849052602481018290526044016108d4565b6101605460405163a9059cbb60e01b81526001600160a01b0391821660048201526024810185905260009184169063a9059cbb906044016020604051808303816000875af1158015612061573d6000803e3d6000fd5b505050506040513d601f19601f820116820180604052508101906120859190612d87565b9050806120a8576040516306c348b560e41b8152600481018590526024016108d4565b5050505b7f414253ba4fb6dd24fa628901f7cd1c6411381dc868f68489e72bb38bd9c93418826040516120db9190612da9565b60405180910390a1505050565b6120f0612364565b6033805460ff191660011790557f62e78cea01bee320cd4e420270b5ea74000d11b0c9f74754ebdbfc544b05a258611e3f3390565b6000611e7283836123aa565b600054610100900460ff166121585760405162461bcd60e51b81526004016108d490612f57565b6121606123f9565b565b600054610100900460ff166121605760405162461bcd60e51b81526004016108d490612f57565b60008181526001830160205260408120541515611e72565b6000611e72836001600160a01b0384166123aa565b6121c08282610cff565b6108e7576121cd8161242c565b6121d883602061243e565b6040516020016121e9929190612fc6565b60408051601f198184030181529082905262461bcd60e51b82526108d49160040161303b565b6000611e72836001600160a01b0384166125da565b6001600160a01b0381163b6122915760405162461bcd60e51b815260206004820152602d60248201527f455243313936373a206e657720696d706c656d656e746174696f6e206973206e60448201526c1bdd08184818dbdb9d1c9858dd609a1b60648201526084016108d4565b6000805160206130a283398151915280546001600160a01b0319166001600160a01b0392909216919091179055565b6122c9836126cd565b6000825111806122d65750805b156108635761054b838361270d565b60335460ff166121605760405162461bcd60e51b815260206004820152601460248201527314185d5cd8589b194e881b9bdd081c185d5cd95960621b60448201526064016108d4565b600082600001828154811061234557612345612c97565b9060005260206000200154905092915050565b6000611e7283836125da565b60335460ff16156121605760405162461bcd60e51b815260206004820152601060248201526f14185d5cd8589b194e881c185d5cd95960821b60448201526064016108d4565b60008181526001830160205260408120546123f1575081546001818101845560008481526020808220909301849055845484825282860190935260409020919091556104fc565b5060006104fc565b600054610100900460ff166124205760405162461bcd60e51b81526004016108d490612f57565b6033805460ff19169055565b60606104fc6001600160a01b03831660145b6060600061244d836002612ee0565b612458906002612d74565b67ffffffffffffffff81111561247057612470612a9f565b6040519080825280601f01601f19166020018201604052801561249a576020820181803683370190505b509050600360fc1b816000815181106124b5576124b5612c97565b60200101906001600160f81b031916908160001a905350600f60fb1b816001815181106124e4576124e4612c97565b60200101906001600160f81b031916908160001a9053506000612508846002612ee0565b612513906001612d74565b90505b600181111561258b576f181899199a1a9b1b9c1cb0b131b232b360811b85600f166010811061254757612547612c97565b1a60f81b82828151811061255d5761255d612c97565b60200101906001600160f81b031916908160001a90535060049490941c936125848161306e565b9050612516565b508315611e725760405162461bcd60e51b815260206004820181905260248201527f537472696e67733a20686578206c656e67746820696e73756666696369656e7460448201526064016108d4565b600081815260018301602052604081205480156126c35760006125fe600183612db7565b855490915060009061261290600190612db7565b905081811461267757600086600001828154811061263257612632612c97565b906000526020600020015490508087600001848154811061265557612655612c97565b6000918252602080832090910192909255918252600188019052604090208390555b855486908061268857612688612f28565b6001900381819060005260206000200160009055905585600101600086815260200190815260200160002060009055600193505050506104fc565b60009150506104fc565b6126d681612224565b6040516001600160a01b038216907fbc7cd75a20ee27fd9adebab32041f755214dbc6bffa90cc0225b39da2e5c2d3b90600090a250565b6060611e728383604051806060016040528060278152602001613102602791396060600080856001600160a01b03168560405161274a9190613085565b600060405180830381855af49150503d8060008114612785576040519150601f19603f3d011682016040523d82523d6000602084013e61278a565b606091505b509150915061279b868383876127a5565b9695505050505050565b6060831561281457825160000361280d576001600160a01b0385163b61280d5760405162461bcd60e51b815260206004820152601d60248201527f416464726573733a2063616c6c20746f206e6f6e2d636f6e747261637400000060448201526064016108d4565b508161281e565b61281e8383612826565b949350505050565b8151156128365781518083602001fd5b8060405162461bcd60e51b81526004016108d4919061303b565b604051806101000160405280600081526020016000815260200160006001600160a01b0316815260200160008152602001600081526020016000815260200160006001600160a01b03168152602001600081525090565b508054600082559060005260206000209081019061056d91905b808211156128d557600081556001016128c1565b5090565b6000602082840312156128eb57600080fd5b81356001600160e01b031981168114611e7257600080fd5b6000806020838503121561291657600080fd5b823567ffffffffffffffff8082111561292e57600080fd5b818501915085601f83011261294257600080fd5b81358181111561295157600080fd5b8660208260051b850101111561296657600080fd5b60209290920196919550909350505050565b60006020828403121561298a57600080fd5b5035919050565b8051825260208101516020830152604081015160018060a01b038082166040850152606083015160608501526080830151608085015260a083015160a08501528060c08401511660c0850152505060e081015160e08301525050565b6020808252825182820181905260009190848201906040850190845b81811015612a3057612a1c838551612991565b928401926101009290920191600101612a09565b50909695505050505050565b80356001600160a01b0381168114612a5357600080fd5b919050565b600060208284031215612a6a57600080fd5b611e7282612a3c565b60008060408385031215612a8657600080fd5b82359150612a9660208401612a3c565b90509250929050565b634e487b7160e01b600052604160045260246000fd5b60008060408385031215612ac857600080fd5b612ad183612a3c565b9150602083013567ffffffffffffffff80821115612aee57600080fd5b818501915085601f830112612b0257600080fd5b813581811115612b1457612b14612a9f565b604051601f8201601f19908116603f01168101908382118183101715612b3c57612b3c612a9f565b81604052828152886020848701011115612b5557600080fd5b8260208601602083013760006020848301015280955050505050509250929050565b805182526020808201516001600160a01b03169083015260408082015190830152606080820151908301526080808201519083015260a090810151910152565b6020808252825182820181905260009190848201906040850190845b81811015612a3057612be6838551612b77565b9284019260c09290920191600101612bd3565b60008060008060808587031215612c0f57600080fd5b612c1885612a3c565b966020860135965060408601359560600135945092505050565b600080600060608486031215612c4757600080fd5b612c5084612a3c565b9250612c5e60208501612a3c565b9150612c6c60408501612a3c565b90509250925092565b60008060408385031215612c8857600080fd5b50508035926020909101359150565b634e487b7160e01b600052603260045260246000fd5b634e487b7160e01b600052601160045260246000fd5b600060018201612cd557612cd5612cad565b5060010190565b6020808252602c908201527f46756e6374696f6e206d7573742062652063616c6c6564207468726f7567682060408201526b19195b1959d85d1958d85b1b60a21b606082015260800190565b6020808252602c908201527f46756e6374696f6e206d7573742062652063616c6c6564207468726f7567682060408201526b6163746976652070726f787960a01b606082015260800190565b808201808211156104fc576104fc612cad565b600060208284031215612d9957600080fd5b81518015158114611e7257600080fd5b60c081016104fc8284612b77565b818103818111156104fc576104fc612cad565b600060208284031215612ddc57600080fd5b815160ff81168114611e7257600080fd5b600181815b80851115612e28578160001904821115612e0e57612e0e612cad565b80851615612e1b57918102915b93841c9390800290612df2565b509250929050565b600082612e3f575060016104fc565b81612e4c575060006104fc565b8160018114612e625760028114612e6c57612e88565b60019150506104fc565b60ff841115612e7d57612e7d612cad565b50506001821b6104fc565b5060208310610133831016604e8410600b8410161715612eab575081810a6104fc565b612eb58383612ded565b8060001904821115612ec957612ec9612cad565b029392505050565b6000611e7260ff841683612e30565b80820281158282048414176104fc576104fc612cad565b600082612f1457634e487b7160e01b600052601260045260246000fd5b500490565b61010081016104fc8284612991565b634e487b7160e01b600052603160045260246000fd5b600060208284031215612f5057600080fd5b5051919050565b6020808252602b908201527f496e697469616c697a61626c653a20636f6e7472616374206973206e6f74206960408201526a6e697469616c697a696e6760a81b606082015260800190565b60005b83811015612fbd578181015183820152602001612fa5565b50506000910152565b7f416363657373436f6e74726f6c3a206163636f756e7420000000000000000000815260008351612ffe816017850160208801612fa2565b7001034b99036b4b9b9b4b733903937b6329607d1b601791840191820152835161302f816028840160208801612fa2565b01602801949350505050565b602081526000825180602084015261305a816040850160208701612fa2565b601f01601f19169190910160400192915050565b60008161307d5761307d612cad565b506000190190565b60008251613097818460208701612fa2565b919091019291505056fe360894a13ba1a3210667c828492db98dca3e2076cc3735a920a3ca505d382bbc810e6555ae7187b4137036e1d48e3e48fff39a084e3f760f3f0760e7e6cb844865d7a28e3265b37a6474929f336521b332c1681b933f6cb9f3376673440d862a416464726573733a206c6f772d6c6576656c2064656c65676174652063616c6c206661696c6564a2646970667358221220d0d1b54fc66f017ee0653e67e01f24928b005fe6333f1e60e7e070a00b09ac2a64736f6c63430008120033",
  "devdoc": {
    "custom:security-contact": "security@hydranet.ai",
    "events": {
      "AdminChanged(address,address)": {
        "details": "Emitted when the admin account has changed."
      },
      "BeaconUpgraded(address)": {
        "details": "Emitted when the beacon is changed."
      },
      "Initialized(uint8)": {
        "details": "Triggered when the contract has been initialized or reinitialized."
      },
      "Paused(address)": {
        "details": "Emitted when the pause is triggered by `account`."
      },
      "RoleAdminChanged(bytes32,bytes32,bytes32)": {
        "details": "Emitted when `newAdminRole` is set as ``role``'s admin role, replacing `previousAdminRole` `DEFAULT_ADMIN_ROLE` is the starting admin for all roles, despite {RoleAdminChanged} not being emitted signaling this. _Available since v3.1._"
      },
      "RoleGranted(bytes32,address,address)": {
        "details": "Emitted when `account` is granted `role`. `sender` is the account that originated the contract call, an admin role bearer except when using {AccessControl-_setupRole}."
      },
      "RoleRevoked(bytes32,address,address)": {
        "details": "Emitted when `account` is revoked `role`. `sender` is the account that originated the contract call:   - if using `revokeRole`, it is the admin role bearer   - if using `renounceRole`, it is the role bearer (i.e. `account`)"
      },
      "Unpaused(address)": {
        "details": "Emitted when the pause is lifted by `account`."
      },
      "Upgraded(address)": {
        "details": "Emitted when the implementation is upgraded."
      }
    },
    "kind": "dev",
    "methods": {
      "constructor": {
        "custom:oz-upgrades-unsafe-allow": "constructor"
      },
      "getRoleAdmin(bytes32)": {
        "details": "Returns the admin role that controls `role`. See {grantRole} and {revokeRole}. To change a role's admin, use {_setRoleAdmin}."
      },
      "grantRole(bytes32,address)": {
        "details": "Grants `role` to `account`. If `account` had not been already granted `role`, emits a {RoleGranted} event. Requirements: - the caller must have ``role``'s admin role. May emit a {RoleGranted} event."
      },
      "hasRole(bytes32,address)": {
        "details": "Returns `true` if `account` has been granted `role`."
      },
      "paused()": {
        "details": "Returns true if the contract is paused, and false otherwise."
      },
      "proxiableUUID()": {
        "details": "Implementation of the ERC1822 {proxiableUUID} function. This returns the storage slot used by the implementation. It is used to validate the implementation's compatibility when performing an upgrade. IMPORTANT: A proxy pointing at a proxiable contract should not be considered proxiable itself, because this risks bricking a proxy that upgrades to it, by delegating to itself until out of gas. Thus it is critical that this function revert if invoked through a proxy. This is guaranteed by the `notDelegated` modifier."
      },
      "renounceRole(bytes32,address)": {
        "details": "Revokes `role` from the calling account. Roles are often managed via {grantRole} and {revokeRole}: this function's purpose is to provide a mechanism for accounts to lose their privileges if they are compromised (such as when a trusted device is misplaced). If the calling account had been revoked `role`, emits a {RoleRevoked} event. Requirements: - the caller must be `account`. May emit a {RoleRevoked} event."
      },
      "revokeRole(bytes32,address)": {
        "details": "Revokes `role` from `account`. If `account` had been granted `role`, emits a {RoleRevoked} event. Requirements: - the caller must have ``role``'s admin role. May emit a {RoleRevoked} event."
      },
      "supportsInterface(bytes4)": {
        "details": "See {IERC165-supportsInterface}."
      },
      "upgradeTo(address)": {
        "custom:oz-upgrades-unsafe-allow-reachable": "delegatecall",
        "details": "Upgrade the implementation of the proxy to `newImplementation`. Calls {_authorizeUpgrade}. Emits an {Upgraded} event."
      },
      "upgradeToAndCall(address,bytes)": {
        "custom:oz-upgrades-unsafe-allow-reachable": "delegatecall",
        "details": "Upgrade the implementation of the proxy to `newImplementation`, and subsequently execute the function call encoded in `data`. Calls {_authorizeUpgrade}. Emits an {Upgraded} event."
      }
    },
    "version": 1
  },
  "userdoc": {
    "kind": "user",
    "methods": {},
    "version": 1
  },
  "storageLayout": {
    "storage": [
      {
        "astId": 907,
        "contract": "contracts/Bondage.sol:Bondage",
        "label": "_initialized",
        "offset": 0,
        "slot": "0",
        "type": "t_uint8"
      },
      {
        "astId": 910,
        "contract": "contracts/Bondage.sol:Bondage",
        "label": "_initializing",
        "offset": 1,
        "slot": "0",
        "type": "t_bool"
      },
      {
        "astId": 3550,
        "contract": "contracts/Bondage.sol:Bondage",
        "label": "__gap",
        "offset": 0,
        "slot": "1",
        "type": "t_array(t_uint256)50_storage"
      },
      {
        "astId": 1226,
        "contract": "contracts/Bondage.sol:Bondage",
        "label": "_paused",
        "offset": 0,
        "slot": "51",
        "type": "t_bool"
      },
      {
        "astId": 1331,
        "contract": "contracts/Bondage.sol:Bondage",
        "label": "__gap",
        "offset": 0,
        "slot": "52",
        "type": "t_array(t_uint256)49_storage"
      },
      {
        "astId": 4657,
        "contract": "contracts/Bondage.sol:Bondage",
        "label": "__gap",
        "offset": 0,
        "slot": "101",
        "type": "t_array(t_uint256)50_storage"
      },
      {
        "astId": 39,
        "contract": "contracts/Bondage.sol:Bondage",
        "label": "_roles",
        "offset": 0,
        "slot": "151",
        "type": "t_mapping(t_bytes32,t_struct(RoleData)34_storage)"
      },
      {
        "astId": 334,
        "contract": "contracts/Bondage.sol:Bondage",
        "label": "__gap",
        "offset": 0,
        "slot": "152",
        "type": "t_array(t_uint256)49_storage"
      },
      {
        "astId": 889,
        "contract": "contracts/Bondage.sol:Bondage",
        "label": "__gap",
        "offset": 0,
        "slot": "201",
        "type": "t_array(t_uint256)50_storage"
      },
      {
        "astId": 1204,
        "contract": "contracts/Bondage.sol:Bondage",
        "label": "__gap",
        "offset": 0,
        "slot": "251",
        "type": "t_array(t_uint256)50_storage"
      },
      {
        "astId": 1346,
        "contract": "contracts/Bondage.sol:Bondage",
        "label": "_status",
        "offset": 0,
        "slot": "301",
        "type": "t_uint256"
      },
      {
        "astId": 1415,
        "contract": "contracts/Bondage.sol:Bondage",
        "label": "__gap",
        "offset": 0,
        "slot": "302",
        "type": "t_array(t_uint256)49_storage"
      },
      {
        "astId": 7955,
        "contract": "contracts/Bondage.sol:Bondage",
        "label": "_token",
        "offset": 0,
        "slot": "351",
        "type": "t_address"
      },
      {
        "astId": 7957,
        "contract": "contracts/Bondage.sol:Bondage",
        "label": "_treasury",
        "offset": 0,
        "slot": "352",
        "type": "t_address"
      },
      {
        "astId": 7960,
        "contract": "contracts/Bondage.sol:Bondage",
        "label": "_bondMarketId",
        "offset": 0,
        "slot": "353",
        "type": "t_struct(Counter)3557_storage"
      },
      {
        "astId": 7963,
        "contract": "contracts/Bondage.sol:Bondage",
        "label": "_bondId",
        "offset": 0,
        "slot": "354",
        "type": "t_struct(Counter)3557_storage"
      },
      {
        "astId": 7966,
        "contract": "contracts/Bondage.sol:Bondage",
        "label": "_activeMarkets",
        "offset": 0,
        "slot": "355",
        "type": "t_struct(BondMarketMap)8084_storage"
      },
      {
        "astId": 7969,
        "contract": "contracts/Bondage.sol:Bondage",
        "label": "_maturingBonds",
        "offset": 0,
        "slot": "358",
        "type": "t_struct(BondMap)8098_storage"
      }
    ],
    "types": {
      "t_address": {
        "encoding": "inplace",
        "label": "address",
        "numberOfBytes": "20"
      },
      "t_array(t_bytes32)dyn_storage": {
        "base": "t_bytes32",
        "encoding": "dynamic_array",
        "label": "bytes32[]",
        "numberOfBytes": "32"
      },
      "t_array(t_uint256)49_storage": {
        "base": "t_uint256",
        "encoding": "inplace",
        "label": "uint256[49]",
        "numberOfBytes": "1568"
      },
      "t_array(t_uint256)50_storage": {
        "base": "t_uint256",
        "encoding": "inplace",
        "label": "uint256[50]",
        "numberOfBytes": "1600"
      },
      "t_array(t_uint256)dyn_storage": {
        "base": "t_uint256",
        "encoding": "dynamic_array",
        "label": "uint256[]",
        "numberOfBytes": "32"
      },
      "t_bool": {
        "encoding": "inplace",
        "label": "bool",
        "numberOfBytes": "1"
      },
      "t_bytes32": {
        "encoding": "inplace",
        "label": "bytes32",
        "numberOfBytes": "32"
      },
      "t_mapping(t_address,t_array(t_uint256)dyn_storage)": {
        "encoding": "mapping",
        "key": "t_address",
        "label": "mapping(address => uint256[])",
        "numberOfBytes": "32",
        "value": "t_array(t_uint256)dyn_storage"
      },
      "t_mapping(t_address,t_bool)": {
        "encoding": "mapping",
        "key": "t_address",
        "label": "mapping(address => bool)",
        "numberOfBytes": "32",
        "value": "t_bool"
      },
      "t_mapping(t_bytes32,t_struct(RoleData)34_storage)": {
        "encoding": "mapping",
        "key": "t_bytes32",
        "label": "mapping(bytes32 => struct AccessControlUpgradeable.RoleData)",
        "numberOfBytes": "32",
        "value": "t_struct(RoleData)34_storage"
      },
      "t_mapping(t_bytes32,t_uint256)": {
        "encoding": "mapping",
        "key": "t_bytes32",
        "label": "mapping(bytes32 => uint256)",
        "numberOfBytes": "32",
        "value": "t_uint256"
      },
      "t_mapping(t_uint256,t_struct(Bond)8075_storage)": {
        "encoding": "mapping",
        "key": "t_uint256",
        "label": "mapping(uint256 => struct Bondage.Bond)",
        "numberOfBytes": "32",
        "value": "t_struct(Bond)8075_storage"
      },
      "t_mapping(t_uint256,t_struct(BondMarket)8058_storage)": {
        "encoding": "mapping",
        "key": "t_uint256",
        "label": "mapping(uint256 => struct Bondage.BondMarket)",
        "numberOfBytes": "32",
        "value": "t_struct(BondMarket)8058_storage"
      },
      "t_struct(AddressSet)7508_storage": {
        "encoding": "inplace",
        "label": "struct EnumerableSetUpgradeable.AddressSet",
        "members": [
          {
            "astId": 7507,
            "contract": "contracts/Bondage.sol:Bondage",
            "label": "_inner",
            "offset": 0,
            "slot": "0",
            "type": "t_struct(Set)7193_storage"
          }
        ],
        "numberOfBytes": "64"
      },
      "t_struct(Bond)8075_storage": {
        "encoding": "inplace",
        "label": "struct Bondage.Bond",
        "members": [
          {
            "astId": 8060,
            "contract": "contracts/Bondage.sol:Bondage",
            "label": "id",
            "offset": 0,
            "slot": "0",
            "type": "t_uint256"
          },
          {
            "astId": 8062,
            "contract": "contracts/Bondage.sol:Bondage",
            "label": "marketId",
            "offset": 0,
            "slot": "1",
            "type": "t_uint256"
          },
          {
            "astId": 8064,
            "contract": "contracts/Bondage.sol:Bondage",
            "label": "owner",
            "offset": 0,
            "slot": "2",
            "type": "t_address"
          },
          {
            "astId": 8066,
            "contract": "contracts/Bondage.sol:Bondage",
            "label": "maturation",
            "offset": 0,
            "slot": "3",
            "type": "t_uint256"
          },
          {
            "astId": 8068,
            "contract": "contracts/Bondage.sol:Bondage",
            "label": "amount",
            "offset": 0,
            "slot": "4",
            "type": "t_uint256"
          },
          {
            "astId": 8070,
            "contract": "contracts/Bondage.sol:Bondage",
            "label": "price",
            "offset": 0,
            "slot": "5",
            "type": "t_uint256"
          },
          {
            "astId": 8072,
            "contract": "contracts/Bondage.sol:Bondage",
            "label": "quoteToken",
            "offset": 0,
            "slot": "6",
            "type": "t_address"
          },
          {
            "astId": 8074,
            "contract": "contracts/Bondage.sol:Bondage",
            "label": "term",
            "offset": 0,
            "slot": "7",
            "type": "t_uint256"
          }
        ],
        "numberOfBytes": "256"
      },
      "t_struct(BondMap)8098_storage": {
        "encoding": "inplace",
        "label": "struct Bondage.BondMap",
        "members": [
          {
            "astId": 8087,
            "contract": "contracts/Bondage.sol:Bondage",
            "label": "addresses",
            "offset": 0,
            "slot": "0",
            "type": "t_struct(AddressSet)7508_storage"
          },
          {
            "astId": 8092,
            "contract": "contracts/Bondage.sol:Bondage",
            "label": "index",
            "offset": 0,
            "slot": "2",
            "type": "t_mapping(t_address,t_array(t_uint256)dyn_storage)"
          },
          {
            "astId": 8097,
            "contract": "contracts/Bondage.sol:Bondage",
            "label": "bonds",
            "offset": 0,
            "slot": "3",
            "type": "t_mapping(t_uint256,t_struct(Bond)8075_storage)"
          }
        ],
        "numberOfBytes": "128"
      },
      "t_struct(BondMarket)8058_storage": {
        "encoding": "inplace",
        "label": "struct Bondage.BondMarket",
        "members": [
          {
            "astId": 8047,
            "contract": "contracts/Bondage.sol:Bondage",
            "label": "id",
            "offset": 0,
            "slot": "0",
            "type": "t_uint256"
          },
          {
            "astId": 8049,
            "contract": "contracts/Bondage.sol:Bondage",
            "label": "quoteToken",
            "offset": 0,
            "slot": "1",
            "type": "t_address"
          },
          {
            "astId": 8051,
            "contract": "contracts/Bondage.sol:Bondage",
            "label": "price",
            "offset": 0,
            "slot": "2",
            "type": "t_uint256"
          },
          {
            "astId": 8053,
            "contract": "contracts/Bondage.sol:Bondage",
            "label": "duration",
            "offset": 0,
            "slot": "3",
            "type": "t_uint256"
          },
          {
            "astId": 8055,
            "contract": "contracts/Bondage.sol:Bondage",
            "label": "volume",
            "offset": 0,
            "slot": "4",
            "type": "t_uint256"
          },
          {
            "astId": 8057,
            "contract": "contracts/Bondage.sol:Bondage",
            "label": "sold",
            "offset": 0,
            "slot": "5",
            "type": "t_uint256"
          }
        ],
        "numberOfBytes": "192"
      },
      "t_struct(BondMarketMap)8084_storage": {
        "encoding": "inplace",
        "label": "struct Bondage.BondMarketMap",
        "members": [
          {
            "astId": 8078,
            "contract": "contracts/Bondage.sol:Bondage",
            "label": "ids",
            "offset": 0,
            "slot": "0",
            "type": "t_struct(UintSet)7665_storage"
          },
          {
            "astId": 8083,
            "contract": "contracts/Bondage.sol:Bondage",
            "label": "markets",
            "offset": 0,
            "slot": "2",
            "type": "t_mapping(t_uint256,t_struct(BondMarket)8058_storage)"
          }
        ],
        "numberOfBytes": "96"
      },
      "t_struct(Counter)3557_storage": {
        "encoding": "inplace",
        "label": "struct CountersUpgradeable.Counter",
        "members": [
          {
            "astId": 3556,
            "contract": "contracts/Bondage.sol:Bondage",
            "label": "_value",
            "offset": 0,
            "slot": "0",
            "type": "t_uint256"
          }
        ],
        "numberOfBytes": "32"
      },
      "t_struct(RoleData)34_storage": {
        "encoding": "inplace",
        "label": "struct AccessControlUpgradeable.RoleData",
        "members": [
          {
            "astId": 31,
            "contract": "contracts/Bondage.sol:Bondage",
            "label": "members",
            "offset": 0,
            "slot": "0",
            "type": "t_mapping(t_address,t_bool)"
          },
          {
            "astId": 33,
            "contract": "contracts/Bondage.sol:Bondage",
            "label": "adminRole",
            "offset": 0,
            "slot": "1",
            "type": "t_bytes32"
          }
        ],
        "numberOfBytes": "64"
      },
      "t_struct(Set)7193_storage": {
        "encoding": "inplace",
        "label": "struct EnumerableSetUpgradeable.Set",
        "members": [
          {
            "astId": 7188,
            "contract": "contracts/Bondage.sol:Bondage",
            "label": "_values",
            "offset": 0,
            "slot": "0",
            "type": "t_array(t_bytes32)dyn_storage"
          },
          {
            "astId": 7192,
            "contract": "contracts/Bondage.sol:Bondage",
            "label": "_indexes",
            "offset": 0,
            "slot": "1",
            "type": "t_mapping(t_bytes32,t_uint256)"
          }
        ],
        "numberOfBytes": "64"
      },
      "t_struct(UintSet)7665_storage": {
        "encoding": "inplace",
        "label": "struct EnumerableSetUpgradeable.UintSet",
        "members": [
          {
            "astId": 7664,
            "contract": "contracts/Bondage.sol:Bondage",
            "label": "_inner",
            "offset": 0,
            "slot": "0",
            "type": "t_struct(Set)7193_storage"
          }
        ],
        "numberOfBytes": "64"
      },
      "t_uint256": {
        "encoding": "inplace",
        "label": "uint256",
        "numberOfBytes": "32"
      },
      "t_uint8": {
        "encoding": "inplace",
        "label": "uint8",
        "numberOfBytes": "1"
      }
    }
  }
}