{
  "address": "0x985362ED54041f40431674D62963a3816De22666",
  "abi": [
    {
      "inputs": [],
      "stateMutability": "nonpayable",
      "type": "constructor"
    },
    {
      "inputs": [
        {
          "internalType": "address",
          "name": "requestedElevator",
          "type": "address"
        }
      ],
      "name": "NotAdmin",
      "type": "error"
    },
    {
      "anonymous": false,
      "inputs": [
        {
          "indexed": false,
          "internalType": "address",
          "name": "previousAdmin",
          "type": "address"
        },
        {
          "indexed": false,
          "internalType": "address",
          "name": "newAdmin",
          "type": "address"
        }
      ],
      "name": "AdminChanged",
      "type": "event"
    },
    {
      "anonymous": false,
      "inputs": [
        {
          "indexed": true,
          "internalType": "address",
          "name": "beacon",
          "type": "address"
        }
      ],
      "name": "BeaconUpgraded",
      "type": "event"
    },
    {
      "anonymous": false,
      "inputs": [],
      "name": "DefaultAdminDelayChangeCanceled",
      "type": "event"
    },
    {
      "anonymous": false,
      "inputs": [
        {
          "indexed": false,
          "internalType": "uint48",
          "name": "newDelay",
          "type": "uint48"
        },
        {
          "indexed": false,
          "internalType": "uint48",
          "name": "effectSchedule",
          "type": "uint48"
        }
      ],
      "name": "DefaultAdminDelayChangeScheduled",
      "type": "event"
    },
    {
      "anonymous": false,
      "inputs": [],
      "name": "DefaultAdminTransferCanceled",
      "type": "event"
    },
    {
      "anonymous": false,
      "inputs": [
        {
          "indexed": true,
          "internalType": "address",
          "name": "newAdmin",
          "type": "address"
        },
        {
          "indexed": false,
          "internalType": "uint48",
          "name": "acceptSchedule",
          "type": "uint48"
        }
      ],
      "name": "DefaultAdminTransferScheduled",
      "type": "event"
    },
    {
      "anonymous": false,
      "inputs": [
        {
          "indexed": false,
          "internalType": "uint8",
          "name": "version",
          "type": "uint8"
        }
      ],
      "name": "Initialized",
      "type": "event"
    },
    {
      "anonymous": false,
      "inputs": [
        {
          "indexed": false,
          "internalType": "address",
          "name": "account",
          "type": "address"
        }
      ],
      "name": "Paused",
      "type": "event"
    },
    {
      "anonymous": false,
      "inputs": [
        {
          "indexed": true,
          "internalType": "bytes32",
          "name": "role",
          "type": "bytes32"
        },
        {
          "indexed": true,
          "internalType": "bytes32",
          "name": "previousAdminRole",
          "type": "bytes32"
        },
        {
          "indexed": true,
          "internalType": "bytes32",
          "name": "newAdminRole",
          "type": "bytes32"
        }
      ],
      "name": "RoleAdminChanged",
      "type": "event"
    },
    {
      "anonymous": false,
      "inputs": [
        {
          "indexed": true,
          "internalType": "bytes32",
          "name": "role",
          "type": "bytes32"
        },
        {
          "indexed": true,
          "internalType": "address",
          "name": "account",
          "type": "address"
        },
        {
          "indexed": true,
          "internalType": "address",
          "name": "sender",
          "type": "address"
        }
      ],
      "name": "RoleGranted",
      "type": "event"
    },
    {
      "anonymous": false,
      "inputs": [
        {
          "indexed": true,
          "internalType": "bytes32",
          "name": "role",
          "type": "bytes32"
        },
        {
          "indexed": true,
          "internalType": "address",
          "name": "account",
          "type": "address"
        },
        {
          "indexed": true,
          "internalType": "address",
          "name": "sender",
          "type": "address"
        }
      ],
      "name": "RoleRevoked",
      "type": "event"
    },
    {
      "anonymous": false,
      "inputs": [
        {
          "indexed": false,
          "internalType": "address",
          "name": "account",
          "type": "address"
        }
      ],
      "name": "Unpaused",
      "type": "event"
    },
    {
      "anonymous": false,
      "inputs": [
        {
          "indexed": true,
          "internalType": "address",
          "name": "implementation",
          "type": "address"
        }
      ],
      "name": "Upgraded",
      "type": "event"
    },
    {
      "inputs": [],
      "name": "ADMIN_ROLE",
      "outputs": [
        {
          "internalType": "bytes32",
          "name": "",
          "type": "bytes32"
        }
      ],
      "stateMutability": "view",
      "type": "function"
    },
    {
      "inputs": [],
      "name": "DEFAULT_ADMIN_ROLE",
      "outputs": [
        {
          "internalType": "bytes32",
          "name": "",
          "type": "bytes32"
        }
      ],
      "stateMutability": "view",
      "type": "function"
    },
    {
      "inputs": [],
      "name": "PAUSER_ROLE",
      "outputs": [
        {
          "internalType": "bytes32",
          "name": "",
          "type": "bytes32"
        }
      ],
      "stateMutability": "view",
      "type": "function"
    },
    {
      "inputs": [],
      "name": "UPGRADER_ROLE",
      "outputs": [
        {
          "internalType": "bytes32",
          "name": "",
          "type": "bytes32"
        }
      ],
      "stateMutability": "view",
      "type": "function"
    },
    {
      "inputs": [],
      "name": "_token",
      "outputs": [
        {
          "internalType": "contract Token",
          "name": "",
          "type": "address"
        }
      ],
      "stateMutability": "view",
      "type": "function"
    },
    {
      "inputs": [],
      "name": "_treasury",
      "outputs": [
        {
          "internalType": "contract Treasury",
          "name": "",
          "type": "address"
        }
      ],
      "stateMutability": "view",
      "type": "function"
    },
    {
      "inputs": [],
      "name": "acceptDefaultAdminTransfer",
      "outputs": [],
      "stateMutability": "nonpayable",
      "type": "function"
    },
    {
      "inputs": [
        {
          "internalType": "address",
          "name": "account",
          "type": "address"
        }
      ],
      "name": "addReservedAccount",
      "outputs": [],
      "stateMutability": "nonpayable",
      "type": "function"
    },
    {
      "inputs": [
        {
          "internalType": "address",
          "name": "newAdmin",
          "type": "address"
        }
      ],
      "name": "beginDefaultAdminTransfer",
      "outputs": [],
      "stateMutability": "nonpayable",
      "type": "function"
    },
    {
      "inputs": [],
      "name": "cancelDefaultAdminTransfer",
      "outputs": [],
      "stateMutability": "nonpayable",
      "type": "function"
    },
    {
      "inputs": [
        {
          "internalType": "uint48",
          "name": "newDelay",
          "type": "uint48"
        }
      ],
      "name": "changeDefaultAdminDelay",
      "outputs": [],
      "stateMutability": "nonpayable",
      "type": "function"
    },
    {
      "inputs": [],
      "name": "circulatingSupply",
      "outputs": [
        {
          "internalType": "uint256",
          "name": "",
          "type": "uint256"
        }
      ],
      "stateMutability": "view",
      "type": "function"
    },
    {
      "inputs": [],
      "name": "defaultAdmin",
      "outputs": [
        {
          "internalType": "address",
          "name": "",
          "type": "address"
        }
      ],
      "stateMutability": "view",
      "type": "function"
    },
    {
      "inputs": [],
      "name": "defaultAdminDelay",
      "outputs": [
        {
          "internalType": "uint48",
          "name": "",
          "type": "uint48"
        }
      ],
      "stateMutability": "view",
      "type": "function"
    },
    {
      "inputs": [],
      "name": "defaultAdminDelayIncreaseWait",
      "outputs": [
        {
          "internalType": "uint48",
          "name": "",
          "type": "uint48"
        }
      ],
      "stateMutability": "view",
      "type": "function"
    },
    {
      "inputs": [],
      "name": "defaultElevationDuration",
      "outputs": [
        {
          "internalType": "uint48",
          "name": "",
          "type": "uint48"
        }
      ],
      "stateMutability": "view",
      "type": "function"
    },
    {
      "inputs": [
        {
          "internalType": "bytes32",
          "name": "role",
          "type": "bytes32"
        },
        {
          "internalType": "address",
          "name": "elevatedAddress",
          "type": "address"
        },
        {
          "internalType": "uint256",
          "name": "duration",
          "type": "uint256"
        }
      ],
      "name": "elevate",
      "outputs": [],
      "stateMutability": "nonpayable",
      "type": "function"
    },
    {
      "inputs": [
        {
          "internalType": "bytes32",
          "name": "role",
          "type": "bytes32"
        },
        {
          "internalType": "address",
          "name": "elevatedAddress",
          "type": "address"
        }
      ],
      "name": "elevate",
      "outputs": [],
      "stateMutability": "nonpayable",
      "type": "function"
    },
    {
      "inputs": [
        {
          "internalType": "bytes32",
          "name": "role",
          "type": "bytes32"
        }
      ],
      "name": "getRoleAdmin",
      "outputs": [
        {
          "internalType": "bytes32",
          "name": "",
          "type": "bytes32"
        }
      ],
      "stateMutability": "view",
      "type": "function"
    },
    {
      "inputs": [
        {
          "internalType": "bytes32",
          "name": "role",
          "type": "bytes32"
        },
        {
          "internalType": "uint256",
          "name": "index",
          "type": "uint256"
        }
      ],
      "name": "getRoleMember",
      "outputs": [
        {
          "internalType": "address",
          "name": "",
          "type": "address"
        }
      ],
      "stateMutability": "view",
      "type": "function"
    },
    {
      "inputs": [
        {
          "internalType": "bytes32",
          "name": "role",
          "type": "bytes32"
        }
      ],
      "name": "getRoleMemberCount",
      "outputs": [
        {
          "internalType": "uint256",
          "name": "",
          "type": "uint256"
        }
      ],
      "stateMutability": "view",
      "type": "function"
    },
    {
      "inputs": [
        {
          "internalType": "bytes32",
          "name": "role",
          "type": "bytes32"
        },
        {
          "internalType": "address",
          "name": "account",
          "type": "address"
        }
      ],
      "name": "grantRole",
      "outputs": [],
      "stateMutability": "nonpayable",
      "type": "function"
    },
    {
      "inputs": [
        {
          "internalType": "bytes32",
          "name": "role",
          "type": "bytes32"
        },
        {
          "internalType": "address",
          "name": "account",
          "type": "address"
        }
      ],
      "name": "hasRole",
      "outputs": [
        {
          "internalType": "bool",
          "name": "",
          "type": "bool"
        }
      ],
      "stateMutability": "view",
      "type": "function"
    },
    {
      "inputs": [],
      "name": "housekeeping",
      "outputs": [],
      "stateMutability": "nonpayable",
      "type": "function"
    },
    {
      "inputs": [
        {
          "internalType": "address",
          "name": "admin",
          "type": "address"
        },
        {
          "internalType": "address",
          "name": "token",
          "type": "address"
        },
        {
          "internalType": "address",
          "name": "treasury",
          "type": "address"
        }
      ],
      "name": "initialize",
      "outputs": [],
      "stateMutability": "nonpayable",
      "type": "function"
    },
    {
      "inputs": [],
      "name": "lockedSupply",
      "outputs": [
        {
          "internalType": "uint256",
          "name": "",
          "type": "uint256"
        }
      ],
      "stateMutability": "view",
      "type": "function"
    },
    {
      "inputs": [],
      "name": "owner",
      "outputs": [
        {
          "internalType": "address",
          "name": "",
          "type": "address"
        }
      ],
      "stateMutability": "view",
      "type": "function"
    },
    {
      "inputs": [],
      "name": "pause",
      "outputs": [],
      "stateMutability": "nonpayable",
      "type": "function"
    },
    {
      "inputs": [],
      "name": "paused",
      "outputs": [
        {
          "internalType": "bool",
          "name": "",
          "type": "bool"
        }
      ],
      "stateMutability": "view",
      "type": "function"
    },
    {
      "inputs": [],
      "name": "pendingDefaultAdmin",
      "outputs": [
        {
          "internalType": "address",
          "name": "newAdmin",
          "type": "address"
        },
        {
          "internalType": "uint48",
          "name": "schedule",
          "type": "uint48"
        }
      ],
      "stateMutability": "view",
      "type": "function"
    },
    {
      "inputs": [],
      "name": "pendingDefaultAdminDelay",
      "outputs": [
        {
          "internalType": "uint48",
          "name": "newDelay",
          "type": "uint48"
        },
        {
          "internalType": "uint48",
          "name": "schedule",
          "type": "uint48"
        }
      ],
      "stateMutability": "view",
      "type": "function"
    },
    {
      "inputs": [],
      "name": "proxiableUUID",
      "outputs": [
        {
          "internalType": "bytes32",
          "name": "",
          "type": "bytes32"
        }
      ],
      "stateMutability": "view",
      "type": "function"
    },
    {
      "inputs": [
        {
          "internalType": "address",
          "name": "account",
          "type": "address"
        }
      ],
      "name": "removeReservedAccount",
      "outputs": [],
      "stateMutability": "nonpayable",
      "type": "function"
    },
    {
      "inputs": [
        {
          "internalType": "bytes32",
          "name": "role",
          "type": "bytes32"
        },
        {
          "internalType": "address",
          "name": "account",
          "type": "address"
        }
      ],
      "name": "renounceRole",
      "outputs": [],
      "stateMutability": "nonpayable",
      "type": "function"
    },
    {
      "inputs": [
        {
          "internalType": "bytes32",
          "name": "role",
          "type": "bytes32"
        },
        {
          "internalType": "address",
          "name": "admin",
          "type": "address"
        },
        {
          "internalType": "uint256",
          "name": "duration",
          "type": "uint256"
        }
      ],
      "name": "requestElevation",
      "outputs": [],
      "stateMutability": "nonpayable",
      "type": "function"
    },
    {
      "inputs": [
        {
          "internalType": "bytes32",
          "name": "role",
          "type": "bytes32"
        },
        {
          "internalType": "address",
          "name": "admin",
          "type": "address"
        }
      ],
      "name": "requestElevation",
      "outputs": [],
      "stateMutability": "nonpayable",
      "type": "function"
    },
    {
      "inputs": [],
      "name": "reservedAccounts",
      "outputs": [
        {
          "internalType": "address[]",
          "name": "",
          "type": "address[]"
        }
      ],
      "stateMutability": "view",
      "type": "function"
    },
    {
      "inputs": [
        {
          "internalType": "bytes32",
          "name": "role",
          "type": "bytes32"
        },
        {
          "internalType": "address",
          "name": "account",
          "type": "address"
        }
      ],
      "name": "revokeRole",
      "outputs": [],
      "stateMutability": "nonpayable",
      "type": "function"
    },
    {
      "inputs": [],
      "name": "rollbackDefaultAdminDelay",
      "outputs": [],
      "stateMutability": "nonpayable",
      "type": "function"
    },
    {
      "inputs": [
        {
          "internalType": "uint48",
          "name": "duration",
          "type": "uint48"
        }
      ],
      "name": "setDefaultElevationDuration",
      "outputs": [],
      "stateMutability": "nonpayable",
      "type": "function"
    },
    {
      "inputs": [
        {
          "internalType": "address",
          "name": "token",
          "type": "address"
        }
      ],
      "name": "setToken",
      "outputs": [],
      "stateMutability": "nonpayable",
      "type": "function"
    },
    {
      "inputs": [
        {
          "internalType": "address",
          "name": "treasury",
          "type": "address"
        }
      ],
      "name": "setTreasury",
      "outputs": [],
      "stateMutability": "nonpayable",
      "type": "function"
    },
    {
      "inputs": [
        {
          "internalType": "bytes4",
          "name": "interfaceId",
          "type": "bytes4"
        }
      ],
      "name": "supportsInterface",
      "outputs": [
        {
          "internalType": "bool",
          "name": "",
          "type": "bool"
        }
      ],
      "stateMutability": "view",
      "type": "function"
    },
    {
      "inputs": [],
      "name": "unpause",
      "outputs": [],
      "stateMutability": "nonpayable",
      "type": "function"
    },
    {
      "inputs": [
        {
          "internalType": "address",
          "name": "newImplementation",
          "type": "address"
        }
      ],
      "name": "upgradeTo",
      "outputs": [],
      "stateMutability": "nonpayable",
      "type": "function"
    },
    {
      "inputs": [
        {
          "internalType": "address",
          "name": "newImplementation",
          "type": "address"
        },
        {
          "internalType": "bytes",
          "name": "data",
          "type": "bytes"
        }
      ],
      "name": "upgradeToAndCall",
      "outputs": [],
      "stateMutability": "payable",
      "type": "function"
    }
  ],
  "numDeployments": 1,
  "solcInputHash": "1343395b6215ef075a66356a521cc84d",
  "bytecode": "0x60a0604052306080523480156200001557600080fd5b506200002062000030565b6200002a62000030565b620000f1565b603254610100900460ff16156200009d5760405162461bcd60e51b815260206004820152602760248201527f496e697469616c697a61626c653a20636f6e747261637420697320696e697469604482015266616c697a696e6760c81b606482015260840160405180910390fd5b60325460ff90811614620000ef576032805460ff191660ff9081179091556040519081527f7f26b83ff96e1f2b6a682f133852f6798a09c465da95921460cefb38474024989060200160405180910390a15b565b6080516130d4620001296000396000818161090a0152818161094a01528181610b1b01528181610b5b0152610bea01526130d46000f3fe60806040526004361061027d5760003560e01c806391d148541161014f578063cc8463c8116100c1578063e319a3d91161007a578063e319a3d91461076e578063e63ab1e91461078f578063ecd0c0c3146107b1578063f0f44260146107d2578063f72c0d8b146107f2578063fce101221461082657600080fd5b8063cc8463c8146106b4578063cefc1429146106c9578063cf6eefb7146106de578063d547741f14610719578063d602b9fd14610739578063dbcc30831461074e57600080fd5b8063a96b9a6011610113578063a96b9a601461060a578063ba67e5611461062a578063c0c53b8b1461064a578063c0f1e53a1461066a578063ca15c8731461067f578063ca5c7b911461069f57600080fd5b806391d148541461056a5780639358928b1461058a578063a04758791461059f578063a1eda53c146105c1578063a217fddf146105f557600080fd5b80634977a0ca116101f3578063649a5ec7116101ac578063649a5ec7146104ab57806375b238fc146104cb5780638456cb59146104ed57806384ef8ffc146105025780638da5cb5b146105355780639010d07c1461054a57600080fd5b80634977a0ca1461040b5780634bea1fc71461042b5780634f1ef2861461044b57806352d1902d1461045e5780635c975abb14610473578063634e93da1461048b57600080fd5b8063248a9ca311610245578063248a9ca3146103375780632f2ff15d1461037657806336568abe146103965780633659cfe6146103b65780633f4ba83a146103d65780634192400d146103eb57600080fd5b806301ffc9a714610282578063022d63fb146102b75780630aa6220b146102e057806312909595146102f7578063144fa6d714610317575b600080fd5b34801561028e57600080fd5b506102a261029d366004612ab9565b61083b565b60405190151581526020015b60405180910390f35b3480156102c357600080fd5b50620697805b60405165ffffffffffff90911681526020016102ae565b3480156102ec57600080fd5b506102f561084c565b005b34801561030357600080fd5b506102f5610312366004612aff565b610862565b34801561032357600080fd5b506102f5610332366004612b34565b6108ac565b34801561034357600080fd5b50610368610352366004612b4f565b600090815261012d602052604090206001015490565b6040519081526020016102ae565b34801561038257600080fd5b506102f5610391366004612b68565b6108e8565b3480156103a257600080fd5b506102f56103b1366004612b68565b6108f6565b3480156103c257600080fd5b506102f56103d1366004612b34565b610900565b3480156103e257600080fd5b506102f56109dc565b3480156103f757600080fd5b506102f5610406366004612b94565b6109fc565b34801561041757600080fd5b506102f5610426366004612aff565b610a34565b34801561043757600080fd5b506102f5610446366004612b34565b610aed565b6102f5610459366004612bd2565b610b11565b34801561046a57600080fd5b50610368610bdd565b34801561047f57600080fd5b5060fb5460ff166102a2565b34801561049757600080fd5b506102f56104a6366004612b34565b610c90565b3480156104b757600080fd5b506102f56104c6366004612b94565b610ca4565b3480156104d757600080fd5b5061036860008051602061307f83398151915281565b3480156104f957600080fd5b506102f5610cb8565b34801561050e57600080fd5b50610192546001600160a01b03165b6040516001600160a01b0390911681526020016102ae565b34801561054157600080fd5b5061051d610cd8565b34801561055657600080fd5b5061051d610565366004612c94565b610cf2565b34801561057657600080fd5b506102a2610585366004612b68565b610d12565b34801561059657600080fd5b50610368610d3e565b3480156105ab57600080fd5b506105b4610dca565b6040516102ae9190612cb6565b3480156105cd57600080fd5b506105d6610dd7565b6040805165ffffffffffff9384168152929091166020830152016102ae565b34801561060157600080fd5b50610368600081565b34801561061657600080fd5b506102f5610625366004612b68565b610e2d565b34801561063657600080fd5b506102f5610645366004612b34565b610ef5565b34801561065657600080fd5b506102f5610665366004612d03565b610f19565b34801561067657600080fd5b506102f5611060565b34801561068b57600080fd5b5061036861069a366004612b4f565b61110b565b3480156106ab57600080fd5b50610368611123565b3480156106c057600080fd5b506102c961125a565b3480156106d557600080fd5b506102f56112bc565b3480156106ea57600080fd5b506106f361133a565b604080516001600160a01b03909316835265ffffffffffff9091166020830152016102ae565b34801561072557600080fd5b506102f5610734366004612b68565b61135c565b34801561074557600080fd5b506102f5611366565b34801561075a57600080fd5b506102f5610769366004612b68565b611379565b34801561077a57600080fd5b506101fa5461051d906001600160a01b031681565b34801561079b57600080fd5b5061036860008051602061303883398151915281565b3480156107bd57600080fd5b506101f95461051d906001600160a01b031681565b3480156107de57600080fd5b506102f56107ed366004612b34565b611393565b3480156107fe57600080fd5b506103687f189ab7a9244df0848122154315af71fe140f3db0fe014031783b0946b8c9d2e381565b34801561083257600080fd5b506102c96113cf565b6000610846826113fb565b92915050565b60006108578161143b565b61085f611444565b50565b61087a60008051602061307f83398151915283610d12565b6108a757604051630bd4212160e11b81526001600160a01b03831660048201526024015b60405180910390fd5b505050565b60008051602061307f8339815191526108c48161143b565b506101f980546001600160a01b0319166001600160a01b0392909216919091179055565b6108f28282611451565b5050565b6108f282826114c7565b6001600160a01b037f00000000000000000000000000000000000000000000000000000000000000001630036109485760405162461bcd60e51b815260040161089e90612d46565b7f00000000000000000000000000000000000000000000000000000000000000006001600160a01b0316610991600080516020613018833981519152546001600160a01b031690565b6001600160a01b0316146109b75760405162461bcd60e51b815260040161089e90612d92565b6109c0816115b3565b6040805160008082526020820190925261085f918391906115dd565b6000805160206130388339815191526109f48161143b565b61085f611748565b610a1360008051602061307f83398151915261179a565b6101c3805465ffffffffffff191665ffffffffffff92909216919091179055565b610a4b60008051602061307f83398151915261179a565b6040518060800160405280848152602001836001600160a01b03168152602001610a723390565b6001600160a01b03168152602001610a8a8342612df4565b90523360009081526101c6602090815260409182902083518155908301516001820180546001600160a01b03199081166001600160a01b039384161790915592840151600283018054909416911617909155606090910151600390910155505050565b60008051602061307f833981519152610b058161143b565b6108a76101fb836117a4565b6001600160a01b037f0000000000000000000000000000000000000000000000000000000000000000163003610b595760405162461bcd60e51b815260040161089e90612d46565b7f00000000000000000000000000000000000000000000000000000000000000006001600160a01b0316610ba2600080516020613018833981519152546001600160a01b031690565b6001600160a01b031614610bc85760405162461bcd60e51b815260040161089e90612d92565b610bd1826115b3565b6108f2828260016115dd565b6000306001600160a01b037f00000000000000000000000000000000000000000000000000000000000000001614610c7d5760405162461bcd60e51b815260206004820152603860248201527f555550535570677261646561626c653a206d757374206e6f742062652063616c60448201527f6c6564207468726f7567682064656c656761746563616c6c0000000000000000606482015260840161089e565b5060008051602061301883398151915290565b6000610c9b8161143b565b6108f2826117b9565b6000610caf8161143b565b6108f28261182c565b600080516020613038833981519152610cd08161143b565b61085f61189c565b6000610ced610192546001600160a01b031690565b905090565b600082815261015f60205260408120610d0b90836118d9565b9392505050565b600091825261012d602090815260408084206001600160a01b0393909316845291905290205460ff1690565b6000610d48611123565b6101f960009054906101000a90046001600160a01b03166001600160a01b03166318160ddd6040518163ffffffff1660e01b8152600401602060405180830381865afa158015610d9c573d6000803e3d6000fd5b505050506040513d601f19601f82011682018060405250810190610dc09190612e07565b610ced9190612e20565b6060610ced6101fb6118e5565b61019254600090600160d01b900465ffffffffffff168015158015610e0457504265ffffffffffff821610155b610e1057600080610e25565b61019254600160a01b900465ffffffffffff16815b915091509091565b610e4460008051602061307f83398151915261179a565b6040518060800160405280838152602001826001600160a01b03168152602001610e6b3390565b6001600160a01b03168152602001610e816113cf565b610e939065ffffffffffff1642612df4565b90523360009081526101c6602090815260409182902083518155908301516001820180546001600160a01b03199081166001600160a01b0393841617909155928401516002830180549094169116179091556060909101516003909101555050565b60008051602061307f833981519152610f0d8161143b565b6108a76101fb836118f2565b603254610100900460ff1615808015610f395750603254600160ff909116105b80610f535750303b158015610f53575060325460ff166001145b610fb65760405162461bcd60e51b815260206004820152602e60248201527f496e697469616c697a61626c653a20636f6e747261637420697320616c72656160448201526d191e481a5b9a5d1a585b1a5e995960921b606482015260840161089e565b6032805460ff191660011790558015610fd9576032805461ff0019166101001790555b610fe284611907565b6101f980546001600160a01b038086166001600160a01b0319928316179092556101fa805492851692909116919091179055801561105a576032805461ff0019169055604051600181527f7f26b83ff96e1f2b6a682f133852f6798a09c465da95921460cefb38474024989060200160405180910390a15b50505050565b60005b61106e6101c46119d8565b81101561085f5760006110836101c4836118d9565b6001600160a01b03811660009081526101c660205260409020600301549091504211156110f8576110b66101c4826118f2565b506001600160a01b03811660009081526101c6602052604081208181556001810180546001600160a01b03199081169091556002820180549091169055600301555b508061110381612e33565b915050611063565b600081815261015f60205260408120610846906119d8565b6101f9546101fa546040516370a0823160e01b81526001600160a01b039182166004820152600092839216906370a0823190602401602060405180830381865afa158015611175573d6000803e3d6000fd5b505050506040513d601f19601f820116820180604052508101906111999190612e07565b905060005b6111a96101fb6119d8565b811015611254576101f9546001600160a01b03166370a082316111ce6101fb846118d9565b6040516001600160e01b031960e084901b1681526001600160a01b039091166004820152602401602060405180830381865afa158015611212573d6000803e3d6000fd5b505050506040513d601f19601f820116820180604052508101906112369190612e07565b6112409083612df4565b91508061124c81612e33565b91505061119e565b50919050565b61019254600090600160d01b900465ffffffffffff16801515801561128657504265ffffffffffff8216105b6112a25761019154600160d01b900465ffffffffffff166112b6565b61019254600160a01b900465ffffffffffff165b91505090565b60006112c661133a565b509050336001600160a01b038216146113325760405162461bcd60e51b815260206004820152602860248201527f416363657373436f6e74726f6c3a2070656e64696e672061646d696e206d75736044820152671d081858d8d95c1d60c21b606482015260840161089e565b61085f6119e2565b610191546001600160a01b03811691600160a01b90910465ffffffffffff1690565b6108f28282611aaf565b60006113718161143b565b61085f611b2c565b6108f282826113866113cf565b65ffffffffffff16610862565b60008051602061307f8339815191526113ab8161143b565b506101fa80546001600160a01b0319166001600160a01b0392909216919091179055565b6101c35460009065ffffffffffff16156113f357506101c35465ffffffffffff1690565b506201518090565b60006001600160e01b0319821663700e1d5560e11b148061142c57506001600160e01b03198216636078f29d60e11b145b80610846575061084682611b37565b61085f81611b5c565b61144f600080611c27565b565b816114bd5760405162461bcd60e51b815260206004820152603660248201527f416363657373436f6e74726f6c3a2063616e2774206469726563746c79206772604482015275616e742064656661756c742061646d696e20726f6c6560501b606482015260840161089e565b6108f28282611ceb565b811580156114e35750610192546001600160a01b038281169116145b156115a9576000806114f361133a565b90925090506001600160a01b038216158015611516575065ffffffffffff811615155b801561152957504265ffffffffffff8216105b6115935760405162461bcd60e51b815260206004820152603560248201527f416363657373436f6e74726f6c3a206f6e6c792063616e2072656e6f756e636560448201527420696e2074776f2064656c6179656420737465707360581b606482015260840161089e565b5050610191805465ffffffffffff60a01b191690555b6108f28282611d11565b7f189ab7a9244df0848122154315af71fe140f3db0fe014031783b0946b8c9d2e36108f28161143b565b7f4910fdfa16fed3260ed0e7147f7cc6da11a60208b5b9406d12a635614ffd91435460ff1615611610576108a783611d8b565b826001600160a01b03166352d1902d6040518163ffffffff1660e01b8152600401602060405180830381865afa92505050801561166a575060408051601f3d908101601f1916820190925261166791810190612e07565b60015b6116cd5760405162461bcd60e51b815260206004820152602e60248201527f45524331393637557067726164653a206e657720696d706c656d656e7461746960448201526d6f6e206973206e6f74205555505360901b606482015260840161089e565b600080516020613018833981519152811461173c5760405162461bcd60e51b815260206004820152602960248201527f45524331393637557067726164653a20756e737570706f727465642070726f786044820152681a58589b195555525160ba1b606482015260840161089e565b506108a7838383611e27565b611750611e4c565b60fb805460ff191690557f5db9ee0a495bf2e6ff9c91a7834c1ba4fdd244a5e8aa4e537bd38aeae4b073aa335b6040516001600160a01b03909116815260200160405180910390a1565b61085f8133611e95565b6000610d0b836001600160a01b038416611eee565b60006117c361125a565b6117cc42611f3d565b6117d69190612e4c565b90506117e28282611fa8565b60405165ffffffffffff821681526001600160a01b038316907f3377dc44241e779dd06afab5b788a35ca5f3b778836e2990bdb26a2a4b2e5ed69060200160405180910390a25050565b600061183782612028565b61184042611f3d565b61184a9190612e4c565b90506118568282611c27565b6040805165ffffffffffff8085168252831660208201527ff1038c18cf84a56e432fdbfaf746924b7ea511dfe03a6506a0ceba4888788d9b910160405180910390a15050565b6118a4612070565b60fb805460ff191660011790557f62e78cea01bee320cd4e420270b5ea74000d11b0c9f74754ebdbfc544b05a25861177d3390565b6000610d0b83836120b6565b60606000610d0b836120e0565b6000610d0b836001600160a01b03841661213c565b603254610100900460ff1661192e5760405162461bcd60e51b815260040161089e90612e6b565b611936612236565b61193e61225d565b611946612236565b61194e612236565b61195b6203f4808261228c565b6119666000826122bd565b61197e600080516020613038833981519152826122bd565b6119a87f189ab7a9244df0848122154315af71fe140f3db0fe014031783b0946b8c9d2e3826122bd565b6119c060008051602061307f833981519152826122bd565b61085f60008051602061307f833981519152806122d5565b6000610846825490565b6000806119ed61133a565b91509150611a028165ffffffffffff16151590565b8015611a1557504265ffffffffffff8216105b611a725760405162461bcd60e51b815260206004820152602860248201527f416363657373436f6e74726f6c3a207472616e736665722064656c6179206e6f6044820152671d081c185cdcd95960c21b606482015260840161089e565b611a8f6000611a8a610192546001600160a01b031690565b6122f8565b611a9a600083612302565b505061019180546001600160d01b0319169055565b81611b225760405162461bcd60e51b815260206004820152603760248201527f416363657373436f6e74726f6c3a2063616e2774206469726563746c7920726560448201527f766f6b652064656661756c742061646d696e20726f6c65000000000000000000606482015260840161089e565b6108f2828261230c565b61144f600080611fa8565b60006001600160e01b031982166318a4c3c360e11b1480610846575061084682612332565b60008051602061307f83398151915281148015611b8e5750611b8c60008051602061307f83398151915233610d12565b155b15611c1e57611b9f6101c433612357565b15611c1e573360009081526101c660209081526040918290208251608081018452815480825260018301546001600160a01b039081169483019490945260028301549093169381019390935260030154606083015260008051602061307f833981519152148015611c135750428160600151115b15611c1c575050565b505b61085f8161179a565b61019254600160d01b900465ffffffffffff168015611cad574265ffffffffffff82161015611c83576101925461019180546001600160d01b0316600160a01b90920465ffffffffffff16600160d01b02919091179055611cad565b6040517f2b1fa2edafe6f7b9e97c1a9e0c3660e645beb2dcaa2d45bdbf9beaf5472e1ec590600090a15b5061019280546001600160a01b0316600160a01b65ffffffffffff948516026001600160d01b031617600160d01b9290931691909102919091179055565b600082815261012d6020526040902060010154611d078161143b565b6108a78383612302565b6001600160a01b0381163314611d815760405162461bcd60e51b815260206004820152602f60248201527f416363657373436f6e74726f6c3a2063616e206f6e6c792072656e6f756e636560448201526e103937b632b9903337b91039b2b63360891b606482015260840161089e565b6108f282826122f8565b6001600160a01b0381163b611df85760405162461bcd60e51b815260206004820152602d60248201527f455243313936373a206e657720696d706c656d656e746174696f6e206973206e60448201526c1bdd08184818dbdb9d1c9858dd609a1b606482015260840161089e565b60008051602061301883398151915280546001600160a01b0319166001600160a01b0392909216919091179055565b611e3083612379565b600082511180611e3d5750805b156108a75761105a83836123b9565b60fb5460ff1661144f5760405162461bcd60e51b815260206004820152601460248201527314185d5cd8589b194e881b9bdd081c185d5cd95960621b604482015260640161089e565b611e9f8282610d12565b6108f257611eac816123de565b611eb78360206123f0565b604051602001611ec8929190612eda565b60408051601f198184030181529082905262461bcd60e51b825261089e91600401612f4f565b6000818152600183016020526040812054611f3557508154600181810184556000848152602080822090930184905584548482528286019093526040902091909155610846565b506000610846565b600065ffffffffffff821115611fa45760405162461bcd60e51b815260206004820152602660248201527f53616665436173743a2076616c756520646f65736e27742066697420696e203460448201526538206269747360d01b606482015260840161089e565b5090565b6000611fb261133a565b610191805465ffffffffffff8616600160a01b026001600160d01b03199091166001600160a01b038816171790559150611ff590508165ffffffffffff16151590565b156108a7576040517f8886ebfc4259abdbc16601dd8fb5678e54878f47b3c34836cfc51154a960510990600090a1505050565b60008061203361125a565b90508065ffffffffffff168365ffffffffffff161161205b576120568382612f82565b610d0b565b610d0b65ffffffffffff84166206978061258c565b60fb5460ff161561144f5760405162461bcd60e51b815260206004820152601060248201526f14185d5cd8589b194e881c185d5cd95960821b604482015260640161089e565b60008260000182815481106120cd576120cd612fa1565b9060005260206000200154905092915050565b60608160000180548060200260200160405190810160405280929190818152602001828054801561213057602002820191906000526020600020905b81548152602001906001019080831161211c575b50505050509050919050565b60008181526001830160205260408120548015612225576000612160600183612e20565b855490915060009061217490600190612e20565b90508181146121d957600086600001828154811061219457612194612fa1565b90600052602060002001549050808760000184815481106121b7576121b7612fa1565b6000918252602080832090910192909255918252600188019052604090208390555b85548690806121ea576121ea612fb7565b600190038181906000526020600020016000905590558560010160008681526020019081526020016000206000905560019350505050610846565b6000915050610846565b5092915050565b603254610100900460ff1661144f5760405162461bcd60e51b815260040161089e90612e6b565b603254610100900460ff166122845760405162461bcd60e51b815260040161089e90612e6b565b61144f6125a2565b603254610100900460ff166122b35760405162461bcd60e51b815260040161089e90612e6b565b6108f282826125d5565b6122c78282610d12565b6108f2576108f28282612302565b600082815261012d602052604090206001015481146108f2576108f2828261267d565b6108f28282612687565b6108f282826126c4565b600082815261012d60205260409020600101546123288161143b565b6108a783836122f8565b60006001600160e01b03198216635a05180f60e01b1480610846575061084682612770565b6001600160a01b03811660009081526001830160205260408120541515610d0b565b61238281611d8b565b6040516001600160a01b038216907fbc7cd75a20ee27fd9adebab32041f755214dbc6bffa90cc0225b39da2e5c2d3b90600090a250565b6060610d0b8383604051806060016040528060278152602001613058602791396127a5565b60606108466001600160a01b03831660145b606060006123ff836002612fcd565b61240a906002612df4565b67ffffffffffffffff81111561242257612422612bbc565b6040519080825280601f01601f19166020018201604052801561244c576020820181803683370190505b509050600360fc1b8160008151811061246757612467612fa1565b60200101906001600160f81b031916908160001a905350600f60fb1b8160018151811061249657612496612fa1565b60200101906001600160f81b031916908160001a90535060006124ba846002612fcd565b6124c5906001612df4565b90505b600181111561253d576f181899199a1a9b1b9c1cb0b131b232b360811b85600f16601081106124f9576124f9612fa1565b1a60f81b82828151811061250f5761250f612fa1565b60200101906001600160f81b031916908160001a90535060049490941c9361253681612fe4565b90506124c8565b508315610d0b5760405162461bcd60e51b815260206004820181905260248201527f537472696e67733a20686578206c656e67746820696e73756666696369656e74604482015260640161089e565b600081831061259b5781610d0b565b5090919050565b603254610100900460ff166125c95760405162461bcd60e51b815260040161089e90612e6b565b60fb805460ff19169055565b603254610100900460ff166125fc5760405162461bcd60e51b815260040161089e90612e6b565b6001600160a01b0381166126525760405162461bcd60e51b815260206004820152601e60248201527f416363657373436f6e74726f6c3a20302064656661756c742061646d696e0000604482015260640161089e565b61019180546001600160d01b0316600160d01b65ffffffffffff8516021790556108f2600082612302565b6108f2828261281d565b811580156126a35750610192546001600160a01b038281169116145b156126ba5761019280546001600160a01b03191690555b6108f2828261288d565b816127665760006126de610192546001600160a01b031690565b6001600160a01b0316146127495760405162461bcd60e51b815260206004820152602c60248201527f416363657373436f6e74726f6c3a2064656661756c742061646d696e20616c7260448201526b1958591e4819dc985b9d195960a21b606482015260840161089e565b61019280546001600160a01b0319166001600160a01b0383161790555b6108f282826128b0565b60006001600160e01b03198216637965db0b60e01b148061084657506301ffc9a760e01b6001600160e01b0319831614610846565b6060600080856001600160a01b0316856040516127c29190612ffb565b600060405180830381855af49150503d80600081146127fd576040519150601f19603f3d011682016040523d82523d6000602084013e612802565b606091505b5091509150612813868383876128d3565b9695505050505050565b816128835760405162461bcd60e51b815260206004820152603060248201527f416363657373436f6e74726f6c3a2063616e27742076696f6c6174652064656660448201526f61756c742061646d696e2072756c657360801b606482015260840161089e565b6108f28282612954565b61289782826129a0565b600082815261015f602052604090206108a790826118f2565b6128ba8282612a08565b600082815261015f602052604090206108a790826117a4565b6060831561294257825160000361293b576001600160a01b0385163b61293b5760405162461bcd60e51b815260206004820152601d60248201527f416464726573733a2063616c6c20746f206e6f6e2d636f6e7472616374000000604482015260640161089e565b508161294c565b61294c8383612a8f565b949350505050565b600082815261012d6020526040808220600101805490849055905190918391839186917fbd79b86ffe0ab8e8776151514217cd7cacd52c909f66475c3af44e129f0b00ff9190a4505050565b6129aa8282610d12565b156108f257600082815261012d602090815260408083206001600160a01b0385168085529252808320805460ff1916905551339285917ff6391f5c32d9c69d2a47ea670b442974b53935d1edc7fd64eb21e047a839171b9190a45050565b612a128282610d12565b6108f257600082815261012d602090815260408083206001600160a01b03851684529091529020805460ff19166001179055612a4b3390565b6001600160a01b0316816001600160a01b0316837f2f8788117e7eff1d82e926ec794901d17c78024a50270940304540a733656f0d60405160405180910390a45050565b815115612a9f5781518083602001fd5b8060405162461bcd60e51b815260040161089e9190612f4f565b600060208284031215612acb57600080fd5b81356001600160e01b031981168114610d0b57600080fd5b80356001600160a01b0381168114612afa57600080fd5b919050565b600080600060608486031215612b1457600080fd5b83359250612b2460208501612ae3565b9150604084013590509250925092565b600060208284031215612b4657600080fd5b610d0b82612ae3565b600060208284031215612b6157600080fd5b5035919050565b60008060408385031215612b7b57600080fd5b82359150612b8b60208401612ae3565b90509250929050565b600060208284031215612ba657600080fd5b813565ffffffffffff81168114610d0b57600080fd5b634e487b7160e01b600052604160045260246000fd5b60008060408385031215612be557600080fd5b612bee83612ae3565b9150602083013567ffffffffffffffff80821115612c0b57600080fd5b818501915085601f830112612c1f57600080fd5b813581811115612c3157612c31612bbc565b604051601f8201601f19908116603f01168101908382118183101715612c5957612c59612bbc565b81604052828152886020848701011115612c7257600080fd5b8260208601602083013760006020848301015280955050505050509250929050565b60008060408385031215612ca757600080fd5b50508035926020909101359150565b6020808252825182820181905260009190848201906040850190845b81811015612cf75783516001600160a01b031683529284019291840191600101612cd2565b50909695505050505050565b600080600060608486031215612d1857600080fd5b612d2184612ae3565b9250612d2f60208501612ae3565b9150612d3d60408501612ae3565b90509250925092565b6020808252602c908201527f46756e6374696f6e206d7573742062652063616c6c6564207468726f7567682060408201526b19195b1959d85d1958d85b1b60a21b606082015260800190565b6020808252602c908201527f46756e6374696f6e206d7573742062652063616c6c6564207468726f7567682060408201526b6163746976652070726f787960a01b606082015260800190565b634e487b7160e01b600052601160045260246000fd5b8082018082111561084657610846612dde565b600060208284031215612e1957600080fd5b5051919050565b8181038181111561084657610846612dde565b600060018201612e4557612e45612dde565b5060010190565b65ffffffffffff81811683821601908082111561222f5761222f612dde565b6020808252602b908201527f496e697469616c697a61626c653a20636f6e7472616374206973206e6f74206960408201526a6e697469616c697a696e6760a81b606082015260800190565b60005b83811015612ed1578181015183820152602001612eb9565b50506000910152565b7f416363657373436f6e74726f6c3a206163636f756e7420000000000000000000815260008351612f12816017850160208801612eb6565b7001034b99036b4b9b9b4b733903937b6329607d1b6017918401918201528351612f43816028840160208801612eb6565b01602801949350505050565b6020815260008251806020840152612f6e816040850160208701612eb6565b601f01601f19169190910160400192915050565b65ffffffffffff82811682821603908082111561222f5761222f612dde565b634e487b7160e01b600052603260045260246000fd5b634e487b7160e01b600052603160045260246000fd5b808202811582820484141761084657610846612dde565b600081612ff357612ff3612dde565b506000190190565b6000825161300d818460208701612eb6565b919091019291505056fe360894a13ba1a3210667c828492db98dca3e2076cc3735a920a3ca505d382bbc65d7a28e3265b37a6474929f336521b332c1681b933f6cb9f3376673440d862a416464726573733a206c6f772d6c6576656c2064656c65676174652063616c6c206661696c6564a49807205ce4d355092ef5a8a18f56e8913cf4a201fbe287825b095693c21775a2646970667358221220b3edee5efb26f83a5bf949df36d73372bcef5d0da86fb165ff2f4666ab55f1f764736f6c63430008120033",
  "devdoc": {
    "events": {
      "AdminChanged(address,address)": {
        "details": "Emitted when the admin account has changed."
      },
      "BeaconUpgraded(address)": {
        "details": "Emitted when the beacon is changed."
      },
      "DefaultAdminDelayChangeCanceled()": {
        "details": "Emitted when a {pendingDefaultAdminDelay} is reset if its schedule didn't pass."
      },
      "DefaultAdminDelayChangeScheduled(uint48,uint48)": {
        "details": "Emitted when a {defaultAdminDelay} change is started, setting `newDelay` as the next delay to be applied between default admin transfer after `effectSchedule` has passed."
      },
      "DefaultAdminTransferCanceled()": {
        "details": "Emitted when a {pendingDefaultAdmin} is reset if it was never accepted, regardless of its schedule."
      },
      "DefaultAdminTransferScheduled(address,uint48)": {
        "details": "Emitted when a {defaultAdmin} transfer is started, setting `newAdmin` as the next address to become the {defaultAdmin} by calling {acceptDefaultAdminTransfer} only after `acceptSchedule` passes."
      },
      "Initialized(uint8)": {
        "details": "Triggered when the contract has been initialized or reinitialized."
      },
      "Paused(address)": {
        "details": "Emitted when the pause is triggered by `account`."
      },
      "RoleAdminChanged(bytes32,bytes32,bytes32)": {
        "details": "Emitted when `newAdminRole` is set as ``role``'s admin role, replacing `previousAdminRole` `DEFAULT_ADMIN_ROLE` is the starting admin for all roles, despite {RoleAdminChanged} not being emitted signaling this. _Available since v3.1._"
      },
      "RoleGranted(bytes32,address,address)": {
        "details": "Emitted when `account` is granted `role`. `sender` is the account that originated the contract call, an admin role bearer except when using {AccessControl-_setupRole}."
      },
      "RoleRevoked(bytes32,address,address)": {
        "details": "Emitted when `account` is revoked `role`. `sender` is the account that originated the contract call:   - if using `revokeRole`, it is the admin role bearer   - if using `renounceRole`, it is the role bearer (i.e. `account`)"
      },
      "Unpaused(address)": {
        "details": "Emitted when the pause is lifted by `account`."
      },
      "Upgraded(address)": {
        "details": "Emitted when the implementation is upgraded."
      }
    },
    "kind": "dev",
    "methods": {
      "acceptDefaultAdminTransfer()": {
        "details": "Completes a {defaultAdmin} transfer previously started with {beginDefaultAdminTransfer}. After calling the function: - `DEFAULT_ADMIN_ROLE` should be granted to the caller. - `DEFAULT_ADMIN_ROLE` should be revoked from the previous holder. - {pendingDefaultAdmin} should be reset to zero values. Requirements: - Only can be called by the {pendingDefaultAdmin}'s `newAdmin`. - The {pendingDefaultAdmin}'s `acceptSchedule` should've passed."
      },
      "beginDefaultAdminTransfer(address)": {
        "details": "Starts a {defaultAdmin} transfer by setting a {pendingDefaultAdmin} scheduled for acceptance after the current timestamp plus a {defaultAdminDelay}. Requirements: - Only can be called by the current {defaultAdmin}. Emits a DefaultAdminRoleChangeStarted event."
      },
      "cancelDefaultAdminTransfer()": {
        "details": "Cancels a {defaultAdmin} transfer previously started with {beginDefaultAdminTransfer}. A {pendingDefaultAdmin} not yet accepted can also be cancelled with this function. Requirements: - Only can be called by the current {defaultAdmin}. May emit a DefaultAdminTransferCanceled event."
      },
      "changeDefaultAdminDelay(uint48)": {
        "details": "Initiates a {defaultAdminDelay} update by setting a {pendingDefaultAdminDelay} scheduled for getting into effect after the current timestamp plus a {defaultAdminDelay}. This function guarantees that any call to {beginDefaultAdminTransfer} done between the timestamp this method is called and the {pendingDefaultAdminDelay} effect schedule will use the current {defaultAdminDelay} set before calling. The {pendingDefaultAdminDelay}'s effect schedule is defined in a way that waiting until the schedule and then calling {beginDefaultAdminTransfer} with the new delay will take at least the same as another {defaultAdmin} complete transfer (including acceptance). The schedule is designed for two scenarios: - When the delay is changed for a larger one the schedule is `block.timestamp + newDelay` capped by {defaultAdminDelayIncreaseWait}. - When the delay is changed for a shorter one, the schedule is `block.timestamp + (current delay - new delay)`. A {pendingDefaultAdminDelay} that never got into effect will be canceled in favor of a new scheduled change. Requirements: - Only can be called by the current {defaultAdmin}. Emits a DefaultAdminDelayChangeScheduled event and may emit a DefaultAdminDelayChangeCanceled event."
      },
      "constructor": {
        "custom:oz-upgrades-unsafe-allow": "constructor"
      },
      "defaultAdmin()": {
        "details": "Returns the address of the current `DEFAULT_ADMIN_ROLE` holder."
      },
      "defaultAdminDelay()": {
        "details": "Returns the delay required to schedule the acceptance of a {defaultAdmin} transfer started. This delay will be added to the current timestamp when calling {beginDefaultAdminTransfer} to set the acceptance schedule. NOTE: If a delay change has been scheduled, it will take effect as soon as the schedule passes, making this function returns the new delay. See {changeDefaultAdminDelay}."
      },
      "defaultAdminDelayIncreaseWait()": {
        "details": "Maximum time in seconds for an increase to {defaultAdminDelay} (that is scheduled using {changeDefaultAdminDelay}) to take effect. Default to 5 days. When the {defaultAdminDelay} is scheduled to be increased, it goes into effect after the new delay has passed with the purpose of giving enough time for reverting any accidental change (i.e. using milliseconds instead of seconds) that may lock the contract. However, to avoid excessive schedules, the wait is capped by this function and it can be overrode for a custom {defaultAdminDelay} increase scheduling. IMPORTANT: Make sure to add a reasonable amount of time while overriding this value, otherwise, there's a risk of setting a high new delay that goes into effect almost immediately without the possibility of human intervention in the case of an input error (eg. set milliseconds instead of seconds)."
      },
      "getRoleAdmin(bytes32)": {
        "details": "Returns the admin role that controls `role`. See {grantRole} and {revokeRole}. To change a role's admin, use {_setRoleAdmin}."
      },
      "getRoleMember(bytes32,uint256)": {
        "details": "Returns one of the accounts that have `role`. `index` must be a value between 0 and {getRoleMemberCount}, non-inclusive. Role bearers are not sorted in any particular way, and their ordering may change at any point. WARNING: When using {getRoleMember} and {getRoleMemberCount}, make sure you perform all queries on the same block. See the following https://forum.openzeppelin.com/t/iterating-over-elements-on-enumerableset-in-openzeppelin-contracts/2296[forum post] for more information."
      },
      "getRoleMemberCount(bytes32)": {
        "details": "Returns the number of accounts that have `role`. Can be used together with {getRoleMember} to enumerate all bearers of a role."
      },
      "hasRole(bytes32,address)": {
        "details": "Returns `true` if `account` has been granted `role`."
      },
      "owner()": {
        "details": "See {IERC5313-owner}."
      },
      "paused()": {
        "details": "Returns true if the contract is paused, and false otherwise."
      },
      "pendingDefaultAdmin()": {
        "details": "Returns a tuple of a `newAdmin` and an accept schedule. After the `schedule` passes, the `newAdmin` will be able to accept the {defaultAdmin} role by calling {acceptDefaultAdminTransfer}, completing the role transfer. A zero value only in `acceptSchedule` indicates no pending admin transfer. NOTE: A zero address `newAdmin` means that {defaultAdmin} is being renounced."
      },
      "pendingDefaultAdminDelay()": {
        "details": "Returns a tuple of `newDelay` and an effect schedule. After the `schedule` passes, the `newDelay` will get into effect immediately for every new {defaultAdmin} transfer started with {beginDefaultAdminTransfer}. A zero value only in `effectSchedule` indicates no pending delay change. NOTE: A zero value only for `newDelay` means that the next {defaultAdminDelay} will be zero after the effect schedule."
      },
      "proxiableUUID()": {
        "details": "Implementation of the ERC1822 {proxiableUUID} function. This returns the storage slot used by the implementation. It is used to validate the implementation's compatibility when performing an upgrade. IMPORTANT: A proxy pointing at a proxiable contract should not be considered proxiable itself, because this risks bricking a proxy that upgrades to it, by delegating to itself until out of gas. Thus it is critical that this function revert if invoked through a proxy. This is guaranteed by the `notDelegated` modifier."
      },
      "rollbackDefaultAdminDelay()": {
        "details": "Cancels a scheduled {defaultAdminDelay} change. Requirements: - Only can be called by the current {defaultAdmin}. May emit a DefaultAdminDelayChangeCanceled event."
      },
      "supportsInterface(bytes4)": {
        "details": "See {IERC165-supportsInterface}."
      },
      "upgradeTo(address)": {
        "custom:oz-upgrades-unsafe-allow-reachable": "delegatecall",
        "details": "Upgrade the implementation of the proxy to `newImplementation`. Calls {_authorizeUpgrade}. Emits an {Upgraded} event."
      },
      "upgradeToAndCall(address,bytes)": {
        "custom:oz-upgrades-unsafe-allow-reachable": "delegatecall",
        "details": "Upgrade the implementation of the proxy to `newImplementation`, and subsequently execute the function call encoded in `data`. Calls {_authorizeUpgrade}. Emits an {Upgraded} event."
      }
    },
    "version": 1
  },
  "userdoc": {
    "kind": "user",
    "methods": {
      "defaultElevationDuration()": {
        "notice": "VIEWS ///"
      },
      "pause()": {
        "notice": "OZ INTERFACE ///"
      },
      "requestElevation(bytes32,address)": {
        "notice": "IMPLEMENTATION ///"
      },
      "setDefaultElevationDuration(uint48)": {
        "notice": "ADMIN ACTIONS ///"
      }
    },
    "version": 1
  },
  "storageLayout": {
    "storage": [
      {
        "astId": 13059,
        "contract": "contracts/Info.sol:Info",
        "label": "__gap",
        "offset": 0,
        "slot": "0",
        "type": "t_array(t_uint256)50_storage"
      },
      {
        "astId": 1885,
        "contract": "contracts/Info.sol:Info",
        "label": "_initialized",
        "offset": 0,
        "slot": "50",
        "type": "t_uint8"
      },
      {
        "astId": 1888,
        "contract": "contracts/Info.sol:Info",
        "label": "_initializing",
        "offset": 1,
        "slot": "50",
        "type": "t_bool"
      },
      {
        "astId": 1867,
        "contract": "contracts/Info.sol:Info",
        "label": "__gap",
        "offset": 0,
        "slot": "51",
        "type": "t_array(t_uint256)50_storage"
      },
      {
        "astId": 4528,
        "contract": "contracts/Info.sol:Info",
        "label": "__gap",
        "offset": 0,
        "slot": "101",
        "type": "t_array(t_uint256)50_storage"
      },
      {
        "astId": 5635,
        "contract": "contracts/Info.sol:Info",
        "label": "__gap",
        "offset": 0,
        "slot": "151",
        "type": "t_array(t_uint256)50_storage"
      },
      {
        "astId": 2182,
        "contract": "contracts/Info.sol:Info",
        "label": "__gap",
        "offset": 0,
        "slot": "201",
        "type": "t_array(t_uint256)50_storage"
      },
      {
        "astId": 2204,
        "contract": "contracts/Info.sol:Info",
        "label": "_paused",
        "offset": 0,
        "slot": "251",
        "type": "t_bool"
      },
      {
        "astId": 2309,
        "contract": "contracts/Info.sol:Info",
        "label": "__gap",
        "offset": 0,
        "slot": "252",
        "type": "t_array(t_uint256)49_storage"
      },
      {
        "astId": 897,
        "contract": "contracts/Info.sol:Info",
        "label": "_roles",
        "offset": 0,
        "slot": "301",
        "type": "t_mapping(t_bytes32,t_struct(RoleData)892_storage)"
      },
      {
        "astId": 1192,
        "contract": "contracts/Info.sol:Info",
        "label": "__gap",
        "offset": 0,
        "slot": "302",
        "type": "t_array(t_uint256)49_storage"
      },
      {
        "astId": 746,
        "contract": "contracts/Info.sol:Info",
        "label": "_roleMembers",
        "offset": 0,
        "slot": "351",
        "type": "t_mapping(t_bytes32,t_struct(AddressSet)9744_storage)"
      },
      {
        "astId": 856,
        "contract": "contracts/Info.sol:Info",
        "label": "__gap",
        "offset": 0,
        "slot": "352",
        "type": "t_array(t_uint256)49_storage"
      },
      {
        "astId": 17,
        "contract": "contracts/Info.sol:Info",
        "label": "_pendingDefaultAdmin",
        "offset": 0,
        "slot": "401",
        "type": "t_address"
      },
      {
        "astId": 19,
        "contract": "contracts/Info.sol:Info",
        "label": "_pendingDefaultAdminSchedule",
        "offset": 20,
        "slot": "401",
        "type": "t_uint48"
      },
      {
        "astId": 21,
        "contract": "contracts/Info.sol:Info",
        "label": "_currentDelay",
        "offset": 26,
        "slot": "401",
        "type": "t_uint48"
      },
      {
        "astId": 23,
        "contract": "contracts/Info.sol:Info",
        "label": "_currentDefaultAdmin",
        "offset": 0,
        "slot": "402",
        "type": "t_address"
      },
      {
        "astId": 25,
        "contract": "contracts/Info.sol:Info",
        "label": "_pendingDelay",
        "offset": 20,
        "slot": "402",
        "type": "t_uint48"
      },
      {
        "astId": 27,
        "contract": "contracts/Info.sol:Info",
        "label": "_pendingDelaySchedule",
        "offset": 26,
        "slot": "402",
        "type": "t_uint48"
      },
      {
        "astId": 711,
        "contract": "contracts/Info.sol:Info",
        "label": "__gap",
        "offset": 0,
        "slot": "403",
        "type": "t_array(t_uint256)48_storage"
      },
      {
        "astId": 12683,
        "contract": "contracts/Info.sol:Info",
        "label": "_elevationDuration",
        "offset": 0,
        "slot": "451",
        "type": "t_uint48"
      },
      {
        "astId": 12686,
        "contract": "contracts/Info.sol:Info",
        "label": "_elevationKeys",
        "offset": 0,
        "slot": "452",
        "type": "t_struct(AddressSet)9744_storage"
      },
      {
        "astId": 12691,
        "contract": "contracts/Info.sol:Info",
        "label": "_elevations",
        "offset": 0,
        "slot": "454",
        "type": "t_mapping(t_address,t_struct(Elevation)12704_storage)"
      },
      {
        "astId": 13379,
        "contract": "contracts/Info.sol:Info",
        "label": "__gap",
        "offset": 0,
        "slot": "455",
        "type": "t_array(t_uint256)50_storage"
      },
      {
        "astId": 11551,
        "contract": "contracts/Info.sol:Info",
        "label": "_token",
        "offset": 0,
        "slot": "505",
        "type": "t_contract(Token)12001"
      },
      {
        "astId": 11554,
        "contract": "contracts/Info.sol:Info",
        "label": "_treasury",
        "offset": 0,
        "slot": "506",
        "type": "t_contract(Treasury)12634"
      },
      {
        "astId": 11557,
        "contract": "contracts/Info.sol:Info",
        "label": "_reservedAccounts",
        "offset": 0,
        "slot": "507",
        "type": "t_struct(AddressSet)9744_storage"
      }
    ],
    "types": {
      "t_address": {
        "encoding": "inplace",
        "label": "address",
        "numberOfBytes": "20"
      },
      "t_array(t_bytes32)dyn_storage": {
        "base": "t_bytes32",
        "encoding": "dynamic_array",
        "label": "bytes32[]",
        "numberOfBytes": "32"
      },
      "t_array(t_uint256)48_storage": {
        "base": "t_uint256",
        "encoding": "inplace",
        "label": "uint256[48]",
        "numberOfBytes": "1536"
      },
      "t_array(t_uint256)49_storage": {
        "base": "t_uint256",
        "encoding": "inplace",
        "label": "uint256[49]",
        "numberOfBytes": "1568"
      },
      "t_array(t_uint256)50_storage": {
        "base": "t_uint256",
        "encoding": "inplace",
        "label": "uint256[50]",
        "numberOfBytes": "1600"
      },
      "t_bool": {
        "encoding": "inplace",
        "label": "bool",
        "numberOfBytes": "1"
      },
      "t_bytes32": {
        "encoding": "inplace",
        "label": "bytes32",
        "numberOfBytes": "32"
      },
      "t_contract(Token)12001": {
        "encoding": "inplace",
        "label": "contract Token",
        "numberOfBytes": "20"
      },
      "t_contract(Treasury)12634": {
        "encoding": "inplace",
        "label": "contract Treasury",
        "numberOfBytes": "20"
      },
      "t_mapping(t_address,t_bool)": {
        "encoding": "mapping",
        "key": "t_address",
        "label": "mapping(address => bool)",
        "numberOfBytes": "32",
        "value": "t_bool"
      },
      "t_mapping(t_address,t_struct(Elevation)12704_storage)": {
        "encoding": "mapping",
        "key": "t_address",
        "label": "mapping(address => struct AccessControlElevation.Elevation)",
        "numberOfBytes": "32",
        "value": "t_struct(Elevation)12704_storage"
      },
      "t_mapping(t_bytes32,t_struct(AddressSet)9744_storage)": {
        "encoding": "mapping",
        "key": "t_bytes32",
        "label": "mapping(bytes32 => struct EnumerableSetUpgradeable.AddressSet)",
        "numberOfBytes": "32",
        "value": "t_struct(AddressSet)9744_storage"
      },
      "t_mapping(t_bytes32,t_struct(RoleData)892_storage)": {
        "encoding": "mapping",
        "key": "t_bytes32",
        "label": "mapping(bytes32 => struct AccessControlUpgradeable.RoleData)",
        "numberOfBytes": "32",
        "value": "t_struct(RoleData)892_storage"
      },
      "t_mapping(t_bytes32,t_uint256)": {
        "encoding": "mapping",
        "key": "t_bytes32",
        "label": "mapping(bytes32 => uint256)",
        "numberOfBytes": "32",
        "value": "t_uint256"
      },
      "t_struct(AddressSet)9744_storage": {
        "encoding": "inplace",
        "label": "struct EnumerableSetUpgradeable.AddressSet",
        "members": [
          {
            "astId": 9743,
            "contract": "contracts/Info.sol:Info",
            "label": "_inner",
            "offset": 0,
            "slot": "0",
            "type": "t_struct(Set)9429_storage"
          }
        ],
        "numberOfBytes": "64"
      },
      "t_struct(Elevation)12704_storage": {
        "encoding": "inplace",
        "label": "struct AccessControlElevation.Elevation",
        "members": [
          {
            "astId": 12697,
            "contract": "contracts/Info.sol:Info",
            "label": "role",
            "offset": 0,
            "slot": "0",
            "type": "t_bytes32"
          },
          {
            "astId": 12699,
            "contract": "contracts/Info.sol:Info",
            "label": "elevatedAddress",
            "offset": 0,
            "slot": "1",
            "type": "t_address"
          },
          {
            "astId": 12701,
            "contract": "contracts/Info.sol:Info",
            "label": "elevatedBy",
            "offset": 0,
            "slot": "2",
            "type": "t_address"
          },
          {
            "astId": 12703,
            "contract": "contracts/Info.sol:Info",
            "label": "expires",
            "offset": 0,
            "slot": "3",
            "type": "t_uint256"
          }
        ],
        "numberOfBytes": "128"
      },
      "t_struct(RoleData)892_storage": {
        "encoding": "inplace",
        "label": "struct AccessControlUpgradeable.RoleData",
        "members": [
          {
            "astId": 889,
            "contract": "contracts/Info.sol:Info",
            "label": "members",
            "offset": 0,
            "slot": "0",
            "type": "t_mapping(t_address,t_bool)"
          },
          {
            "astId": 891,
            "contract": "contracts/Info.sol:Info",
            "label": "adminRole",
            "offset": 0,
            "slot": "1",
            "type": "t_bytes32"
          }
        ],
        "numberOfBytes": "64"
      },
      "t_struct(Set)9429_storage": {
        "encoding": "inplace",
        "label": "struct EnumerableSetUpgradeable.Set",
        "members": [
          {
            "astId": 9424,
            "contract": "contracts/Info.sol:Info",
            "label": "_values",
            "offset": 0,
            "slot": "0",
            "type": "t_array(t_bytes32)dyn_storage"
          },
          {
            "astId": 9428,
            "contract": "contracts/Info.sol:Info",
            "label": "_indexes",
            "offset": 0,
            "slot": "1",
            "type": "t_mapping(t_bytes32,t_uint256)"
          }
        ],
        "numberOfBytes": "64"
      },
      "t_uint256": {
        "encoding": "inplace",
        "label": "uint256",
        "numberOfBytes": "32"
      },
      "t_uint48": {
        "encoding": "inplace",
        "label": "uint48",
        "numberOfBytes": "6"
      },
      "t_uint8": {
        "encoding": "inplace",
        "label": "uint8",
        "numberOfBytes": "1"
      }
    }
  }
}