{
  "address": "0xeF3c0C81D73eF18e6720B60fB29477687F00a439",
  "abi": [
    {
      "inputs": [],
      "stateMutability": "nonpayable",
      "type": "constructor"
    },
    {
      "inputs": [
        {
          "internalType": "bytes32",
          "name": "operation",
          "type": "bytes32"
        },
        {
          "internalType": "address",
          "name": "token",
          "type": "address"
        },
        {
          "internalType": "address",
          "name": "spender",
          "type": "address"
        },
        {
          "internalType": "uint256",
          "name": "allowance",
          "type": "uint256"
        },
        {
          "internalType": "uint256",
          "name": "amount",
          "type": "uint256"
        }
      ],
      "name": "InsufficientAllowance",
      "type": "error"
    },
    {
      "inputs": [
        {
          "internalType": "address",
          "name": "token",
          "type": "address"
        },
        {
          "internalType": "uint256",
          "name": "balance",
          "type": "uint256"
        },
        {
          "internalType": "uint256",
          "name": "amount",
          "type": "uint256"
        }
      ],
      "name": "InsufficientBalance",
      "type": "error"
    },
    {
      "inputs": [
        {
          "internalType": "address",
          "name": "requestedElevator",
          "type": "address"
        }
      ],
      "name": "NotAdmin",
      "type": "error"
    },
    {
      "anonymous": false,
      "inputs": [
        {
          "indexed": false,
          "internalType": "address",
          "name": "previousAdmin",
          "type": "address"
        },
        {
          "indexed": false,
          "internalType": "address",
          "name": "newAdmin",
          "type": "address"
        }
      ],
      "name": "AdminChanged",
      "type": "event"
    },
    {
      "anonymous": false,
      "inputs": [
        {
          "indexed": false,
          "internalType": "address",
          "name": "approver",
          "type": "address"
        },
        {
          "indexed": false,
          "internalType": "bytes32",
          "name": "operation",
          "type": "bytes32"
        },
        {
          "indexed": false,
          "internalType": "address",
          "name": "token",
          "type": "address"
        },
        {
          "indexed": false,
          "internalType": "address",
          "name": "spender",
          "type": "address"
        },
        {
          "indexed": false,
          "internalType": "uint256",
          "name": "amount",
          "type": "uint256"
        }
      ],
      "name": "AllowanceApproved",
      "type": "event"
    },
    {
      "anonymous": false,
      "inputs": [
        {
          "indexed": false,
          "internalType": "address",
          "name": "revoker",
          "type": "address"
        },
        {
          "indexed": false,
          "internalType": "bytes32",
          "name": "operation",
          "type": "bytes32"
        },
        {
          "indexed": false,
          "internalType": "address",
          "name": "token",
          "type": "address"
        },
        {
          "indexed": false,
          "internalType": "address",
          "name": "spender",
          "type": "address"
        }
      ],
      "name": "AllowanceRevoked",
      "type": "event"
    },
    {
      "anonymous": false,
      "inputs": [
        {
          "indexed": true,
          "internalType": "address",
          "name": "beacon",
          "type": "address"
        }
      ],
      "name": "BeaconUpgraded",
      "type": "event"
    },
    {
      "anonymous": false,
      "inputs": [],
      "name": "DefaultAdminDelayChangeCanceled",
      "type": "event"
    },
    {
      "anonymous": false,
      "inputs": [
        {
          "indexed": false,
          "internalType": "uint48",
          "name": "newDelay",
          "type": "uint48"
        },
        {
          "indexed": false,
          "internalType": "uint48",
          "name": "effectSchedule",
          "type": "uint48"
        }
      ],
      "name": "DefaultAdminDelayChangeScheduled",
      "type": "event"
    },
    {
      "anonymous": false,
      "inputs": [],
      "name": "DefaultAdminTransferCanceled",
      "type": "event"
    },
    {
      "anonymous": false,
      "inputs": [
        {
          "indexed": true,
          "internalType": "address",
          "name": "newAdmin",
          "type": "address"
        },
        {
          "indexed": false,
          "internalType": "uint48",
          "name": "acceptSchedule",
          "type": "uint48"
        }
      ],
      "name": "DefaultAdminTransferScheduled",
      "type": "event"
    },
    {
      "anonymous": false,
      "inputs": [
        {
          "indexed": false,
          "internalType": "uint8",
          "name": "version",
          "type": "uint8"
        }
      ],
      "name": "Initialized",
      "type": "event"
    },
    {
      "anonymous": false,
      "inputs": [
        {
          "indexed": false,
          "internalType": "address",
          "name": "account",
          "type": "address"
        }
      ],
      "name": "Paused",
      "type": "event"
    },
    {
      "anonymous": false,
      "inputs": [
        {
          "indexed": true,
          "internalType": "bytes32",
          "name": "role",
          "type": "bytes32"
        },
        {
          "indexed": true,
          "internalType": "bytes32",
          "name": "previousAdminRole",
          "type": "bytes32"
        },
        {
          "indexed": true,
          "internalType": "bytes32",
          "name": "newAdminRole",
          "type": "bytes32"
        }
      ],
      "name": "RoleAdminChanged",
      "type": "event"
    },
    {
      "anonymous": false,
      "inputs": [
        {
          "indexed": true,
          "internalType": "bytes32",
          "name": "role",
          "type": "bytes32"
        },
        {
          "indexed": true,
          "internalType": "address",
          "name": "account",
          "type": "address"
        },
        {
          "indexed": true,
          "internalType": "address",
          "name": "sender",
          "type": "address"
        }
      ],
      "name": "RoleGranted",
      "type": "event"
    },
    {
      "anonymous": false,
      "inputs": [
        {
          "indexed": true,
          "internalType": "bytes32",
          "name": "role",
          "type": "bytes32"
        },
        {
          "indexed": true,
          "internalType": "address",
          "name": "account",
          "type": "address"
        },
        {
          "indexed": true,
          "internalType": "address",
          "name": "sender",
          "type": "address"
        }
      ],
      "name": "RoleRevoked",
      "type": "event"
    },
    {
      "anonymous": false,
      "inputs": [
        {
          "indexed": false,
          "internalType": "address",
          "name": "account",
          "type": "address"
        }
      ],
      "name": "Unpaused",
      "type": "event"
    },
    {
      "anonymous": false,
      "inputs": [
        {
          "indexed": true,
          "internalType": "address",
          "name": "implementation",
          "type": "address"
        }
      ],
      "name": "Upgraded",
      "type": "event"
    },
    {
      "anonymous": false,
      "inputs": [
        {
          "indexed": false,
          "internalType": "address",
          "name": "recipient",
          "type": "address"
        },
        {
          "indexed": false,
          "internalType": "bytes32",
          "name": "operation",
          "type": "bytes32"
        },
        {
          "indexed": false,
          "internalType": "address",
          "name": "token",
          "type": "address"
        },
        {
          "indexed": false,
          "internalType": "uint256",
          "name": "amount",
          "type": "uint256"
        }
      ],
      "name": "Withdrawal",
      "type": "event"
    },
    {
      "inputs": [],
      "name": "ADMIN_ROLE",
      "outputs": [
        {
          "internalType": "bytes32",
          "name": "",
          "type": "bytes32"
        }
      ],
      "stateMutability": "view",
      "type": "function"
    },
    {
      "inputs": [],
      "name": "DEFAULT_ADMIN_ROLE",
      "outputs": [
        {
          "internalType": "bytes32",
          "name": "",
          "type": "bytes32"
        }
      ],
      "stateMutability": "view",
      "type": "function"
    },
    {
      "inputs": [],
      "name": "MANAGER_ROLE",
      "outputs": [
        {
          "internalType": "bytes32",
          "name": "",
          "type": "bytes32"
        }
      ],
      "stateMutability": "view",
      "type": "function"
    },
    {
      "inputs": [],
      "name": "OPERATOR_ROLE",
      "outputs": [
        {
          "internalType": "bytes32",
          "name": "",
          "type": "bytes32"
        }
      ],
      "stateMutability": "view",
      "type": "function"
    },
    {
      "inputs": [],
      "name": "OP_ADMIN",
      "outputs": [
        {
          "internalType": "bytes32",
          "name": "",
          "type": "bytes32"
        }
      ],
      "stateMutability": "view",
      "type": "function"
    },
    {
      "inputs": [],
      "name": "OP_BONDS",
      "outputs": [
        {
          "internalType": "bytes32",
          "name": "",
          "type": "bytes32"
        }
      ],
      "stateMutability": "view",
      "type": "function"
    },
    {
      "inputs": [],
      "name": "OP_NULL",
      "outputs": [
        {
          "internalType": "bytes32",
          "name": "",
          "type": "bytes32"
        }
      ],
      "stateMutability": "view",
      "type": "function"
    },
    {
      "inputs": [],
      "name": "PAUSER_ROLE",
      "outputs": [
        {
          "internalType": "bytes32",
          "name": "",
          "type": "bytes32"
        }
      ],
      "stateMutability": "view",
      "type": "function"
    },
    {
      "inputs": [],
      "name": "UPGRADER_ROLE",
      "outputs": [
        {
          "internalType": "bytes32",
          "name": "",
          "type": "bytes32"
        }
      ],
      "stateMutability": "view",
      "type": "function"
    },
    {
      "inputs": [],
      "name": "acceptDefaultAdminTransfer",
      "outputs": [],
      "stateMutability": "nonpayable",
      "type": "function"
    },
    {
      "inputs": [
        {
          "internalType": "uint256",
          "name": "ix",
          "type": "uint256"
        }
      ],
      "name": "allowance",
      "outputs": [
        {
          "internalType": "uint256",
          "name": "",
          "type": "uint256"
        }
      ],
      "stateMutability": "view",
      "type": "function"
    },
    {
      "inputs": [
        {
          "internalType": "bytes32",
          "name": "operation",
          "type": "bytes32"
        },
        {
          "internalType": "address",
          "name": "token",
          "type": "address"
        }
      ],
      "name": "allowance",
      "outputs": [
        {
          "internalType": "uint256",
          "name": "",
          "type": "uint256"
        }
      ],
      "stateMutability": "view",
      "type": "function"
    },
    {
      "inputs": [
        {
          "internalType": "bytes32",
          "name": "operation",
          "type": "bytes32"
        },
        {
          "internalType": "address",
          "name": "token",
          "type": "address"
        },
        {
          "internalType": "address",
          "name": "spender",
          "type": "address"
        }
      ],
      "name": "allowance",
      "outputs": [
        {
          "internalType": "uint256",
          "name": "",
          "type": "uint256"
        }
      ],
      "stateMutability": "view",
      "type": "function"
    },
    {
      "inputs": [],
      "name": "allowances",
      "outputs": [
        {
          "components": [
            {
              "internalType": "bytes32",
              "name": "operation",
              "type": "bytes32"
            },
            {
              "internalType": "address",
              "name": "token",
              "type": "address"
            },
            {
              "internalType": "address",
              "name": "spender",
              "type": "address"
            },
            {
              "internalType": "uint256",
              "name": "amount",
              "type": "uint256"
            }
          ],
          "internalType": "struct Treasury.Allowance[]",
          "name": "",
          "type": "tuple[]"
        }
      ],
      "stateMutability": "view",
      "type": "function"
    },
    {
      "inputs": [
        {
          "internalType": "bytes32",
          "name": "operation",
          "type": "bytes32"
        },
        {
          "internalType": "address",
          "name": "token",
          "type": "address"
        },
        {
          "internalType": "address",
          "name": "spender",
          "type": "address"
        },
        {
          "internalType": "uint256",
          "name": "amount",
          "type": "uint256"
        }
      ],
      "name": "approve",
      "outputs": [
        {
          "internalType": "bool",
          "name": "",
          "type": "bool"
        }
      ],
      "stateMutability": "nonpayable",
      "type": "function"
    },
    {
      "inputs": [
        {
          "internalType": "address",
          "name": "newAdmin",
          "type": "address"
        }
      ],
      "name": "beginDefaultAdminTransfer",
      "outputs": [],
      "stateMutability": "nonpayable",
      "type": "function"
    },
    {
      "inputs": [],
      "name": "cancelDefaultAdminTransfer",
      "outputs": [],
      "stateMutability": "nonpayable",
      "type": "function"
    },
    {
      "inputs": [
        {
          "internalType": "uint48",
          "name": "newDelay",
          "type": "uint48"
        }
      ],
      "name": "changeDefaultAdminDelay",
      "outputs": [],
      "stateMutability": "nonpayable",
      "type": "function"
    },
    {
      "inputs": [],
      "name": "defaultAdmin",
      "outputs": [
        {
          "internalType": "address",
          "name": "",
          "type": "address"
        }
      ],
      "stateMutability": "view",
      "type": "function"
    },
    {
      "inputs": [],
      "name": "defaultAdminDelay",
      "outputs": [
        {
          "internalType": "uint48",
          "name": "",
          "type": "uint48"
        }
      ],
      "stateMutability": "view",
      "type": "function"
    },
    {
      "inputs": [],
      "name": "defaultAdminDelayIncreaseWait",
      "outputs": [
        {
          "internalType": "uint48",
          "name": "",
          "type": "uint48"
        }
      ],
      "stateMutability": "view",
      "type": "function"
    },
    {
      "inputs": [],
      "name": "defaultElevationDuration",
      "outputs": [
        {
          "internalType": "uint48",
          "name": "",
          "type": "uint48"
        }
      ],
      "stateMutability": "view",
      "type": "function"
    },
    {
      "inputs": [
        {
          "internalType": "bytes32",
          "name": "role",
          "type": "bytes32"
        },
        {
          "internalType": "address",
          "name": "elevatedAddress",
          "type": "address"
        },
        {
          "internalType": "uint256",
          "name": "duration",
          "type": "uint256"
        }
      ],
      "name": "elevate",
      "outputs": [],
      "stateMutability": "nonpayable",
      "type": "function"
    },
    {
      "inputs": [
        {
          "internalType": "bytes32",
          "name": "role",
          "type": "bytes32"
        },
        {
          "internalType": "address",
          "name": "elevatedAddress",
          "type": "address"
        }
      ],
      "name": "elevate",
      "outputs": [],
      "stateMutability": "nonpayable",
      "type": "function"
    },
    {
      "inputs": [
        {
          "internalType": "bytes32",
          "name": "role",
          "type": "bytes32"
        }
      ],
      "name": "getRoleAdmin",
      "outputs": [
        {
          "internalType": "bytes32",
          "name": "",
          "type": "bytes32"
        }
      ],
      "stateMutability": "view",
      "type": "function"
    },
    {
      "inputs": [
        {
          "internalType": "bytes32",
          "name": "role",
          "type": "bytes32"
        },
        {
          "internalType": "uint256",
          "name": "index",
          "type": "uint256"
        }
      ],
      "name": "getRoleMember",
      "outputs": [
        {
          "internalType": "address",
          "name": "",
          "type": "address"
        }
      ],
      "stateMutability": "view",
      "type": "function"
    },
    {
      "inputs": [
        {
          "internalType": "bytes32",
          "name": "role",
          "type": "bytes32"
        }
      ],
      "name": "getRoleMemberCount",
      "outputs": [
        {
          "internalType": "uint256",
          "name": "",
          "type": "uint256"
        }
      ],
      "stateMutability": "view",
      "type": "function"
    },
    {
      "inputs": [
        {
          "internalType": "bytes32",
          "name": "role",
          "type": "bytes32"
        },
        {
          "internalType": "address",
          "name": "account",
          "type": "address"
        }
      ],
      "name": "grantRole",
      "outputs": [],
      "stateMutability": "nonpayable",
      "type": "function"
    },
    {
      "inputs": [
        {
          "internalType": "bytes32",
          "name": "role",
          "type": "bytes32"
        },
        {
          "internalType": "address",
          "name": "account",
          "type": "address"
        }
      ],
      "name": "hasRole",
      "outputs": [
        {
          "internalType": "bool",
          "name": "",
          "type": "bool"
        }
      ],
      "stateMutability": "view",
      "type": "function"
    },
    {
      "inputs": [],
      "name": "housekeeping",
      "outputs": [],
      "stateMutability": "nonpayable",
      "type": "function"
    },
    {
      "inputs": [
        {
          "internalType": "address",
          "name": "admin",
          "type": "address"
        }
      ],
      "name": "initialize",
      "outputs": [],
      "stateMutability": "nonpayable",
      "type": "function"
    },
    {
      "inputs": [],
      "name": "owner",
      "outputs": [
        {
          "internalType": "address",
          "name": "",
          "type": "address"
        }
      ],
      "stateMutability": "view",
      "type": "function"
    },
    {
      "inputs": [],
      "name": "pause",
      "outputs": [],
      "stateMutability": "nonpayable",
      "type": "function"
    },
    {
      "inputs": [],
      "name": "paused",
      "outputs": [
        {
          "internalType": "bool",
          "name": "",
          "type": "bool"
        }
      ],
      "stateMutability": "view",
      "type": "function"
    },
    {
      "inputs": [],
      "name": "pendingDefaultAdmin",
      "outputs": [
        {
          "internalType": "address",
          "name": "newAdmin",
          "type": "address"
        },
        {
          "internalType": "uint48",
          "name": "schedule",
          "type": "uint48"
        }
      ],
      "stateMutability": "view",
      "type": "function"
    },
    {
      "inputs": [],
      "name": "pendingDefaultAdminDelay",
      "outputs": [
        {
          "internalType": "uint48",
          "name": "newDelay",
          "type": "uint48"
        },
        {
          "internalType": "uint48",
          "name": "schedule",
          "type": "uint48"
        }
      ],
      "stateMutability": "view",
      "type": "function"
    },
    {
      "inputs": [],
      "name": "proxiableUUID",
      "outputs": [
        {
          "internalType": "bytes32",
          "name": "",
          "type": "bytes32"
        }
      ],
      "stateMutability": "view",
      "type": "function"
    },
    {
      "inputs": [
        {
          "internalType": "bytes32",
          "name": "role",
          "type": "bytes32"
        },
        {
          "internalType": "address",
          "name": "account",
          "type": "address"
        }
      ],
      "name": "renounceRole",
      "outputs": [],
      "stateMutability": "nonpayable",
      "type": "function"
    },
    {
      "inputs": [
        {
          "internalType": "bytes32",
          "name": "role",
          "type": "bytes32"
        },
        {
          "internalType": "address",
          "name": "admin",
          "type": "address"
        },
        {
          "internalType": "uint256",
          "name": "duration",
          "type": "uint256"
        }
      ],
      "name": "requestElevation",
      "outputs": [],
      "stateMutability": "nonpayable",
      "type": "function"
    },
    {
      "inputs": [
        {
          "internalType": "bytes32",
          "name": "role",
          "type": "bytes32"
        },
        {
          "internalType": "address",
          "name": "admin",
          "type": "address"
        }
      ],
      "name": "requestElevation",
      "outputs": [],
      "stateMutability": "nonpayable",
      "type": "function"
    },
    {
      "inputs": [
        {
          "internalType": "bytes32",
          "name": "operation",
          "type": "bytes32"
        },
        {
          "internalType": "address",
          "name": "token",
          "type": "address"
        },
        {
          "internalType": "address",
          "name": "spender",
          "type": "address"
        }
      ],
      "name": "revoke",
      "outputs": [
        {
          "internalType": "bool",
          "name": "",
          "type": "bool"
        }
      ],
      "stateMutability": "nonpayable",
      "type": "function"
    },
    {
      "inputs": [
        {
          "internalType": "bytes32",
          "name": "role",
          "type": "bytes32"
        },
        {
          "internalType": "address",
          "name": "account",
          "type": "address"
        }
      ],
      "name": "revokeRole",
      "outputs": [],
      "stateMutability": "nonpayable",
      "type": "function"
    },
    {
      "inputs": [],
      "name": "rollbackDefaultAdminDelay",
      "outputs": [],
      "stateMutability": "nonpayable",
      "type": "function"
    },
    {
      "inputs": [
        {
          "internalType": "uint48",
          "name": "duration",
          "type": "uint48"
        }
      ],
      "name": "setDefaultElevationDuration",
      "outputs": [],
      "stateMutability": "nonpayable",
      "type": "function"
    },
    {
      "inputs": [
        {
          "internalType": "bytes4",
          "name": "interfaceId",
          "type": "bytes4"
        }
      ],
      "name": "supportsInterface",
      "outputs": [
        {
          "internalType": "bool",
          "name": "",
          "type": "bool"
        }
      ],
      "stateMutability": "view",
      "type": "function"
    },
    {
      "inputs": [],
      "name": "unpause",
      "outputs": [],
      "stateMutability": "nonpayable",
      "type": "function"
    },
    {
      "inputs": [
        {
          "internalType": "address",
          "name": "newImplementation",
          "type": "address"
        }
      ],
      "name": "upgradeTo",
      "outputs": [],
      "stateMutability": "nonpayable",
      "type": "function"
    },
    {
      "inputs": [
        {
          "internalType": "address",
          "name": "newImplementation",
          "type": "address"
        },
        {
          "internalType": "bytes",
          "name": "data",
          "type": "bytes"
        }
      ],
      "name": "upgradeToAndCall",
      "outputs": [],
      "stateMutability": "payable",
      "type": "function"
    },
    {
      "inputs": [
        {
          "internalType": "bytes32",
          "name": "operation",
          "type": "bytes32"
        },
        {
          "internalType": "address",
          "name": "token",
          "type": "address"
        },
        {
          "internalType": "uint256",
          "name": "amount",
          "type": "uint256"
        }
      ],
      "name": "withdraw",
      "outputs": [
        {
          "internalType": "bool",
          "name": "",
          "type": "bool"
        }
      ],
      "stateMutability": "nonpayable",
      "type": "function"
    }
  ],
  "numDeployments": 4,
  "solcInputHash": "0eea02dc4cd619a4e75c74a4315e57d6",
  "bytecode": "0x60a0604052306080523480156200001557600080fd5b50620000206200003a565b6200002a6200003a565b620000346200003a565b620000fb565b603254610100900460ff1615620000a75760405162461bcd60e51b815260206004820152602760248201527f496e697469616c697a61626c653a20636f6e747261637420697320696e697469604482015266616c697a696e6760c81b606482015260840160405180910390fd5b60325460ff90811614620000f9576032805460ff191660ff9081179091556040519081527f7f26b83ff96e1f2b6a682f133852f6798a09c465da95921460cefb38474024989060200160405180910390a15b565b608051613902620001336000396000818161099f015281816109df01528181610e3801528181610e780152610f0701526139026000f3fe6080604052600436106102ae5760003560e01c80638da5cb5b11610175578063cefc1429116100dc578063e88a317811610095578063f5b541a61161006f578063f5b541a614610873578063f72c0d8b14610895578063fcac86f7146108c9578063fce10122146108e957600080fd5b8063e88a3178146107eb578063ec87621c1461080b578063f56ebd191461083f57600080fd5b8063cefc142914610724578063cf6eefb714610739578063d547741f14610774578063d602b9fd14610794578063dbcc3083146107a9578063e63ab1e9146107c957600080fd5b8063a6fb97d11161012e578063a6fb97d11461067a578063a96b9a601461069a578063c0f1e53a146106ba578063c4d66de8146106cf578063ca15c873146106ef578063cc8463c81461070f57600080fd5b80638da5cb5b146105d15780639010d07c146105e657806391d1485414610606578063980c662114610626578063a1eda53c14610646578063a217fddf146105bc57600080fd5b806344ef2bf311610219578063649a5ec7116101d2578063649a5ec7146104fe57806375b238fc1461051e5780638220760a146105405780638456cb591461057457806384ef8ffc1461058957806388984fcc146105bc57600080fd5b806344ef2bf31461045e5780634977a0ca1461047e5780634f1ef2861461049e57806352d1902d146104b15780635c975abb146104c6578063634e93da146104de57600080fd5b80632f2ff15d1161026b5780632f2ff15d146103a757806336568abe146103c75780633659cfe6146103e75780633ed10b92146104075780633f4ba83a146104295780634192400d1461043e57600080fd5b806301ffc9a7146102b3578063022d63fb146102e85780630aa6220b146103115780631290959514610328578063248a9ca3146103485780632e43d7dc14610387575b600080fd5b3480156102bf57600080fd5b506102d36102ce366004613216565b6108fe565b60405190151581526020015b60405180910390f35b3480156102f457600080fd5b50620697805b60405165ffffffffffff90911681526020016102df565b34801561031d57600080fd5b5061032661090f565b005b34801561033457600080fd5b5061032661034336600461325c565b610925565b34801561035457600080fd5b50610379610363366004613291565b600090815261012d602052604090206001015490565b6040519081526020016102df565b34801561039357600080fd5b506103796103a2366004613291565b61096f565b3480156103b357600080fd5b506103266103c23660046132aa565b61097d565b3480156103d357600080fd5b506103266103e23660046132aa565b61098b565b3480156103f357600080fd5b506103266104023660046132d6565b610995565b34801561041357600080fd5b5061041c610a71565b6040516102df91906132f1565b34801561043557600080fd5b50610326610ba7565b34801561044a57600080fd5b50610326610459366004613361565b610bc7565b34801561046a57600080fd5b506102d3610479366004613389565b610bff565b34801561048a57600080fd5b5061032661049936600461325c565b610d75565b6103266104ac3660046133db565b610e2e565b3480156104bd57600080fd5b50610379610efa565b3480156104d257600080fd5b5060fb5460ff166102d3565b3480156104ea57600080fd5b506103266104f93660046132d6565b610fad565b34801561050a57600080fd5b50610326610519366004613361565b610fc1565b34801561052a57600080fd5b506103796000805160206138ad83398151915281565b34801561054c57600080fd5b506103797fa97b3cffdd171c599be0004a5b695d42918f2d0684dc9dd90d22b2a585d6a08d81565b34801561058057600080fd5b50610326610fd5565b34801561059557600080fd5b50610192546001600160a01b03165b6040516001600160a01b0390911681526020016102df565b3480156105c857600080fd5b50610379600081565b3480156105dd57600080fd5b506105a4610ff5565b3480156105f257600080fd5b506105a461060136600461349d565b61100f565b34801561061257600080fd5b506102d36106213660046132aa565b61102f565b34801561063257600080fd5b506103796106413660046132aa565b61105b565b34801561065257600080fd5b5061065b611068565b6040805165ffffffffffff9384168152929091166020830152016102df565b34801561068657600080fd5b506102d361069536600461325c565b6110be565b3480156106a657600080fd5b506103266106b53660046132aa565b611376565b3480156106c657600080fd5b5061032661143e565b3480156106db57600080fd5b506103266106ea3660046132d6565b6114e9565b3480156106fb57600080fd5b5061037961070a366004613291565b6115fc565b34801561071b57600080fd5b506102fa611614565b34801561073057600080fd5b50610326611676565b34801561074557600080fd5b5061074e6116f4565b604080516001600160a01b03909316835265ffffffffffff9091166020830152016102df565b34801561078057600080fd5b5061032661078f3660046132aa565b611716565b3480156107a057600080fd5b50610326611720565b3480156107b557600080fd5b506103266107c43660046132aa565b611733565b3480156107d557600080fd5b5061037960008051602061386683398151915281565b3480156107f757600080fd5b50610379610806366004613389565b61174d565b34801561081757600080fd5b506103797f241ecf16d79d0f8dbfb92cbc07fe17840425976cf0667f022fe9877caa831b0881565b34801561084b57600080fd5b506103797fd27be921b4749f7d0ef861212f6cf2ac3b06e4bddb6713f392a851cb8c9cf93a81565b34801561087f57600080fd5b5061037960008051602061384683398151915281565b3480156108a157600080fd5b506103797f189ab7a9244df0848122154315af71fe140f3db0fe014031783b0946b8c9d2e381565b3480156108d557600080fd5b506102d36108e43660046134bf565b6117a3565b3480156108f557600080fd5b506102fa611992565b6000610909826119be565b92915050565b600061091a816119fe565b610922611a07565b50565b61093d6000805160206138ad8339815191528361102f565b61096a57604051630bd4212160e11b81526001600160a01b03831660048201526024015b60405180910390fd5b505050565b600061090961022b83611a14565b6109878282611a20565b5050565b6109878282611a96565b6001600160a01b037f00000000000000000000000000000000000000000000000000000000000000001630036109dd5760405162461bcd60e51b815260040161096190613503565b7f00000000000000000000000000000000000000000000000000000000000000006001600160a01b0316610a26600080516020613826833981519152546001600160a01b031690565b6001600160a01b031614610a4c5760405162461bcd60e51b81526004016109619061354f565b610a5581611b82565b6040805160008082526020820190925261092291839190611bac565b60606000610a8061022b611d17565b67ffffffffffffffff811115610a9857610a986133c5565b604051908082528060200260200182016040528015610aea57816020015b604080516080810182526000808252602080830182905292820181905260608201528252600019909201910181610ab65790505b50905060005b610afb61022b611d17565b811015610ba157600080610b1161022b84611d22565b60408051608081018252600084815261022f60209081528382205483528582526102308152838220546001600160a01b03908116828501528683526102319091529083902054169181019190915260608101829052865192945090925090859085908110610b8157610b8161359b565b602002602001018190525050508080610b99906135c7565b915050610af0565b50919050565b600080516020613866833981519152610bbf816119fe565b610922611d3e565b610bde6000805160206138ad833981519152611d90565b6101c3805465ffffffffffff191665ffffffffffff92909216919091179055565b6000600080516020613846833981519152610c19816119fe565b600085815261022e602090815260408083206001600160a01b038089168552908352818420908716845290915281205490819003610c755785858560008060405163a2e84be160e01b81526004016109619594939291906135e0565b610c8161022b82611a14565b600003610cac5785858560008060405163a2e84be160e01b81526004016109619594939291906135e0565b610cb861022b82611d9a565b50600086815261022e602090815260408083206001600160a01b0389811680865291845282852090891680865290845282852085905585855261022f8452828520859055610230845282852080546001600160a01b0319908116909155610231855294839020805490951690945581513381529283018a905282820152606082019290925290517ffe437b660d4e79cff1a7f11b9bb12d8906c3811169f2b1b87f193a360f4a58e29181900360800190a150600195945050505050565b610d8c6000805160206138ad833981519152611d90565b6040518060800160405280848152602001836001600160a01b03168152602001610db33390565b6001600160a01b03168152602001610dcb834261360f565b90523360009081526101c6602090815260409182902083518155908301516001820180546001600160a01b03199081166001600160a01b039384161790915592840151600283018054909416911617909155606090910151600390910155505050565b6001600160a01b037f0000000000000000000000000000000000000000000000000000000000000000163003610e765760405162461bcd60e51b815260040161096190613503565b7f00000000000000000000000000000000000000000000000000000000000000006001600160a01b0316610ebf600080516020613826833981519152546001600160a01b031690565b6001600160a01b031614610ee55760405162461bcd60e51b81526004016109619061354f565b610eee82611b82565b61098782826001611bac565b6000306001600160a01b037f00000000000000000000000000000000000000000000000000000000000000001614610f9a5760405162461bcd60e51b815260206004820152603860248201527f555550535570677261646561626c653a206d757374206e6f742062652063616c60448201527f6c6564207468726f7567682064656c656761746563616c6c00000000000000006064820152608401610961565b5060008051602061382683398151915290565b6000610fb8816119fe565b61098782611da6565b6000610fcc816119fe565b61098782611e19565b600080516020613866833981519152610fed816119fe565b610922611e82565b600061100a610192546001600160a01b031690565b905090565b600082815261015f602052604081206110289083611ebf565b9392505050565b600091825261012d602090815260408084206001600160a01b0393909316845291905290205460ff1690565b600061102883833361174d565b61019254600090600160d01b900465ffffffffffff16801515801561109557504265ffffffffffff821610155b6110a1576000806110b6565b61019254600160a01b900465ffffffffffff16815b915091509091565b6040516370a0823160e01b8152306004820152600090839082906001600160a01b038316906370a0823190602401602060405180830381865afa158015611109573d6000803e3d6000fd5b505050506040513d601f19601f8201168201806040525081019061112d9190613622565b600087815261022e602090815260408083206001600160a01b038a16845282528083203384529091528120549192508190036111875786863360008860405163a2e84be160e01b81526004016109619594939291906135e0565b600061119561022b83611a14565b9050858110156111c257878733838960405163a2e84be160e01b81526004016109619594939291906135e0565b858310156111fc5760405163db42144d60e01b81526001600160a01b03881660048201526024810184905260448101879052606401610961565b6000611208878361363b565b905080156112235761121d61022b8483611ecb565b50611296565b61122f61022b84611d9a565b50600089815261022e602090815260408083206001600160a01b038c1684528252808320338452825280832083905585835261022f8252808320839055610230825280832080546001600160a01b0319908116909155610231909252909120805490911690555b6001600160a01b03851663a9059cbb336040516001600160e01b031960e084901b1681526001600160a01b039091166004820152602481018a90526044016020604051808303816000875af11580156112f3573d6000803e3d6000fd5b505050506040513d601f19601f82011682018060405250810190611317919061364e565b5060408051338152602081018b90526001600160a01b038a16818301526060810189905290517fe9e508bad6d4c3227e881ca19068f099da81b5164dd6d62b2eaf1e8bc6c349319181900360800190a150600198975050505050505050565b61138d6000805160206138ad833981519152611d90565b6040518060800160405280838152602001826001600160a01b031681526020016113b43390565b6001600160a01b031681526020016113ca611992565b6113dc9065ffffffffffff164261360f565b90523360009081526101c6602090815260409182902083518155908301516001820180546001600160a01b03199081166001600160a01b0393841617909155928401516002830180549094169116179091556060909101516003909101555050565b60005b61144c6101c4611ee0565b8110156109225760006114616101c483611ebf565b6001600160a01b03811660009081526101c660205260409020600301549091504211156114d6576114946101c482611eea565b506001600160a01b03811660009081526101c6602052604081208181556001810180546001600160a01b03199081169091556002820180549091169055600301555b50806114e1816135c7565b915050611441565b603254610100900460ff16158080156115095750603254600160ff909116105b806115235750303b158015611523575060325460ff166001145b6115865760405162461bcd60e51b815260206004820152602e60248201527f496e697469616c697a61626c653a20636f6e747261637420697320616c72656160448201526d191e481a5b9a5d1a585b1a5e995960921b6064820152608401610961565b6032805460ff1916600117905580156115a9576032805461ff0019166101001790555b6115b282611eff565b8015610987576032805461ff0019169055604051600181527f7f26b83ff96e1f2b6a682f133852f6798a09c465da95921460cefb3847402498906020015b60405180910390a15050565b600081815261015f6020526040812061090990611ee0565b61019254600090600160d01b900465ffffffffffff16801515801561164057504265ffffffffffff8216105b61165c5761019154600160d01b900465ffffffffffff16611670565b61019254600160a01b900465ffffffffffff165b91505090565b60006116806116f4565b509050336001600160a01b038216146116ec5760405162461bcd60e51b815260206004820152602860248201527f416363657373436f6e74726f6c3a2070656e64696e672061646d696e206d75736044820152671d081858d8d95c1d60c21b6064820152608401610961565b610922611f9f565b610191546001600160a01b03811691600160a01b90910465ffffffffffff1690565b610987828261206c565b600061172b816119fe565b6109226120e9565b6109878282611740611992565b65ffffffffffff16610925565b600083815261022e602090815260408083206001600160a01b038087168552908352818420908516845290915281205480820361178e576000915050611028565b61179a61022b82611a14565b95945050505050565b60006000805160206138468339815191526117bd816119fe565b6040516370a0823160e01b81523060048201526000906001600160a01b038716906370a0823190602401602060405180830381865afa158015611804573d6000803e3d6000fd5b505050506040513d601f19601f820116820180604052508101906118289190613622565b9050838110156118645760405163db42144d60e01b81526001600160a01b03871660048201526024810182905260448101859052606401610961565b600087815261022e602090815260408083206001600160a01b03808b16855290835281842090891684529091528120549081900361191f576118ab61023280546001019055565b5061023254600088815261022e602090815260408083206001600160a01b038b8116808652918452828520908b1680865290845282852086905585855261022f84528285208d9055610230845282852080546001600160a01b03199081169093179055610231909352922080549092161790555b61192c61022b8287611ecb565b5060408051338152602081018a90526001600160a01b0389811682840152881660608201526080810187905290517fa9b951c480458128ed9943d98bf65fd94d30e3bd661c66cd5047245b47f79c9f9181900360a00190a1506001979650505050505050565b6101c35460009065ffffffffffff16156119b657506101c35465ffffffffffff1690565b506201518090565b60006001600160e01b0319821663700e1d5560e11b14806119ef57506001600160e01b03198216636078f29d60e11b145b806109095750610909826120f4565b61092281612119565b611a126000806121e4565b565b600061102883836122a8565b81611a8c5760405162461bcd60e51b815260206004820152603660248201527f416363657373436f6e74726f6c3a2063616e2774206469726563746c79206772604482015275616e742064656661756c742061646d696e20726f6c6560501b6064820152608401610961565b6109878282612318565b81158015611ab25750610192546001600160a01b038281169116145b15611b7857600080611ac26116f4565b90925090506001600160a01b038216158015611ae5575065ffffffffffff811615155b8015611af857504265ffffffffffff8216105b611b625760405162461bcd60e51b815260206004820152603560248201527f416363657373436f6e74726f6c3a206f6e6c792063616e2072656e6f756e636560448201527420696e2074776f2064656c6179656420737465707360581b6064820152608401610961565b5050610191805465ffffffffffff60a01b191690555b610987828261233e565b7f189ab7a9244df0848122154315af71fe140f3db0fe014031783b0946b8c9d2e3610987816119fe565b7f4910fdfa16fed3260ed0e7147f7cc6da11a60208b5b9406d12a635614ffd91435460ff1615611bdf5761096a836123b8565b826001600160a01b03166352d1902d6040518163ffffffff1660e01b8152600401602060405180830381865afa925050508015611c39575060408051601f3d908101601f19168201909252611c3691810190613622565b60015b611c9c5760405162461bcd60e51b815260206004820152602e60248201527f45524331393637557067726164653a206e657720696d706c656d656e7461746960448201526d6f6e206973206e6f74205555505360901b6064820152608401610961565b6000805160206138268339815191528114611d0b5760405162461bcd60e51b815260206004820152602960248201527f45524331393637557067726164653a20756e737570706f727465642070726f786044820152681a58589b195555525160ba1b6064820152608401610961565b5061096a838383612454565b60006109098261247f565b6000808080611d31868661248a565b9097909650945050505050565b611d466124b5565b60fb805460ff191690557f5db9ee0a495bf2e6ff9c91a7834c1ba4fdd244a5e8aa4e537bd38aeae4b073aa335b6040516001600160a01b03909116815260200160405180910390a1565b61092281336124fe565b60006110288383612557565b6000611db0611614565b611db942612574565b611dc39190613670565b9050611dcf82826125df565b60405165ffffffffffff821681526001600160a01b038316907f3377dc44241e779dd06afab5b788a35ca5f3b778836e2990bdb26a2a4b2e5ed69060200160405180910390a25050565b6000611e248261265f565b611e2d42612574565b611e379190613670565b9050611e4382826121e4565b6040805165ffffffffffff8085168252831660208201527ff1038c18cf84a56e432fdbfaf746924b7ea511dfe03a6506a0ceba4888788d9b91016115f0565b611e8a6126a7565b60fb805460ff191660011790557f62e78cea01bee320cd4e420270b5ea74000d11b0c9f74754ebdbfc544b05a258611d733390565b600061102883836126ed565b6000611ed8848484612717565b949350505050565b6000610909825490565b6000611028836001600160a01b038416612734565b603254610100900460ff16611f265760405162461bcd60e51b81526004016109619061368f565b611f2f8161282e565b611f677f241ecf16d79d0f8dbfb92cbc07fe17840425976cf0667f022fe9877caa831b086000805160206138ad8339815191526128fb565b6109226000805160206138468339815191527f241ecf16d79d0f8dbfb92cbc07fe17840425976cf0667f022fe9877caa831b086128fb565b600080611faa6116f4565b91509150611fbf8165ffffffffffff16151590565b8015611fd257504265ffffffffffff8216105b61202f5760405162461bcd60e51b815260206004820152602860248201527f416363657373436f6e74726f6c3a207472616e736665722064656c6179206e6f6044820152671d081c185cdcd95960c21b6064820152608401610961565b61204c6000612047610192546001600160a01b031690565b61291e565b612057600083612928565b505061019180546001600160d01b0319169055565b816120df5760405162461bcd60e51b815260206004820152603760248201527f416363657373436f6e74726f6c3a2063616e2774206469726563746c7920726560448201527f766f6b652064656661756c742061646d696e20726f6c650000000000000000006064820152608401610961565b6109878282612932565b611a126000806125df565b60006001600160e01b031982166318a4c3c360e11b1480610909575061090982612958565b6000805160206138ad8339815191528114801561214b57506121496000805160206138ad8339815191523361102f565b155b156121db5761215c6101c43361297d565b156121db573360009081526101c660209081526040918290208251608081018452815480825260018301546001600160a01b03908116948301949094526002830154909316938101939093526003015460608301526000805160206138ad8339815191521480156121d05750428160600151115b156121d9575050565b505b61092281611d90565b61019254600160d01b900465ffffffffffff16801561226a574265ffffffffffff82161015612240576101925461019180546001600160d01b0316600160a01b90920465ffffffffffff16600160d01b0291909117905561226a565b6040517f2b1fa2edafe6f7b9e97c1a9e0c3660e645beb2dcaa2d45bdbf9beaf5472e1ec590600090a15b5061019280546001600160a01b0316600160a01b65ffffffffffff948516026001600160d01b031617600160d01b9290931691909102919091179055565b6000818152600283016020526040812054801515806122cc57506122cc848461299f565b6110285760405162461bcd60e51b815260206004820152601e60248201527f456e756d657261626c654d61703a206e6f6e6578697374656e74206b657900006044820152606401610961565b600082815261012d6020526040902060010154612334816119fe565b61096a8383612928565b6001600160a01b03811633146123ae5760405162461bcd60e51b815260206004820152602f60248201527f416363657373436f6e74726f6c3a2063616e206f6e6c792072656e6f756e636560448201526e103937b632b9903337b91039b2b63360891b6064820152608401610961565b610987828261291e565b6001600160a01b0381163b6124255760405162461bcd60e51b815260206004820152602d60248201527f455243313936373a206e657720696d706c656d656e746174696f6e206973206e60448201526c1bdd08184818dbdb9d1c9858dd609a1b6064820152608401610961565b60008051602061382683398151915280546001600160a01b0319166001600160a01b0392909216919091179055565b61245d836129ab565b60008251118061246a5750805b1561096a5761247983836129eb565b50505050565b600061090982611ee0565b600080806124988585611ebf565b600081815260029690960160205260409095205494959350505050565b60fb5460ff16611a125760405162461bcd60e51b815260206004820152601460248201527314185d5cd8589b194e881b9bdd081c185d5cd95960621b6044820152606401610961565b612508828261102f565b6109875761251581612a10565b612520836020612a22565b6040516020016125319291906136fe565b60408051601f198184030181529082905262461bcd60e51b825261096191600401613773565b600081815260028301602052604081208190556110288383612bbe565b600065ffffffffffff8211156125db5760405162461bcd60e51b815260206004820152602660248201527f53616665436173743a2076616c756520646f65736e27742066697420696e203460448201526538206269747360d01b6064820152608401610961565b5090565b60006125e96116f4565b610191805465ffffffffffff8616600160a01b026001600160d01b03199091166001600160a01b03881617179055915061262c90508165ffffffffffff16151590565b1561096a576040517f8886ebfc4259abdbc16601dd8fb5678e54878f47b3c34836cfc51154a960510990600090a1505050565b60008061266a611614565b90508065ffffffffffff168365ffffffffffff16116126925761268d83826137a6565b611028565b61102865ffffffffffff841662069780612bca565b60fb5460ff1615611a125760405162461bcd60e51b815260206004820152601060248201526f14185d5cd8589b194e881c185d5cd95960821b6044820152606401610961565b60008260000182815481106127045761270461359b565b9060005260206000200154905092915050565b60008281526002840160205260408120829055611ed88484612be0565b6000818152600183016020526040812054801561281d57600061275860018361363b565b855490915060009061276c9060019061363b565b90508181146127d157600086600001828154811061278c5761278c61359b565b90600052602060002001549050808760000184815481106127af576127af61359b565b6000918252602080832090910192909255918252600188019052604090208390555b85548690806127e2576127e26137c5565b600190038181906000526020600020016000905590558560010160008681526020019081526020016000206000905560019350505050610909565b6000915050610909565b5092915050565b603254610100900460ff166128555760405162461bcd60e51b81526004016109619061368f565b61285d612bec565b612865612c13565b61286d612bec565b612875612bec565b6128826203f48082612c42565b61288d600082612c73565b6128a560008051602061386683398151915282612c73565b6128cf7f189ab7a9244df0848122154315af71fe140f3db0fe014031783b0946b8c9d2e382612c73565b6128e76000805160206138ad83398151915282612c73565b6109226000805160206138ad833981519152805b600082815261012d60205260409020600101548114610987576109878282612c8b565b6109878282612c95565b6109878282612cd2565b600082815261012d602052604090206001015461294e816119fe565b61096a838361291e565b60006001600160e01b03198216635a05180f60e01b1480610909575061090982612d7e565b6001600160a01b03811660009081526001830160205260408120541515611028565b60006110288383612db3565b6129b4816123b8565b6040516001600160a01b038216907fbc7cd75a20ee27fd9adebab32041f755214dbc6bffa90cc0225b39da2e5c2d3b90600090a250565b6060611028838360405180606001604052806027815260200161388660279139612dcb565b60606109096001600160a01b03831660145b60606000612a318360026137db565b612a3c90600261360f565b67ffffffffffffffff811115612a5457612a546133c5565b6040519080825280601f01601f191660200182016040528015612a7e576020820181803683370190505b509050600360fc1b81600081518110612a9957612a9961359b565b60200101906001600160f81b031916908160001a905350600f60fb1b81600181518110612ac857612ac861359b565b60200101906001600160f81b031916908160001a9053506000612aec8460026137db565b612af790600161360f565b90505b6001811115612b6f576f181899199a1a9b1b9c1cb0b131b232b360811b85600f1660108110612b2b57612b2b61359b565b1a60f81b828281518110612b4157612b4161359b565b60200101906001600160f81b031916908160001a90535060049490941c93612b68816137f2565b9050612afa565b5083156110285760405162461bcd60e51b815260206004820181905260248201527f537472696e67733a20686578206c656e67746820696e73756666696369656e746044820152606401610961565b60006110288383612734565b6000818310612bd95781611028565b5090919050565b60006110288383612e43565b603254610100900460ff16611a125760405162461bcd60e51b81526004016109619061368f565b603254610100900460ff16612c3a5760405162461bcd60e51b81526004016109619061368f565b611a12612e92565b603254610100900460ff16612c695760405162461bcd60e51b81526004016109619061368f565b6109878282612ec5565b612c7d828261102f565b610987576109878282612928565b6109878282612f6d565b81158015612cb15750610192546001600160a01b038281169116145b15612cc85761019280546001600160a01b03191690555b6109878282612fdd565b81612d74576000612cec610192546001600160a01b031690565b6001600160a01b031614612d575760405162461bcd60e51b815260206004820152602c60248201527f416363657373436f6e74726f6c3a2064656661756c742061646d696e20616c7260448201526b1958591e4819dc985b9d195960a21b6064820152608401610961565b61019280546001600160a01b0319166001600160a01b0383161790555b6109878282613000565b60006001600160e01b03198216637965db0b60e01b148061090957506301ffc9a760e01b6001600160e01b0319831614610909565b60008181526001830160205260408120541515611028565b6060600080856001600160a01b031685604051612de89190613809565b600060405180830381855af49150503d8060008114612e23576040519150601f19603f3d011682016040523d82523d6000602084013e612e28565b606091505b5091509150612e3986838387613023565b9695505050505050565b6000818152600183016020526040812054612e8a57508154600181810184556000848152602080822090930184905584548482528286019093526040902091909155610909565b506000610909565b603254610100900460ff16612eb95760405162461bcd60e51b81526004016109619061368f565b60fb805460ff19169055565b603254610100900460ff16612eec5760405162461bcd60e51b81526004016109619061368f565b6001600160a01b038116612f425760405162461bcd60e51b815260206004820152601e60248201527f416363657373436f6e74726f6c3a20302064656661756c742061646d696e00006044820152606401610961565b61019180546001600160d01b0316600160d01b65ffffffffffff851602179055610987600082612928565b81612fd35760405162461bcd60e51b815260206004820152603060248201527f416363657373436f6e74726f6c3a2063616e27742076696f6c6174652064656660448201526f61756c742061646d696e2072756c657360801b6064820152608401610961565b610987828261309c565b612fe782826130e8565b600082815261015f6020526040902061096a9082611eea565b61300a8282613150565b600082815261015f6020526040902061096a90826131d7565b6060831561309257825160000361308b576001600160a01b0385163b61308b5760405162461bcd60e51b815260206004820152601d60248201527f416464726573733a2063616c6c20746f206e6f6e2d636f6e74726163740000006044820152606401610961565b5081611ed8565b611ed883836131ec565b600082815261012d6020526040808220600101805490849055905190918391839186917fbd79b86ffe0ab8e8776151514217cd7cacd52c909f66475c3af44e129f0b00ff9190a4505050565b6130f2828261102f565b1561098757600082815261012d602090815260408083206001600160a01b0385168085529252808320805460ff1916905551339285917ff6391f5c32d9c69d2a47ea670b442974b53935d1edc7fd64eb21e047a839171b9190a45050565b61315a828261102f565b61098757600082815261012d602090815260408083206001600160a01b03851684529091529020805460ff191660011790556131933390565b6001600160a01b0316816001600160a01b0316837f2f8788117e7eff1d82e926ec794901d17c78024a50270940304540a733656f0d60405160405180910390a45050565b6000611028836001600160a01b038416612e43565b8151156131fc5781518083602001fd5b8060405162461bcd60e51b81526004016109619190613773565b60006020828403121561322857600080fd5b81356001600160e01b03198116811461102857600080fd5b80356001600160a01b038116811461325757600080fd5b919050565b60008060006060848603121561327157600080fd5b8335925061328160208501613240565b9150604084013590509250925092565b6000602082840312156132a357600080fd5b5035919050565b600080604083850312156132bd57600080fd5b823591506132cd60208401613240565b90509250929050565b6000602082840312156132e857600080fd5b61102882613240565b602080825282518282018190526000919060409081850190868401855b8281101561335457815180518552868101516001600160a01b0390811688870152868201511686860152606090810151908501526080909301929085019060010161330e565b5091979650505050505050565b60006020828403121561337357600080fd5b813565ffffffffffff8116811461102857600080fd5b60008060006060848603121561339e57600080fd5b833592506133ae60208501613240565b91506133bc60408501613240565b90509250925092565b634e487b7160e01b600052604160045260246000fd5b600080604083850312156133ee57600080fd5b6133f783613240565b9150602083013567ffffffffffffffff8082111561341457600080fd5b818501915085601f83011261342857600080fd5b81358181111561343a5761343a6133c5565b604051601f8201601f19908116603f01168101908382118183101715613462576134626133c5565b8160405282815288602084870101111561347b57600080fd5b8260208601602083013760006020848301015280955050505050509250929050565b600080604083850312156134b057600080fd5b50508035926020909101359150565b600080600080608085870312156134d557600080fd5b843593506134e560208601613240565b92506134f360408601613240565b9396929550929360600135925050565b6020808252602c908201527f46756e6374696f6e206d7573742062652063616c6c6564207468726f7567682060408201526b19195b1959d85d1958d85b1b60a21b606082015260800190565b6020808252602c908201527f46756e6374696f6e206d7573742062652063616c6c6564207468726f7567682060408201526b6163746976652070726f787960a01b606082015260800190565b634e487b7160e01b600052603260045260246000fd5b634e487b7160e01b600052601160045260246000fd5b6000600182016135d9576135d96135b1565b5060010190565b9485526001600160a01b0393841660208601529190921660408401526060830191909152608082015260a00190565b80820180821115610909576109096135b1565b60006020828403121561363457600080fd5b5051919050565b81810381811115610909576109096135b1565b60006020828403121561366057600080fd5b8151801515811461102857600080fd5b65ffffffffffff818116838216019080821115612827576128276135b1565b6020808252602b908201527f496e697469616c697a61626c653a20636f6e7472616374206973206e6f74206960408201526a6e697469616c697a696e6760a81b606082015260800190565b60005b838110156136f55781810151838201526020016136dd565b50506000910152565b7f416363657373436f6e74726f6c3a206163636f756e74200000000000000000008152600083516137368160178501602088016136da565b7001034b99036b4b9b9b4b733903937b6329607d1b60179184019182015283516137678160288401602088016136da565b01602801949350505050565b60208152600082518060208401526137928160408501602087016136da565b601f01601f19169190910160400192915050565b65ffffffffffff828116828216039080821115612827576128276135b1565b634e487b7160e01b600052603160045260246000fd5b8082028115828204841417610909576109096135b1565b600081613801576138016135b1565b506000190190565b6000825161381b8184602087016136da565b919091019291505056fe360894a13ba1a3210667c828492db98dca3e2076cc3735a920a3ca505d382bbc97667070c54ef182b0f5858b034beac1b6f3089aa2d3188bb1e8929f4fa9b92965d7a28e3265b37a6474929f336521b332c1681b933f6cb9f3376673440d862a416464726573733a206c6f772d6c6576656c2064656c65676174652063616c6c206661696c6564a49807205ce4d355092ef5a8a18f56e8913cf4a201fbe287825b095693c21775a2646970667358221220ea77858f77547e2ac25540a6f9e91b0acf0b07341398ec6fc910a3d08527403864736f6c63430008120033",
  "devdoc": {
    "custom:security-contact": "security@hydranet.ai",
    "events": {
      "AdminChanged(address,address)": {
        "details": "Emitted when the admin account has changed."
      },
      "BeaconUpgraded(address)": {
        "details": "Emitted when the beacon is changed."
      },
      "DefaultAdminDelayChangeCanceled()": {
        "details": "Emitted when a {pendingDefaultAdminDelay} is reset if its schedule didn't pass."
      },
      "DefaultAdminDelayChangeScheduled(uint48,uint48)": {
        "details": "Emitted when a {defaultAdminDelay} change is started, setting `newDelay` as the next delay to be applied between default admin transfer after `effectSchedule` has passed."
      },
      "DefaultAdminTransferCanceled()": {
        "details": "Emitted when a {pendingDefaultAdmin} is reset if it was never accepted, regardless of its schedule."
      },
      "DefaultAdminTransferScheduled(address,uint48)": {
        "details": "Emitted when a {defaultAdmin} transfer is started, setting `newAdmin` as the next address to become the {defaultAdmin} by calling {acceptDefaultAdminTransfer} only after `acceptSchedule` passes."
      },
      "Initialized(uint8)": {
        "details": "Triggered when the contract has been initialized or reinitialized."
      },
      "Paused(address)": {
        "details": "Emitted when the pause is triggered by `account`."
      },
      "RoleAdminChanged(bytes32,bytes32,bytes32)": {
        "details": "Emitted when `newAdminRole` is set as ``role``'s admin role, replacing `previousAdminRole` `DEFAULT_ADMIN_ROLE` is the starting admin for all roles, despite {RoleAdminChanged} not being emitted signaling this. _Available since v3.1._"
      },
      "RoleGranted(bytes32,address,address)": {
        "details": "Emitted when `account` is granted `role`. `sender` is the account that originated the contract call, an admin role bearer except when using {AccessControl-_setupRole}."
      },
      "RoleRevoked(bytes32,address,address)": {
        "details": "Emitted when `account` is revoked `role`. `sender` is the account that originated the contract call:   - if using `revokeRole`, it is the admin role bearer   - if using `renounceRole`, it is the role bearer (i.e. `account`)"
      },
      "Unpaused(address)": {
        "details": "Emitted when the pause is lifted by `account`."
      },
      "Upgraded(address)": {
        "details": "Emitted when the implementation is upgraded."
      }
    },
    "kind": "dev",
    "methods": {
      "acceptDefaultAdminTransfer()": {
        "details": "Completes a {defaultAdmin} transfer previously started with {beginDefaultAdminTransfer}. After calling the function: - `DEFAULT_ADMIN_ROLE` should be granted to the caller. - `DEFAULT_ADMIN_ROLE` should be revoked from the previous holder. - {pendingDefaultAdmin} should be reset to zero values. Requirements: - Only can be called by the {pendingDefaultAdmin}'s `newAdmin`. - The {pendingDefaultAdmin}'s `acceptSchedule` should've passed."
      },
      "beginDefaultAdminTransfer(address)": {
        "details": "Starts a {defaultAdmin} transfer by setting a {pendingDefaultAdmin} scheduled for acceptance after the current timestamp plus a {defaultAdminDelay}. Requirements: - Only can be called by the current {defaultAdmin}. Emits a DefaultAdminRoleChangeStarted event."
      },
      "cancelDefaultAdminTransfer()": {
        "details": "Cancels a {defaultAdmin} transfer previously started with {beginDefaultAdminTransfer}. A {pendingDefaultAdmin} not yet accepted can also be cancelled with this function. Requirements: - Only can be called by the current {defaultAdmin}. May emit a DefaultAdminTransferCanceled event."
      },
      "changeDefaultAdminDelay(uint48)": {
        "details": "Initiates a {defaultAdminDelay} update by setting a {pendingDefaultAdminDelay} scheduled for getting into effect after the current timestamp plus a {defaultAdminDelay}. This function guarantees that any call to {beginDefaultAdminTransfer} done between the timestamp this method is called and the {pendingDefaultAdminDelay} effect schedule will use the current {defaultAdminDelay} set before calling. The {pendingDefaultAdminDelay}'s effect schedule is defined in a way that waiting until the schedule and then calling {beginDefaultAdminTransfer} with the new delay will take at least the same as another {defaultAdmin} complete transfer (including acceptance). The schedule is designed for two scenarios: - When the delay is changed for a larger one the schedule is `block.timestamp + newDelay` capped by {defaultAdminDelayIncreaseWait}. - When the delay is changed for a shorter one, the schedule is `block.timestamp + (current delay - new delay)`. A {pendingDefaultAdminDelay} that never got into effect will be canceled in favor of a new scheduled change. Requirements: - Only can be called by the current {defaultAdmin}. Emits a DefaultAdminDelayChangeScheduled event and may emit a DefaultAdminDelayChangeCanceled event."
      },
      "constructor": {
        "custom:oz-upgrades-unsafe-allow": "constructor"
      },
      "defaultAdmin()": {
        "details": "Returns the address of the current `DEFAULT_ADMIN_ROLE` holder."
      },
      "defaultAdminDelay()": {
        "details": "Returns the delay required to schedule the acceptance of a {defaultAdmin} transfer started. This delay will be added to the current timestamp when calling {beginDefaultAdminTransfer} to set the acceptance schedule. NOTE: If a delay change has been scheduled, it will take effect as soon as the schedule passes, making this function returns the new delay. See {changeDefaultAdminDelay}."
      },
      "defaultAdminDelayIncreaseWait()": {
        "details": "Maximum time in seconds for an increase to {defaultAdminDelay} (that is scheduled using {changeDefaultAdminDelay}) to take effect. Default to 5 days. When the {defaultAdminDelay} is scheduled to be increased, it goes into effect after the new delay has passed with the purpose of giving enough time for reverting any accidental change (i.e. using milliseconds instead of seconds) that may lock the contract. However, to avoid excessive schedules, the wait is capped by this function and it can be overrode for a custom {defaultAdminDelay} increase scheduling. IMPORTANT: Make sure to add a reasonable amount of time while overriding this value, otherwise, there's a risk of setting a high new delay that goes into effect almost immediately without the possibility of human intervention in the case of an input error (eg. set milliseconds instead of seconds)."
      },
      "getRoleAdmin(bytes32)": {
        "details": "Returns the admin role that controls `role`. See {grantRole} and {revokeRole}. To change a role's admin, use {_setRoleAdmin}."
      },
      "getRoleMember(bytes32,uint256)": {
        "details": "Returns one of the accounts that have `role`. `index` must be a value between 0 and {getRoleMemberCount}, non-inclusive. Role bearers are not sorted in any particular way, and their ordering may change at any point. WARNING: When using {getRoleMember} and {getRoleMemberCount}, make sure you perform all queries on the same block. See the following https://forum.openzeppelin.com/t/iterating-over-elements-on-enumerableset-in-openzeppelin-contracts/2296[forum post] for more information."
      },
      "getRoleMemberCount(bytes32)": {
        "details": "Returns the number of accounts that have `role`. Can be used together with {getRoleMember} to enumerate all bearers of a role."
      },
      "hasRole(bytes32,address)": {
        "details": "Returns `true` if `account` has been granted `role`."
      },
      "owner()": {
        "details": "See {IERC5313-owner}."
      },
      "paused()": {
        "details": "Returns true if the contract is paused, and false otherwise."
      },
      "pendingDefaultAdmin()": {
        "details": "Returns a tuple of a `newAdmin` and an accept schedule. After the `schedule` passes, the `newAdmin` will be able to accept the {defaultAdmin} role by calling {acceptDefaultAdminTransfer}, completing the role transfer. A zero value only in `acceptSchedule` indicates no pending admin transfer. NOTE: A zero address `newAdmin` means that {defaultAdmin} is being renounced."
      },
      "pendingDefaultAdminDelay()": {
        "details": "Returns a tuple of `newDelay` and an effect schedule. After the `schedule` passes, the `newDelay` will get into effect immediately for every new {defaultAdmin} transfer started with {beginDefaultAdminTransfer}. A zero value only in `effectSchedule` indicates no pending delay change. NOTE: A zero value only for `newDelay` means that the next {defaultAdminDelay} will be zero after the effect schedule."
      },
      "proxiableUUID()": {
        "details": "Implementation of the ERC1822 {proxiableUUID} function. This returns the storage slot used by the implementation. It is used to validate the implementation's compatibility when performing an upgrade. IMPORTANT: A proxy pointing at a proxiable contract should not be considered proxiable itself, because this risks bricking a proxy that upgrades to it, by delegating to itself until out of gas. Thus it is critical that this function revert if invoked through a proxy. This is guaranteed by the `notDelegated` modifier."
      },
      "rollbackDefaultAdminDelay()": {
        "details": "Cancels a scheduled {defaultAdminDelay} change. Requirements: - Only can be called by the current {defaultAdmin}. May emit a DefaultAdminDelayChangeCanceled event."
      },
      "supportsInterface(bytes4)": {
        "details": "See {IERC165-supportsInterface}."
      },
      "upgradeTo(address)": {
        "custom:oz-upgrades-unsafe-allow-reachable": "delegatecall",
        "details": "Upgrade the implementation of the proxy to `newImplementation`. Calls {_authorizeUpgrade}. Emits an {Upgraded} event."
      },
      "upgradeToAndCall(address,bytes)": {
        "custom:oz-upgrades-unsafe-allow-reachable": "delegatecall",
        "details": "Upgrade the implementation of the proxy to `newImplementation`, and subsequently execute the function call encoded in `data`. Calls {_authorizeUpgrade}. Emits an {Upgraded} event."
      }
    },
    "version": 1
  },
  "userdoc": {
    "kind": "user",
    "methods": {
      "defaultElevationDuration()": {
        "notice": "VIEWS ///"
      },
      "pause()": {
        "notice": "OZ INTERFACE ///"
      },
      "requestElevation(bytes32,address)": {
        "notice": "IMPLEMENTATION ///"
      },
      "setDefaultElevationDuration(uint48)": {
        "notice": "ADMIN ACTIONS ///"
      }
    },
    "version": 1
  },
  "storageLayout": {
    "storage": [
      {
        "astId": 13103,
        "contract": "contracts/Treasury.sol:Treasury",
        "label": "__gap",
        "offset": 0,
        "slot": "0",
        "type": "t_array(t_uint256)50_storage"
      },
      {
        "astId": 1885,
        "contract": "contracts/Treasury.sol:Treasury",
        "label": "_initialized",
        "offset": 0,
        "slot": "50",
        "type": "t_uint8"
      },
      {
        "astId": 1888,
        "contract": "contracts/Treasury.sol:Treasury",
        "label": "_initializing",
        "offset": 1,
        "slot": "50",
        "type": "t_bool"
      },
      {
        "astId": 1867,
        "contract": "contracts/Treasury.sol:Treasury",
        "label": "__gap",
        "offset": 0,
        "slot": "51",
        "type": "t_array(t_uint256)50_storage"
      },
      {
        "astId": 4528,
        "contract": "contracts/Treasury.sol:Treasury",
        "label": "__gap",
        "offset": 0,
        "slot": "101",
        "type": "t_array(t_uint256)50_storage"
      },
      {
        "astId": 5635,
        "contract": "contracts/Treasury.sol:Treasury",
        "label": "__gap",
        "offset": 0,
        "slot": "151",
        "type": "t_array(t_uint256)50_storage"
      },
      {
        "astId": 2182,
        "contract": "contracts/Treasury.sol:Treasury",
        "label": "__gap",
        "offset": 0,
        "slot": "201",
        "type": "t_array(t_uint256)50_storage"
      },
      {
        "astId": 2204,
        "contract": "contracts/Treasury.sol:Treasury",
        "label": "_paused",
        "offset": 0,
        "slot": "251",
        "type": "t_bool"
      },
      {
        "astId": 2309,
        "contract": "contracts/Treasury.sol:Treasury",
        "label": "__gap",
        "offset": 0,
        "slot": "252",
        "type": "t_array(t_uint256)49_storage"
      },
      {
        "astId": 897,
        "contract": "contracts/Treasury.sol:Treasury",
        "label": "_roles",
        "offset": 0,
        "slot": "301",
        "type": "t_mapping(t_bytes32,t_struct(RoleData)892_storage)"
      },
      {
        "astId": 1192,
        "contract": "contracts/Treasury.sol:Treasury",
        "label": "__gap",
        "offset": 0,
        "slot": "302",
        "type": "t_array(t_uint256)49_storage"
      },
      {
        "astId": 746,
        "contract": "contracts/Treasury.sol:Treasury",
        "label": "_roleMembers",
        "offset": 0,
        "slot": "351",
        "type": "t_mapping(t_bytes32,t_struct(AddressSet)9744_storage)"
      },
      {
        "astId": 856,
        "contract": "contracts/Treasury.sol:Treasury",
        "label": "__gap",
        "offset": 0,
        "slot": "352",
        "type": "t_array(t_uint256)49_storage"
      },
      {
        "astId": 17,
        "contract": "contracts/Treasury.sol:Treasury",
        "label": "_pendingDefaultAdmin",
        "offset": 0,
        "slot": "401",
        "type": "t_address"
      },
      {
        "astId": 19,
        "contract": "contracts/Treasury.sol:Treasury",
        "label": "_pendingDefaultAdminSchedule",
        "offset": 20,
        "slot": "401",
        "type": "t_uint48"
      },
      {
        "astId": 21,
        "contract": "contracts/Treasury.sol:Treasury",
        "label": "_currentDelay",
        "offset": 26,
        "slot": "401",
        "type": "t_uint48"
      },
      {
        "astId": 23,
        "contract": "contracts/Treasury.sol:Treasury",
        "label": "_currentDefaultAdmin",
        "offset": 0,
        "slot": "402",
        "type": "t_address"
      },
      {
        "astId": 25,
        "contract": "contracts/Treasury.sol:Treasury",
        "label": "_pendingDelay",
        "offset": 20,
        "slot": "402",
        "type": "t_uint48"
      },
      {
        "astId": 27,
        "contract": "contracts/Treasury.sol:Treasury",
        "label": "_pendingDelaySchedule",
        "offset": 26,
        "slot": "402",
        "type": "t_uint48"
      },
      {
        "astId": 711,
        "contract": "contracts/Treasury.sol:Treasury",
        "label": "__gap",
        "offset": 0,
        "slot": "403",
        "type": "t_array(t_uint256)48_storage"
      },
      {
        "astId": 12727,
        "contract": "contracts/Treasury.sol:Treasury",
        "label": "_elevationDuration",
        "offset": 0,
        "slot": "451",
        "type": "t_uint48"
      },
      {
        "astId": 12730,
        "contract": "contracts/Treasury.sol:Treasury",
        "label": "_elevationKeys",
        "offset": 0,
        "slot": "452",
        "type": "t_struct(AddressSet)9744_storage"
      },
      {
        "astId": 12735,
        "contract": "contracts/Treasury.sol:Treasury",
        "label": "_elevations",
        "offset": 0,
        "slot": "454",
        "type": "t_mapping(t_address,t_struct(Elevation)12748_storage)"
      },
      {
        "astId": 13423,
        "contract": "contracts/Treasury.sol:Treasury",
        "label": "__gap",
        "offset": 0,
        "slot": "455",
        "type": "t_array(t_uint256)50_storage"
      },
      {
        "astId": 13467,
        "contract": "contracts/Treasury.sol:Treasury",
        "label": "__gap",
        "offset": 0,
        "slot": "505",
        "type": "t_array(t_uint256)50_storage"
      },
      {
        "astId": 12059,
        "contract": "contracts/Treasury.sol:Treasury",
        "label": "_allowances",
        "offset": 0,
        "slot": "555",
        "type": "t_struct(UintToUintMap)8422_storage"
      },
      {
        "astId": 12062,
        "contract": "contracts/Treasury.sol:Treasury",
        "label": "_index",
        "offset": 0,
        "slot": "558",
        "type": "t_struct(Index)12147_storage"
      },
      {
        "astId": 12065,
        "contract": "contracts/Treasury.sol:Treasury",
        "label": "_allowanceIdGen",
        "offset": 0,
        "slot": "562",
        "type": "t_struct(Counter)4535_storage"
      }
    ],
    "types": {
      "t_address": {
        "encoding": "inplace",
        "label": "address",
        "numberOfBytes": "20"
      },
      "t_array(t_bytes32)dyn_storage": {
        "base": "t_bytes32",
        "encoding": "dynamic_array",
        "label": "bytes32[]",
        "numberOfBytes": "32"
      },
      "t_array(t_uint256)48_storage": {
        "base": "t_uint256",
        "encoding": "inplace",
        "label": "uint256[48]",
        "numberOfBytes": "1536"
      },
      "t_array(t_uint256)49_storage": {
        "base": "t_uint256",
        "encoding": "inplace",
        "label": "uint256[49]",
        "numberOfBytes": "1568"
      },
      "t_array(t_uint256)50_storage": {
        "base": "t_uint256",
        "encoding": "inplace",
        "label": "uint256[50]",
        "numberOfBytes": "1600"
      },
      "t_bool": {
        "encoding": "inplace",
        "label": "bool",
        "numberOfBytes": "1"
      },
      "t_bytes32": {
        "encoding": "inplace",
        "label": "bytes32",
        "numberOfBytes": "32"
      },
      "t_mapping(t_address,t_bool)": {
        "encoding": "mapping",
        "key": "t_address",
        "label": "mapping(address => bool)",
        "numberOfBytes": "32",
        "value": "t_bool"
      },
      "t_mapping(t_address,t_mapping(t_address,t_uint256))": {
        "encoding": "mapping",
        "key": "t_address",
        "label": "mapping(address => mapping(address => uint256))",
        "numberOfBytes": "32",
        "value": "t_mapping(t_address,t_uint256)"
      },
      "t_mapping(t_address,t_struct(Elevation)12748_storage)": {
        "encoding": "mapping",
        "key": "t_address",
        "label": "mapping(address => struct AccessControlElevation.Elevation)",
        "numberOfBytes": "32",
        "value": "t_struct(Elevation)12748_storage"
      },
      "t_mapping(t_address,t_uint256)": {
        "encoding": "mapping",
        "key": "t_address",
        "label": "mapping(address => uint256)",
        "numberOfBytes": "32",
        "value": "t_uint256"
      },
      "t_mapping(t_bytes32,t_bytes32)": {
        "encoding": "mapping",
        "key": "t_bytes32",
        "label": "mapping(bytes32 => bytes32)",
        "numberOfBytes": "32",
        "value": "t_bytes32"
      },
      "t_mapping(t_bytes32,t_mapping(t_address,t_mapping(t_address,t_uint256)))": {
        "encoding": "mapping",
        "key": "t_bytes32",
        "label": "mapping(bytes32 => mapping(address => mapping(address => uint256)))",
        "numberOfBytes": "32",
        "value": "t_mapping(t_address,t_mapping(t_address,t_uint256))"
      },
      "t_mapping(t_bytes32,t_struct(AddressSet)9744_storage)": {
        "encoding": "mapping",
        "key": "t_bytes32",
        "label": "mapping(bytes32 => struct EnumerableSetUpgradeable.AddressSet)",
        "numberOfBytes": "32",
        "value": "t_struct(AddressSet)9744_storage"
      },
      "t_mapping(t_bytes32,t_struct(RoleData)892_storage)": {
        "encoding": "mapping",
        "key": "t_bytes32",
        "label": "mapping(bytes32 => struct AccessControlUpgradeable.RoleData)",
        "numberOfBytes": "32",
        "value": "t_struct(RoleData)892_storage"
      },
      "t_mapping(t_bytes32,t_uint256)": {
        "encoding": "mapping",
        "key": "t_bytes32",
        "label": "mapping(bytes32 => uint256)",
        "numberOfBytes": "32",
        "value": "t_uint256"
      },
      "t_mapping(t_uint256,t_address)": {
        "encoding": "mapping",
        "key": "t_uint256",
        "label": "mapping(uint256 => address)",
        "numberOfBytes": "32",
        "value": "t_address"
      },
      "t_mapping(t_uint256,t_bytes32)": {
        "encoding": "mapping",
        "key": "t_uint256",
        "label": "mapping(uint256 => bytes32)",
        "numberOfBytes": "32",
        "value": "t_bytes32"
      },
      "t_struct(AddressSet)9744_storage": {
        "encoding": "inplace",
        "label": "struct EnumerableSetUpgradeable.AddressSet",
        "members": [
          {
            "astId": 9743,
            "contract": "contracts/Treasury.sol:Treasury",
            "label": "_inner",
            "offset": 0,
            "slot": "0",
            "type": "t_struct(Set)9429_storage"
          }
        ],
        "numberOfBytes": "64"
      },
      "t_struct(Bytes32Set)9623_storage": {
        "encoding": "inplace",
        "label": "struct EnumerableSetUpgradeable.Bytes32Set",
        "members": [
          {
            "astId": 9622,
            "contract": "contracts/Treasury.sol:Treasury",
            "label": "_inner",
            "offset": 0,
            "slot": "0",
            "type": "t_struct(Set)9429_storage"
          }
        ],
        "numberOfBytes": "64"
      },
      "t_struct(Bytes32ToBytes32Map)8176_storage": {
        "encoding": "inplace",
        "label": "struct EnumerableMapUpgradeable.Bytes32ToBytes32Map",
        "members": [
          {
            "astId": 8171,
            "contract": "contracts/Treasury.sol:Treasury",
            "label": "_keys",
            "offset": 0,
            "slot": "0",
            "type": "t_struct(Bytes32Set)9623_storage"
          },
          {
            "astId": 8175,
            "contract": "contracts/Treasury.sol:Treasury",
            "label": "_values",
            "offset": 0,
            "slot": "2",
            "type": "t_mapping(t_bytes32,t_bytes32)"
          }
        ],
        "numberOfBytes": "96"
      },
      "t_struct(Counter)4535_storage": {
        "encoding": "inplace",
        "label": "struct CountersUpgradeable.Counter",
        "members": [
          {
            "astId": 4534,
            "contract": "contracts/Treasury.sol:Treasury",
            "label": "_value",
            "offset": 0,
            "slot": "0",
            "type": "t_uint256"
          }
        ],
        "numberOfBytes": "32"
      },
      "t_struct(Elevation)12748_storage": {
        "encoding": "inplace",
        "label": "struct AccessControlElevation.Elevation",
        "members": [
          {
            "astId": 12741,
            "contract": "contracts/Treasury.sol:Treasury",
            "label": "role",
            "offset": 0,
            "slot": "0",
            "type": "t_bytes32"
          },
          {
            "astId": 12743,
            "contract": "contracts/Treasury.sol:Treasury",
            "label": "elevatedAddress",
            "offset": 0,
            "slot": "1",
            "type": "t_address"
          },
          {
            "astId": 12745,
            "contract": "contracts/Treasury.sol:Treasury",
            "label": "elevatedBy",
            "offset": 0,
            "slot": "2",
            "type": "t_address"
          },
          {
            "astId": 12747,
            "contract": "contracts/Treasury.sol:Treasury",
            "label": "expires",
            "offset": 0,
            "slot": "3",
            "type": "t_uint256"
          }
        ],
        "numberOfBytes": "128"
      },
      "t_struct(Index)12147_storage": {
        "encoding": "inplace",
        "label": "struct Treasury.Index",
        "members": [
          {
            "astId": 12134,
            "contract": "contracts/Treasury.sol:Treasury",
            "label": "ix",
            "offset": 0,
            "slot": "0",
            "type": "t_mapping(t_bytes32,t_mapping(t_address,t_mapping(t_address,t_uint256)))"
          },
          {
            "astId": 12138,
            "contract": "contracts/Treasury.sol:Treasury",
            "label": "operation",
            "offset": 0,
            "slot": "1",
            "type": "t_mapping(t_uint256,t_bytes32)"
          },
          {
            "astId": 12142,
            "contract": "contracts/Treasury.sol:Treasury",
            "label": "token",
            "offset": 0,
            "slot": "2",
            "type": "t_mapping(t_uint256,t_address)"
          },
          {
            "astId": 12146,
            "contract": "contracts/Treasury.sol:Treasury",
            "label": "spender",
            "offset": 0,
            "slot": "3",
            "type": "t_mapping(t_uint256,t_address)"
          }
        ],
        "numberOfBytes": "128"
      },
      "t_struct(RoleData)892_storage": {
        "encoding": "inplace",
        "label": "struct AccessControlUpgradeable.RoleData",
        "members": [
          {
            "astId": 889,
            "contract": "contracts/Treasury.sol:Treasury",
            "label": "members",
            "offset": 0,
            "slot": "0",
            "type": "t_mapping(t_address,t_bool)"
          },
          {
            "astId": 891,
            "contract": "contracts/Treasury.sol:Treasury",
            "label": "adminRole",
            "offset": 0,
            "slot": "1",
            "type": "t_bytes32"
          }
        ],
        "numberOfBytes": "64"
      },
      "t_struct(Set)9429_storage": {
        "encoding": "inplace",
        "label": "struct EnumerableSetUpgradeable.Set",
        "members": [
          {
            "astId": 9424,
            "contract": "contracts/Treasury.sol:Treasury",
            "label": "_values",
            "offset": 0,
            "slot": "0",
            "type": "t_array(t_bytes32)dyn_storage"
          },
          {
            "astId": 9428,
            "contract": "contracts/Treasury.sol:Treasury",
            "label": "_indexes",
            "offset": 0,
            "slot": "1",
            "type": "t_mapping(t_bytes32,t_uint256)"
          }
        ],
        "numberOfBytes": "64"
      },
      "t_struct(UintToUintMap)8422_storage": {
        "encoding": "inplace",
        "label": "struct EnumerableMapUpgradeable.UintToUintMap",
        "members": [
          {
            "astId": 8421,
            "contract": "contracts/Treasury.sol:Treasury",
            "label": "_inner",
            "offset": 0,
            "slot": "0",
            "type": "t_struct(Bytes32ToBytes32Map)8176_storage"
          }
        ],
        "numberOfBytes": "96"
      },
      "t_uint256": {
        "encoding": "inplace",
        "label": "uint256",
        "numberOfBytes": "32"
      },
      "t_uint48": {
        "encoding": "inplace",
        "label": "uint48",
        "numberOfBytes": "6"
      },
      "t_uint8": {
        "encoding": "inplace",
        "label": "uint8",
        "numberOfBytes": "1"
      }
    }
  }
}