{
  "address": "0x56CDBdd6c4577De978c131C658a3934f93298920",
  "abi": [
    {
      "inputs": [],
      "stateMutability": "nonpayable",
      "type": "constructor"
    },
    {
      "inputs": [
        {
          "internalType": "bytes32",
          "name": "operation",
          "type": "bytes32"
        },
        {
          "internalType": "address",
          "name": "token",
          "type": "address"
        },
        {
          "internalType": "address",
          "name": "spender",
          "type": "address"
        },
        {
          "internalType": "uint256",
          "name": "allowance",
          "type": "uint256"
        },
        {
          "internalType": "uint256",
          "name": "amount",
          "type": "uint256"
        }
      ],
      "name": "InsufficientAllowance",
      "type": "error"
    },
    {
      "inputs": [
        {
          "internalType": "address",
          "name": "token",
          "type": "address"
        },
        {
          "internalType": "uint256",
          "name": "balance",
          "type": "uint256"
        },
        {
          "internalType": "uint256",
          "name": "amount",
          "type": "uint256"
        }
      ],
      "name": "InsufficientBalance",
      "type": "error"
    },
    {
      "inputs": [
        {
          "internalType": "address",
          "name": "requestedElevator",
          "type": "address"
        }
      ],
      "name": "NotAdmin",
      "type": "error"
    },
    {
      "anonymous": false,
      "inputs": [
        {
          "indexed": false,
          "internalType": "address",
          "name": "previousAdmin",
          "type": "address"
        },
        {
          "indexed": false,
          "internalType": "address",
          "name": "newAdmin",
          "type": "address"
        }
      ],
      "name": "AdminChanged",
      "type": "event"
    },
    {
      "anonymous": false,
      "inputs": [
        {
          "indexed": false,
          "internalType": "address",
          "name": "approver",
          "type": "address"
        },
        {
          "indexed": false,
          "internalType": "bytes32",
          "name": "operation",
          "type": "bytes32"
        },
        {
          "indexed": false,
          "internalType": "address",
          "name": "token",
          "type": "address"
        },
        {
          "indexed": false,
          "internalType": "address",
          "name": "spender",
          "type": "address"
        },
        {
          "indexed": false,
          "internalType": "uint256",
          "name": "amount",
          "type": "uint256"
        }
      ],
      "name": "AllowanceApproved",
      "type": "event"
    },
    {
      "anonymous": false,
      "inputs": [
        {
          "indexed": false,
          "internalType": "address",
          "name": "revoker",
          "type": "address"
        },
        {
          "indexed": false,
          "internalType": "bytes32",
          "name": "operation",
          "type": "bytes32"
        },
        {
          "indexed": false,
          "internalType": "address",
          "name": "token",
          "type": "address"
        },
        {
          "indexed": false,
          "internalType": "address",
          "name": "spender",
          "type": "address"
        }
      ],
      "name": "AllowanceRevoked",
      "type": "event"
    },
    {
      "anonymous": false,
      "inputs": [
        {
          "indexed": true,
          "internalType": "address",
          "name": "beacon",
          "type": "address"
        }
      ],
      "name": "BeaconUpgraded",
      "type": "event"
    },
    {
      "anonymous": false,
      "inputs": [],
      "name": "DefaultAdminDelayChangeCanceled",
      "type": "event"
    },
    {
      "anonymous": false,
      "inputs": [
        {
          "indexed": false,
          "internalType": "uint48",
          "name": "newDelay",
          "type": "uint48"
        },
        {
          "indexed": false,
          "internalType": "uint48",
          "name": "effectSchedule",
          "type": "uint48"
        }
      ],
      "name": "DefaultAdminDelayChangeScheduled",
      "type": "event"
    },
    {
      "anonymous": false,
      "inputs": [],
      "name": "DefaultAdminTransferCanceled",
      "type": "event"
    },
    {
      "anonymous": false,
      "inputs": [
        {
          "indexed": true,
          "internalType": "address",
          "name": "newAdmin",
          "type": "address"
        },
        {
          "indexed": false,
          "internalType": "uint48",
          "name": "acceptSchedule",
          "type": "uint48"
        }
      ],
      "name": "DefaultAdminTransferScheduled",
      "type": "event"
    },
    {
      "anonymous": false,
      "inputs": [
        {
          "indexed": false,
          "internalType": "uint8",
          "name": "version",
          "type": "uint8"
        }
      ],
      "name": "Initialized",
      "type": "event"
    },
    {
      "anonymous": false,
      "inputs": [
        {
          "indexed": false,
          "internalType": "address",
          "name": "account",
          "type": "address"
        }
      ],
      "name": "Paused",
      "type": "event"
    },
    {
      "anonymous": false,
      "inputs": [
        {
          "indexed": true,
          "internalType": "bytes32",
          "name": "role",
          "type": "bytes32"
        },
        {
          "indexed": true,
          "internalType": "bytes32",
          "name": "previousAdminRole",
          "type": "bytes32"
        },
        {
          "indexed": true,
          "internalType": "bytes32",
          "name": "newAdminRole",
          "type": "bytes32"
        }
      ],
      "name": "RoleAdminChanged",
      "type": "event"
    },
    {
      "anonymous": false,
      "inputs": [
        {
          "indexed": true,
          "internalType": "bytes32",
          "name": "role",
          "type": "bytes32"
        },
        {
          "indexed": true,
          "internalType": "address",
          "name": "account",
          "type": "address"
        },
        {
          "indexed": true,
          "internalType": "address",
          "name": "sender",
          "type": "address"
        }
      ],
      "name": "RoleGranted",
      "type": "event"
    },
    {
      "anonymous": false,
      "inputs": [
        {
          "indexed": true,
          "internalType": "bytes32",
          "name": "role",
          "type": "bytes32"
        },
        {
          "indexed": true,
          "internalType": "address",
          "name": "account",
          "type": "address"
        },
        {
          "indexed": true,
          "internalType": "address",
          "name": "sender",
          "type": "address"
        }
      ],
      "name": "RoleRevoked",
      "type": "event"
    },
    {
      "anonymous": false,
      "inputs": [
        {
          "indexed": false,
          "internalType": "address",
          "name": "account",
          "type": "address"
        }
      ],
      "name": "Unpaused",
      "type": "event"
    },
    {
      "anonymous": false,
      "inputs": [
        {
          "indexed": true,
          "internalType": "address",
          "name": "implementation",
          "type": "address"
        }
      ],
      "name": "Upgraded",
      "type": "event"
    },
    {
      "anonymous": false,
      "inputs": [
        {
          "indexed": false,
          "internalType": "address",
          "name": "recipient",
          "type": "address"
        },
        {
          "indexed": false,
          "internalType": "bytes32",
          "name": "operation",
          "type": "bytes32"
        },
        {
          "indexed": false,
          "internalType": "address",
          "name": "token",
          "type": "address"
        },
        {
          "indexed": false,
          "internalType": "uint256",
          "name": "amount",
          "type": "uint256"
        }
      ],
      "name": "Withdrawal",
      "type": "event"
    },
    {
      "inputs": [],
      "name": "ADMIN_ROLE",
      "outputs": [
        {
          "internalType": "bytes32",
          "name": "",
          "type": "bytes32"
        }
      ],
      "stateMutability": "view",
      "type": "function"
    },
    {
      "inputs": [],
      "name": "DEFAULT_ADMIN_ROLE",
      "outputs": [
        {
          "internalType": "bytes32",
          "name": "",
          "type": "bytes32"
        }
      ],
      "stateMutability": "view",
      "type": "function"
    },
    {
      "inputs": [],
      "name": "MANAGER_ROLE",
      "outputs": [
        {
          "internalType": "bytes32",
          "name": "",
          "type": "bytes32"
        }
      ],
      "stateMutability": "view",
      "type": "function"
    },
    {
      "inputs": [],
      "name": "OPERATOR_ROLE",
      "outputs": [
        {
          "internalType": "bytes32",
          "name": "",
          "type": "bytes32"
        }
      ],
      "stateMutability": "view",
      "type": "function"
    },
    {
      "inputs": [],
      "name": "OP_BONDS",
      "outputs": [
        {
          "internalType": "bytes32",
          "name": "",
          "type": "bytes32"
        }
      ],
      "stateMutability": "view",
      "type": "function"
    },
    {
      "inputs": [],
      "name": "PAUSER_ROLE",
      "outputs": [
        {
          "internalType": "bytes32",
          "name": "",
          "type": "bytes32"
        }
      ],
      "stateMutability": "view",
      "type": "function"
    },
    {
      "inputs": [],
      "name": "UPGRADER_ROLE",
      "outputs": [
        {
          "internalType": "bytes32",
          "name": "",
          "type": "bytes32"
        }
      ],
      "stateMutability": "view",
      "type": "function"
    },
    {
      "inputs": [],
      "name": "acceptDefaultAdminTransfer",
      "outputs": [],
      "stateMutability": "nonpayable",
      "type": "function"
    },
    {
      "inputs": [
        {
          "internalType": "uint256",
          "name": "ix",
          "type": "uint256"
        }
      ],
      "name": "allowance",
      "outputs": [
        {
          "internalType": "uint256",
          "name": "",
          "type": "uint256"
        }
      ],
      "stateMutability": "view",
      "type": "function"
    },
    {
      "inputs": [
        {
          "internalType": "bytes32",
          "name": "operation",
          "type": "bytes32"
        },
        {
          "internalType": "address",
          "name": "token",
          "type": "address"
        }
      ],
      "name": "allowance",
      "outputs": [
        {
          "internalType": "uint256",
          "name": "",
          "type": "uint256"
        }
      ],
      "stateMutability": "view",
      "type": "function"
    },
    {
      "inputs": [
        {
          "internalType": "bytes32",
          "name": "operation",
          "type": "bytes32"
        },
        {
          "internalType": "address",
          "name": "token",
          "type": "address"
        },
        {
          "internalType": "address",
          "name": "spender",
          "type": "address"
        }
      ],
      "name": "allowance",
      "outputs": [
        {
          "internalType": "uint256",
          "name": "",
          "type": "uint256"
        }
      ],
      "stateMutability": "view",
      "type": "function"
    },
    {
      "inputs": [],
      "name": "allowances",
      "outputs": [
        {
          "components": [
            {
              "internalType": "bytes32",
              "name": "operation",
              "type": "bytes32"
            },
            {
              "internalType": "address",
              "name": "token",
              "type": "address"
            },
            {
              "internalType": "address",
              "name": "spender",
              "type": "address"
            },
            {
              "internalType": "uint256",
              "name": "amount",
              "type": "uint256"
            }
          ],
          "internalType": "struct Treasury.Allowance[]",
          "name": "",
          "type": "tuple[]"
        }
      ],
      "stateMutability": "view",
      "type": "function"
    },
    {
      "inputs": [
        {
          "internalType": "bytes32",
          "name": "operation",
          "type": "bytes32"
        },
        {
          "internalType": "address",
          "name": "token",
          "type": "address"
        },
        {
          "internalType": "address",
          "name": "spender",
          "type": "address"
        },
        {
          "internalType": "uint256",
          "name": "amount",
          "type": "uint256"
        }
      ],
      "name": "approve",
      "outputs": [
        {
          "internalType": "bool",
          "name": "",
          "type": "bool"
        }
      ],
      "stateMutability": "nonpayable",
      "type": "function"
    },
    {
      "inputs": [
        {
          "internalType": "address",
          "name": "newAdmin",
          "type": "address"
        }
      ],
      "name": "beginDefaultAdminTransfer",
      "outputs": [],
      "stateMutability": "nonpayable",
      "type": "function"
    },
    {
      "inputs": [],
      "name": "cancelDefaultAdminTransfer",
      "outputs": [],
      "stateMutability": "nonpayable",
      "type": "function"
    },
    {
      "inputs": [
        {
          "internalType": "uint48",
          "name": "newDelay",
          "type": "uint48"
        }
      ],
      "name": "changeDefaultAdminDelay",
      "outputs": [],
      "stateMutability": "nonpayable",
      "type": "function"
    },
    {
      "inputs": [],
      "name": "defaultAdmin",
      "outputs": [
        {
          "internalType": "address",
          "name": "",
          "type": "address"
        }
      ],
      "stateMutability": "view",
      "type": "function"
    },
    {
      "inputs": [],
      "name": "defaultAdminDelay",
      "outputs": [
        {
          "internalType": "uint48",
          "name": "",
          "type": "uint48"
        }
      ],
      "stateMutability": "view",
      "type": "function"
    },
    {
      "inputs": [],
      "name": "defaultAdminDelayIncreaseWait",
      "outputs": [
        {
          "internalType": "uint48",
          "name": "",
          "type": "uint48"
        }
      ],
      "stateMutability": "view",
      "type": "function"
    },
    {
      "inputs": [],
      "name": "defaultElevationDuration",
      "outputs": [
        {
          "internalType": "uint48",
          "name": "",
          "type": "uint48"
        }
      ],
      "stateMutability": "view",
      "type": "function"
    },
    {
      "inputs": [
        {
          "internalType": "bytes32",
          "name": "role",
          "type": "bytes32"
        },
        {
          "internalType": "address",
          "name": "elevatedAddress",
          "type": "address"
        },
        {
          "internalType": "uint256",
          "name": "duration",
          "type": "uint256"
        }
      ],
      "name": "elevate",
      "outputs": [],
      "stateMutability": "nonpayable",
      "type": "function"
    },
    {
      "inputs": [
        {
          "internalType": "bytes32",
          "name": "role",
          "type": "bytes32"
        },
        {
          "internalType": "address",
          "name": "elevatedAddress",
          "type": "address"
        }
      ],
      "name": "elevate",
      "outputs": [],
      "stateMutability": "nonpayable",
      "type": "function"
    },
    {
      "inputs": [
        {
          "internalType": "bytes32",
          "name": "role",
          "type": "bytes32"
        }
      ],
      "name": "getRoleAdmin",
      "outputs": [
        {
          "internalType": "bytes32",
          "name": "",
          "type": "bytes32"
        }
      ],
      "stateMutability": "view",
      "type": "function"
    },
    {
      "inputs": [
        {
          "internalType": "bytes32",
          "name": "role",
          "type": "bytes32"
        },
        {
          "internalType": "uint256",
          "name": "index",
          "type": "uint256"
        }
      ],
      "name": "getRoleMember",
      "outputs": [
        {
          "internalType": "address",
          "name": "",
          "type": "address"
        }
      ],
      "stateMutability": "view",
      "type": "function"
    },
    {
      "inputs": [
        {
          "internalType": "bytes32",
          "name": "role",
          "type": "bytes32"
        }
      ],
      "name": "getRoleMemberCount",
      "outputs": [
        {
          "internalType": "uint256",
          "name": "",
          "type": "uint256"
        }
      ],
      "stateMutability": "view",
      "type": "function"
    },
    {
      "inputs": [
        {
          "internalType": "bytes32",
          "name": "role",
          "type": "bytes32"
        },
        {
          "internalType": "address",
          "name": "account",
          "type": "address"
        }
      ],
      "name": "grantRole",
      "outputs": [],
      "stateMutability": "nonpayable",
      "type": "function"
    },
    {
      "inputs": [
        {
          "internalType": "bytes32",
          "name": "role",
          "type": "bytes32"
        },
        {
          "internalType": "address",
          "name": "account",
          "type": "address"
        }
      ],
      "name": "hasRole",
      "outputs": [
        {
          "internalType": "bool",
          "name": "",
          "type": "bool"
        }
      ],
      "stateMutability": "view",
      "type": "function"
    },
    {
      "inputs": [],
      "name": "housekeeping",
      "outputs": [],
      "stateMutability": "nonpayable",
      "type": "function"
    },
    {
      "inputs": [
        {
          "internalType": "address",
          "name": "admin",
          "type": "address"
        }
      ],
      "name": "initialize",
      "outputs": [],
      "stateMutability": "nonpayable",
      "type": "function"
    },
    {
      "inputs": [],
      "name": "owner",
      "outputs": [
        {
          "internalType": "address",
          "name": "",
          "type": "address"
        }
      ],
      "stateMutability": "view",
      "type": "function"
    },
    {
      "inputs": [],
      "name": "pause",
      "outputs": [],
      "stateMutability": "nonpayable",
      "type": "function"
    },
    {
      "inputs": [],
      "name": "paused",
      "outputs": [
        {
          "internalType": "bool",
          "name": "",
          "type": "bool"
        }
      ],
      "stateMutability": "view",
      "type": "function"
    },
    {
      "inputs": [],
      "name": "pendingDefaultAdmin",
      "outputs": [
        {
          "internalType": "address",
          "name": "newAdmin",
          "type": "address"
        },
        {
          "internalType": "uint48",
          "name": "schedule",
          "type": "uint48"
        }
      ],
      "stateMutability": "view",
      "type": "function"
    },
    {
      "inputs": [],
      "name": "pendingDefaultAdminDelay",
      "outputs": [
        {
          "internalType": "uint48",
          "name": "newDelay",
          "type": "uint48"
        },
        {
          "internalType": "uint48",
          "name": "schedule",
          "type": "uint48"
        }
      ],
      "stateMutability": "view",
      "type": "function"
    },
    {
      "inputs": [],
      "name": "proxiableUUID",
      "outputs": [
        {
          "internalType": "bytes32",
          "name": "",
          "type": "bytes32"
        }
      ],
      "stateMutability": "view",
      "type": "function"
    },
    {
      "inputs": [
        {
          "internalType": "bytes32",
          "name": "role",
          "type": "bytes32"
        },
        {
          "internalType": "address",
          "name": "account",
          "type": "address"
        }
      ],
      "name": "renounceRole",
      "outputs": [],
      "stateMutability": "nonpayable",
      "type": "function"
    },
    {
      "inputs": [
        {
          "internalType": "bytes32",
          "name": "role",
          "type": "bytes32"
        },
        {
          "internalType": "address",
          "name": "admin",
          "type": "address"
        },
        {
          "internalType": "uint256",
          "name": "duration",
          "type": "uint256"
        }
      ],
      "name": "requestElevation",
      "outputs": [],
      "stateMutability": "nonpayable",
      "type": "function"
    },
    {
      "inputs": [
        {
          "internalType": "bytes32",
          "name": "role",
          "type": "bytes32"
        },
        {
          "internalType": "address",
          "name": "admin",
          "type": "address"
        }
      ],
      "name": "requestElevation",
      "outputs": [],
      "stateMutability": "nonpayable",
      "type": "function"
    },
    {
      "inputs": [
        {
          "internalType": "bytes32",
          "name": "operation",
          "type": "bytes32"
        },
        {
          "internalType": "address",
          "name": "token",
          "type": "address"
        },
        {
          "internalType": "address",
          "name": "spender",
          "type": "address"
        }
      ],
      "name": "revoke",
      "outputs": [
        {
          "internalType": "bool",
          "name": "",
          "type": "bool"
        }
      ],
      "stateMutability": "nonpayable",
      "type": "function"
    },
    {
      "inputs": [
        {
          "internalType": "bytes32",
          "name": "role",
          "type": "bytes32"
        },
        {
          "internalType": "address",
          "name": "account",
          "type": "address"
        }
      ],
      "name": "revokeRole",
      "outputs": [],
      "stateMutability": "nonpayable",
      "type": "function"
    },
    {
      "inputs": [],
      "name": "rollbackDefaultAdminDelay",
      "outputs": [],
      "stateMutability": "nonpayable",
      "type": "function"
    },
    {
      "inputs": [
        {
          "internalType": "uint48",
          "name": "duration",
          "type": "uint48"
        }
      ],
      "name": "setDefaultElevationDuration",
      "outputs": [],
      "stateMutability": "nonpayable",
      "type": "function"
    },
    {
      "inputs": [
        {
          "internalType": "bytes4",
          "name": "interfaceId",
          "type": "bytes4"
        }
      ],
      "name": "supportsInterface",
      "outputs": [
        {
          "internalType": "bool",
          "name": "",
          "type": "bool"
        }
      ],
      "stateMutability": "view",
      "type": "function"
    },
    {
      "inputs": [],
      "name": "unpause",
      "outputs": [],
      "stateMutability": "nonpayable",
      "type": "function"
    },
    {
      "inputs": [
        {
          "internalType": "address",
          "name": "newImplementation",
          "type": "address"
        }
      ],
      "name": "upgradeTo",
      "outputs": [],
      "stateMutability": "nonpayable",
      "type": "function"
    },
    {
      "inputs": [
        {
          "internalType": "address",
          "name": "newImplementation",
          "type": "address"
        },
        {
          "internalType": "bytes",
          "name": "data",
          "type": "bytes"
        }
      ],
      "name": "upgradeToAndCall",
      "outputs": [],
      "stateMutability": "payable",
      "type": "function"
    },
    {
      "inputs": [
        {
          "internalType": "bytes32",
          "name": "operation",
          "type": "bytes32"
        },
        {
          "internalType": "address",
          "name": "token",
          "type": "address"
        },
        {
          "internalType": "uint256",
          "name": "amount",
          "type": "uint256"
        }
      ],
      "name": "withdraw",
      "outputs": [
        {
          "internalType": "bool",
          "name": "",
          "type": "bool"
        }
      ],
      "stateMutability": "nonpayable",
      "type": "function"
    }
  ],
  "numDeployments": 2,
  "solcInputHash": "87008615dbfb9bc132891f8e6a002816",
  "bytecode": "0x60a0604052306080523480156200001557600080fd5b50620000206200003a565b6200002a6200003a565b620000346200003a565b620000fb565b603254610100900460ff1615620000a75760405162461bcd60e51b815260206004820152602760248201527f496e697469616c697a61626c653a20636f6e747261637420697320696e697469604482015266616c697a696e6760c81b606482015260840160405180910390fd5b60325460ff90811614620000f9576032805460ff191660ff9081179091556040519081527f7f26b83ff96e1f2b6a682f133852f6798a09c465da95921460cefb38474024989060200160405180910390a15b565b6080516138ac62000133600039600081816109450152818161098501528181610dde01528181610e1e0152610ead01526138ac6000f3fe6080604052600436106102885760003560e01c80639010d07c1161015a578063cf6eefb7116100c1578063ec87621c1161007a578063ec87621c146107b1578063f56ebd19146107e5578063f5b541a614610819578063f72c0d8b1461083b578063fcac86f71461086f578063fce101221461088f57600080fd5b8063cf6eefb7146106df578063d547741f1461071a578063d602b9fd1461073a578063dbcc30831461074f578063e63ab1e91461076f578063e88a31781461079157600080fd5b8063a96b9a6011610113578063a96b9a6014610640578063c0f1e53a14610660578063c4d66de814610675578063ca15c87314610695578063cc8463c8146106b5578063cefc1429146106ca57600080fd5b80639010d07c1461057757806391d1485414610597578063980c6621146105b7578063a1eda53c146105d7578063a217fddf1461060b578063a6fb97d11461062057600080fd5b80634192400d116101fe578063634e93da116101b7578063634e93da146104b8578063649a5ec7146104d857806375b238fc146104f85780638456cb591461051a57806384ef8ffc1461052f5780638da5cb5b1461056257600080fd5b80634192400d1461041857806344ef2bf3146104385780634977a0ca146104585780634f1ef2861461047857806352d1902d1461048b5780635c975abb146104a057600080fd5b80632e43d7dc116102505780632e43d7dc146103615780632f2ff15d1461038157806336568abe146103a15780633659cfe6146103c15780633ed10b92146103e15780633f4ba83a1461040357600080fd5b806301ffc9a71461028d578063022d63fb146102c25780630aa6220b146102eb5780631290959514610302578063248a9ca314610322575b600080fd5b34801561029957600080fd5b506102ad6102a83660046131c0565b6108a4565b60405190151581526020015b60405180910390f35b3480156102ce57600080fd5b50620697805b60405165ffffffffffff90911681526020016102b9565b3480156102f757600080fd5b506103006108b5565b005b34801561030e57600080fd5b5061030061031d366004613206565b6108cb565b34801561032e57600080fd5b5061035361033d36600461323b565b600090815261012d602052604090206001015490565b6040519081526020016102b9565b34801561036d57600080fd5b5061035361037c36600461323b565b610915565b34801561038d57600080fd5b5061030061039c366004613254565b610923565b3480156103ad57600080fd5b506103006103bc366004613254565b610931565b3480156103cd57600080fd5b506103006103dc366004613280565b61093b565b3480156103ed57600080fd5b506103f6610a17565b6040516102b9919061329b565b34801561040f57600080fd5b50610300610b4d565b34801561042457600080fd5b5061030061043336600461330b565b610b6d565b34801561044457600080fd5b506102ad610453366004613333565b610ba5565b34801561046457600080fd5b50610300610473366004613206565b610d1b565b610300610486366004613385565b610dd4565b34801561049757600080fd5b50610353610ea0565b3480156104ac57600080fd5b5060fb5460ff166102ad565b3480156104c457600080fd5b506103006104d3366004613280565b610f53565b3480156104e457600080fd5b506103006104f336600461330b565b610f67565b34801561050457600080fd5b5061035360008051602061385783398151915281565b34801561052657600080fd5b50610300610f7b565b34801561053b57600080fd5b50610192546001600160a01b03165b6040516001600160a01b0390911681526020016102b9565b34801561056e57600080fd5b5061054a610f9b565b34801561058357600080fd5b5061054a610592366004613447565b610fb5565b3480156105a357600080fd5b506102ad6105b2366004613254565b610fd5565b3480156105c357600080fd5b506103536105d2366004613254565b611001565b3480156105e357600080fd5b506105ec61100e565b6040805165ffffffffffff9384168152929091166020830152016102b9565b34801561061757600080fd5b50610353600081565b34801561062c57600080fd5b506102ad61063b366004613206565b611064565b34801561064c57600080fd5b5061030061065b366004613254565b61131c565b34801561066c57600080fd5b506103006113e4565b34801561068157600080fd5b50610300610690366004613280565b61148f565b3480156106a157600080fd5b506103536106b036600461323b565b6115a2565b3480156106c157600080fd5b506102d46115ba565b3480156106d657600080fd5b5061030061161c565b3480156106eb57600080fd5b506106f461169a565b604080516001600160a01b03909316835265ffffffffffff9091166020830152016102b9565b34801561072657600080fd5b50610300610735366004613254565b6116bc565b34801561074657600080fd5b506103006116c6565b34801561075b57600080fd5b5061030061076a366004613254565b6116d9565b34801561077b57600080fd5b5061035360008051602061381083398151915281565b34801561079d57600080fd5b506103536107ac366004613333565b6116f3565b3480156107bd57600080fd5b506103537f241ecf16d79d0f8dbfb92cbc07fe17840425976cf0667f022fe9877caa831b0881565b3480156107f157600080fd5b506103537fd27be921b4749f7d0ef861212f6cf2ac3b06e4bddb6713f392a851cb8c9cf93a81565b34801561082557600080fd5b506103536000805160206137f083398151915281565b34801561084757600080fd5b506103537f189ab7a9244df0848122154315af71fe140f3db0fe014031783b0946b8c9d2e381565b34801561087b57600080fd5b506102ad61088a366004613469565b611749565b34801561089b57600080fd5b506102d461193c565b60006108af82611968565b92915050565b60006108c0816119a8565b6108c86119b1565b50565b6108e360008051602061385783398151915283610fd5565b61091057604051630bd4212160e11b81526001600160a01b03831660048201526024015b60405180910390fd5b505050565b60006108af61022b836119be565b61092d82826119ca565b5050565b61092d8282611a40565b6001600160a01b037f00000000000000000000000000000000000000000000000000000000000000001630036109835760405162461bcd60e51b8152600401610907906134ad565b7f00000000000000000000000000000000000000000000000000000000000000006001600160a01b03166109cc6000805160206137d0833981519152546001600160a01b031690565b6001600160a01b0316146109f25760405162461bcd60e51b8152600401610907906134f9565b6109fb81611b2c565b604080516000808252602082019092526108c891839190611b56565b60606000610a2661022b611cc1565b67ffffffffffffffff811115610a3e57610a3e61336f565b604051908082528060200260200182016040528015610a9057816020015b604080516080810182526000808252602080830182905292820181905260608201528252600019909201910181610a5c5790505b50905060005b610aa161022b611cc1565b811015610b4757600080610ab761022b84611ccc565b60408051608081018252600084815261022f60209081528382205483528582526102308152838220546001600160a01b03908116828501528683526102319091529083902054169181019190915260608101829052865192945090925090859085908110610b2757610b27613545565b602002602001018190525050508080610b3f90613571565b915050610a96565b50919050565b600080516020613810833981519152610b65816119a8565b6108c8611ce8565b610b84600080516020613857833981519152611d3a565b6101c3805465ffffffffffff191665ffffffffffff92909216919091179055565b60006000805160206137f0833981519152610bbf816119a8565b600085815261022e602090815260408083206001600160a01b038089168552908352818420908716845290915281205490819003610c1b5785858560008060405163a2e84be160e01b815260040161090795949392919061358a565b610c2761022b826119be565b600003610c525785858560008060405163a2e84be160e01b815260040161090795949392919061358a565b610c5e61022b82611d44565b50600086815261022e602090815260408083206001600160a01b0389811680865291845282852090891680865290845282852085905585855261022f8452828520859055610230845282852080546001600160a01b0319908116909155610231855294839020805490951690945581513381529283018a905282820152606082019290925290517ffe437b660d4e79cff1a7f11b9bb12d8906c3811169f2b1b87f193a360f4a58e29181900360800190a150600195945050505050565b610d32600080516020613857833981519152611d3a565b6040518060800160405280848152602001836001600160a01b03168152602001610d593390565b6001600160a01b03168152602001610d7183426135b9565b90523360009081526101c6602090815260409182902083518155908301516001820180546001600160a01b03199081166001600160a01b039384161790915592840151600283018054909416911617909155606090910151600390910155505050565b6001600160a01b037f0000000000000000000000000000000000000000000000000000000000000000163003610e1c5760405162461bcd60e51b8152600401610907906134ad565b7f00000000000000000000000000000000000000000000000000000000000000006001600160a01b0316610e656000805160206137d0833981519152546001600160a01b031690565b6001600160a01b031614610e8b5760405162461bcd60e51b8152600401610907906134f9565b610e9482611b2c565b61092d82826001611b56565b6000306001600160a01b037f00000000000000000000000000000000000000000000000000000000000000001614610f405760405162461bcd60e51b815260206004820152603860248201527f555550535570677261646561626c653a206d757374206e6f742062652063616c60448201527f6c6564207468726f7567682064656c656761746563616c6c00000000000000006064820152608401610907565b506000805160206137d083398151915290565b6000610f5e816119a8565b61092d82611d50565b6000610f72816119a8565b61092d82611dc3565b600080516020613810833981519152610f93816119a8565b6108c8611e2c565b6000610fb0610192546001600160a01b031690565b905090565b600082815261015f60205260408120610fce9083611e69565b9392505050565b600091825261012d602090815260408084206001600160a01b0393909316845291905290205460ff1690565b6000610fce8383336116f3565b61019254600090600160d01b900465ffffffffffff16801515801561103b57504265ffffffffffff821610155b6110475760008061105c565b61019254600160a01b900465ffffffffffff16815b915091509091565b6040516370a0823160e01b8152306004820152600090839082906001600160a01b038316906370a0823190602401602060405180830381865afa1580156110af573d6000803e3d6000fd5b505050506040513d601f19601f820116820180604052508101906110d391906135cc565b600087815261022e602090815260408083206001600160a01b038a168452825280832033845290915281205491925081900361112d5786863360008860405163a2e84be160e01b815260040161090795949392919061358a565b600061113b61022b836119be565b90508581101561116857878733838960405163a2e84be160e01b815260040161090795949392919061358a565b858310156111a25760405163db42144d60e01b81526001600160a01b03881660048201526024810184905260448101879052606401610907565b60006111ae87836135e5565b905080156111c9576111c361022b8483611e75565b5061123c565b6111d561022b84611d44565b50600089815261022e602090815260408083206001600160a01b038c1684528252808320338452825280832083905585835261022f8252808320839055610230825280832080546001600160a01b0319908116909155610231909252909120805490911690555b6001600160a01b03851663a9059cbb336040516001600160e01b031960e084901b1681526001600160a01b039091166004820152602481018a90526044016020604051808303816000875af1158015611299573d6000803e3d6000fd5b505050506040513d601f19601f820116820180604052508101906112bd91906135f8565b5060408051338152602081018b90526001600160a01b038a16818301526060810189905290517fe9e508bad6d4c3227e881ca19068f099da81b5164dd6d62b2eaf1e8bc6c349319181900360800190a150600198975050505050505050565b611333600080516020613857833981519152611d3a565b6040518060800160405280838152602001826001600160a01b0316815260200161135a3390565b6001600160a01b0316815260200161137061193c565b6113829065ffffffffffff16426135b9565b90523360009081526101c6602090815260409182902083518155908301516001820180546001600160a01b03199081166001600160a01b0393841617909155928401516002830180549094169116179091556060909101516003909101555050565b60005b6113f26101c4611e8a565b8110156108c85760006114076101c483611e69565b6001600160a01b03811660009081526101c6602052604090206003015490915042111561147c5761143a6101c482611e94565b506001600160a01b03811660009081526101c6602052604081208181556001810180546001600160a01b03199081169091556002820180549091169055600301555b508061148781613571565b9150506113e7565b603254610100900460ff16158080156114af5750603254600160ff909116105b806114c95750303b1580156114c9575060325460ff166001145b61152c5760405162461bcd60e51b815260206004820152602e60248201527f496e697469616c697a61626c653a20636f6e747261637420697320616c72656160448201526d191e481a5b9a5d1a585b1a5e995960921b6064820152608401610907565b6032805460ff19166001179055801561154f576032805461ff0019166101001790555b61155882611ea9565b801561092d576032805461ff0019169055604051600181527f7f26b83ff96e1f2b6a682f133852f6798a09c465da95921460cefb3847402498906020015b60405180910390a15050565b600081815261015f602052604081206108af90611e8a565b61019254600090600160d01b900465ffffffffffff1680151580156115e657504265ffffffffffff8216105b6116025761019154600160d01b900465ffffffffffff16611616565b61019254600160a01b900465ffffffffffff165b91505090565b600061162661169a565b509050336001600160a01b038216146116925760405162461bcd60e51b815260206004820152602860248201527f416363657373436f6e74726f6c3a2070656e64696e672061646d696e206d75736044820152671d081858d8d95c1d60c21b6064820152608401610907565b6108c8611f49565b610191546001600160a01b03811691600160a01b90910465ffffffffffff1690565b61092d8282612016565b60006116d1816119a8565b6108c8612093565b61092d82826116e661193c565b65ffffffffffff166108cb565b600083815261022e602090815260408083206001600160a01b0380871685529083528184209085168452909152812054808203611734576000915050610fce565b61174061022b826119be565b95945050505050565b60006000805160206137f0833981519152611763816119a8565b6040516370a0823160e01b81523060048201526000906001600160a01b038716906370a0823190602401602060405180830381865afa1580156117aa573d6000803e3d6000fd5b505050506040513d601f19601f820116820180604052508101906117ce91906135cc565b90508381101561180a5760405163db42144d60e01b81526001600160a01b03871660048201526024810182905260448101859052606401610907565b600087815261022e602090815260408083206001600160a01b03808b1685529083528184209089168452909152812054908190036118c95761184d61022b611cc1565b6118589060016135b9565b600089815261022e602090815260408083206001600160a01b03808d16808652918452828520908c1680865290845282852086905585855261022f84528285208e9055610230845282852080546001600160a01b031990811690931790556102319093529220805490921617905590505b6118d661022b8287611e75565b5060408051338152602081018a90526001600160a01b0389811682840152881660608201526080810187905290517fa9b951c480458128ed9943d98bf65fd94d30e3bd661c66cd5047245b47f79c9f9181900360a00190a1506001979650505050505050565b6101c35460009065ffffffffffff161561196057506101c35465ffffffffffff1690565b506201518090565b60006001600160e01b0319821663700e1d5560e11b148061199957506001600160e01b03198216636078f29d60e11b145b806108af57506108af8261209e565b6108c8816120c3565b6119bc60008061218e565b565b6000610fce8383612252565b81611a365760405162461bcd60e51b815260206004820152603660248201527f416363657373436f6e74726f6c3a2063616e2774206469726563746c79206772604482015275616e742064656661756c742061646d696e20726f6c6560501b6064820152608401610907565b61092d82826122c2565b81158015611a5c5750610192546001600160a01b038281169116145b15611b2257600080611a6c61169a565b90925090506001600160a01b038216158015611a8f575065ffffffffffff811615155b8015611aa257504265ffffffffffff8216105b611b0c5760405162461bcd60e51b815260206004820152603560248201527f416363657373436f6e74726f6c3a206f6e6c792063616e2072656e6f756e636560448201527420696e2074776f2064656c6179656420737465707360581b6064820152608401610907565b5050610191805465ffffffffffff60a01b191690555b61092d82826122e8565b7f189ab7a9244df0848122154315af71fe140f3db0fe014031783b0946b8c9d2e361092d816119a8565b7f4910fdfa16fed3260ed0e7147f7cc6da11a60208b5b9406d12a635614ffd91435460ff1615611b895761091083612362565b826001600160a01b03166352d1902d6040518163ffffffff1660e01b8152600401602060405180830381865afa925050508015611be3575060408051601f3d908101601f19168201909252611be0918101906135cc565b60015b611c465760405162461bcd60e51b815260206004820152602e60248201527f45524331393637557067726164653a206e657720696d706c656d656e7461746960448201526d6f6e206973206e6f74205555505360901b6064820152608401610907565b6000805160206137d08339815191528114611cb55760405162461bcd60e51b815260206004820152602960248201527f45524331393637557067726164653a20756e737570706f727465642070726f786044820152681a58589b195555525160ba1b6064820152608401610907565b506109108383836123fe565b60006108af82612429565b6000808080611cdb8686612434565b9097909650945050505050565b611cf061245f565b60fb805460ff191690557f5db9ee0a495bf2e6ff9c91a7834c1ba4fdd244a5e8aa4e537bd38aeae4b073aa335b6040516001600160a01b03909116815260200160405180910390a1565b6108c881336124a8565b6000610fce8383612501565b6000611d5a6115ba565b611d634261251e565b611d6d919061361a565b9050611d798282612589565b60405165ffffffffffff821681526001600160a01b038316907f3377dc44241e779dd06afab5b788a35ca5f3b778836e2990bdb26a2a4b2e5ed69060200160405180910390a25050565b6000611dce82612609565b611dd74261251e565b611de1919061361a565b9050611ded828261218e565b6040805165ffffffffffff8085168252831660208201527ff1038c18cf84a56e432fdbfaf746924b7ea511dfe03a6506a0ceba4888788d9b9101611596565b611e34612651565b60fb805460ff191660011790557f62e78cea01bee320cd4e420270b5ea74000d11b0c9f74754ebdbfc544b05a258611d1d3390565b6000610fce8383612697565b6000611e828484846126c1565b949350505050565b60006108af825490565b6000610fce836001600160a01b0384166126de565b603254610100900460ff16611ed05760405162461bcd60e51b815260040161090790613639565b611ed9816127d8565b611f117f241ecf16d79d0f8dbfb92cbc07fe17840425976cf0667f022fe9877caa831b086000805160206138578339815191526128a5565b6108c86000805160206137f08339815191527f241ecf16d79d0f8dbfb92cbc07fe17840425976cf0667f022fe9877caa831b086128a5565b600080611f5461169a565b91509150611f698165ffffffffffff16151590565b8015611f7c57504265ffffffffffff8216105b611fd95760405162461bcd60e51b815260206004820152602860248201527f416363657373436f6e74726f6c3a207472616e736665722064656c6179206e6f6044820152671d081c185cdcd95960c21b6064820152608401610907565b611ff66000611ff1610192546001600160a01b031690565b6128c8565b6120016000836128d2565b505061019180546001600160d01b0319169055565b816120895760405162461bcd60e51b815260206004820152603760248201527f416363657373436f6e74726f6c3a2063616e2774206469726563746c7920726560448201527f766f6b652064656661756c742061646d696e20726f6c650000000000000000006064820152608401610907565b61092d82826128dc565b6119bc600080612589565b60006001600160e01b031982166318a4c3c360e11b14806108af57506108af82612902565b600080516020613857833981519152811480156120f557506120f360008051602061385783398151915233610fd5565b155b15612185576121066101c433612927565b15612185573360009081526101c660209081526040918290208251608081018452815480825260018301546001600160a01b039081169483019490945260028301549093169381019390935260030154606083015260008051602061385783398151915214801561217a5750428160600151115b15612183575050565b505b6108c881611d3a565b61019254600160d01b900465ffffffffffff168015612214574265ffffffffffff821610156121ea576101925461019180546001600160d01b0316600160a01b90920465ffffffffffff16600160d01b02919091179055612214565b6040517f2b1fa2edafe6f7b9e97c1a9e0c3660e645beb2dcaa2d45bdbf9beaf5472e1ec590600090a15b5061019280546001600160a01b0316600160a01b65ffffffffffff948516026001600160d01b031617600160d01b9290931691909102919091179055565b60008181526002830160205260408120548015158061227657506122768484612949565b610fce5760405162461bcd60e51b815260206004820152601e60248201527f456e756d657261626c654d61703a206e6f6e6578697374656e74206b657900006044820152606401610907565b600082815261012d60205260409020600101546122de816119a8565b61091083836128d2565b6001600160a01b03811633146123585760405162461bcd60e51b815260206004820152602f60248201527f416363657373436f6e74726f6c3a2063616e206f6e6c792072656e6f756e636560448201526e103937b632b9903337b91039b2b63360891b6064820152608401610907565b61092d82826128c8565b6001600160a01b0381163b6123cf5760405162461bcd60e51b815260206004820152602d60248201527f455243313936373a206e657720696d706c656d656e746174696f6e206973206e60448201526c1bdd08184818dbdb9d1c9858dd609a1b6064820152608401610907565b6000805160206137d083398151915280546001600160a01b0319166001600160a01b0392909216919091179055565b61240783612955565b6000825111806124145750805b15610910576124238383612995565b50505050565b60006108af82611e8a565b600080806124428585611e69565b600081815260029690960160205260409095205494959350505050565b60fb5460ff166119bc5760405162461bcd60e51b815260206004820152601460248201527314185d5cd8589b194e881b9bdd081c185d5cd95960621b6044820152606401610907565b6124b28282610fd5565b61092d576124bf816129ba565b6124ca8360206129cc565b6040516020016124db9291906136a8565b60408051601f198184030181529082905262461bcd60e51b82526109079160040161371d565b60008181526002830160205260408120819055610fce8383612b68565b600065ffffffffffff8211156125855760405162461bcd60e51b815260206004820152602660248201527f53616665436173743a2076616c756520646f65736e27742066697420696e203460448201526538206269747360d01b6064820152608401610907565b5090565b600061259361169a565b610191805465ffffffffffff8616600160a01b026001600160d01b03199091166001600160a01b0388161717905591506125d690508165ffffffffffff16151590565b15610910576040517f8886ebfc4259abdbc16601dd8fb5678e54878f47b3c34836cfc51154a960510990600090a1505050565b6000806126146115ba565b90508065ffffffffffff168365ffffffffffff161161263c576126378382613750565b610fce565b610fce65ffffffffffff841662069780612b74565b60fb5460ff16156119bc5760405162461bcd60e51b815260206004820152601060248201526f14185d5cd8589b194e881c185d5cd95960821b6044820152606401610907565b60008260000182815481106126ae576126ae613545565b9060005260206000200154905092915050565b60008281526002840160205260408120829055611e828484612b8a565b600081815260018301602052604081205480156127c75760006127026001836135e5565b8554909150600090612716906001906135e5565b905081811461277b57600086600001828154811061273657612736613545565b906000526020600020015490508087600001848154811061275957612759613545565b6000918252602080832090910192909255918252600188019052604090208390555b855486908061278c5761278c61376f565b6001900381819060005260206000200160009055905585600101600086815260200190815260200160002060009055600193505050506108af565b60009150506108af565b5092915050565b603254610100900460ff166127ff5760405162461bcd60e51b815260040161090790613639565b612807612b96565b61280f612bbd565b612817612b96565b61281f612b96565b61282c6203f48082612bec565b612837600082612c1d565b61284f60008051602061381083398151915282612c1d565b6128797f189ab7a9244df0848122154315af71fe140f3db0fe014031783b0946b8c9d2e382612c1d565b61289160008051602061385783398151915282612c1d565b6108c8600080516020613857833981519152805b600082815261012d6020526040902060010154811461092d5761092d8282612c35565b61092d8282612c3f565b61092d8282612c7c565b600082815261012d60205260409020600101546128f8816119a8565b61091083836128c8565b60006001600160e01b03198216635a05180f60e01b14806108af57506108af82612d28565b6001600160a01b03811660009081526001830160205260408120541515610fce565b6000610fce8383612d5d565b61295e81612362565b6040516001600160a01b038216907fbc7cd75a20ee27fd9adebab32041f755214dbc6bffa90cc0225b39da2e5c2d3b90600090a250565b6060610fce838360405180606001604052806027815260200161383060279139612d75565b60606108af6001600160a01b03831660145b606060006129db836002613785565b6129e69060026135b9565b67ffffffffffffffff8111156129fe576129fe61336f565b6040519080825280601f01601f191660200182016040528015612a28576020820181803683370190505b509050600360fc1b81600081518110612a4357612a43613545565b60200101906001600160f81b031916908160001a905350600f60fb1b81600181518110612a7257612a72613545565b60200101906001600160f81b031916908160001a9053506000612a96846002613785565b612aa19060016135b9565b90505b6001811115612b19576f181899199a1a9b1b9c1cb0b131b232b360811b85600f1660108110612ad557612ad5613545565b1a60f81b828281518110612aeb57612aeb613545565b60200101906001600160f81b031916908160001a90535060049490941c93612b128161379c565b9050612aa4565b508315610fce5760405162461bcd60e51b815260206004820181905260248201527f537472696e67733a20686578206c656e67746820696e73756666696369656e746044820152606401610907565b6000610fce83836126de565b6000818310612b835781610fce565b5090919050565b6000610fce8383612ded565b603254610100900460ff166119bc5760405162461bcd60e51b815260040161090790613639565b603254610100900460ff16612be45760405162461bcd60e51b815260040161090790613639565b6119bc612e3c565b603254610100900460ff16612c135760405162461bcd60e51b815260040161090790613639565b61092d8282612e6f565b612c278282610fd5565b61092d5761092d82826128d2565b61092d8282612f17565b81158015612c5b5750610192546001600160a01b038281169116145b15612c725761019280546001600160a01b03191690555b61092d8282612f87565b81612d1e576000612c96610192546001600160a01b031690565b6001600160a01b031614612d015760405162461bcd60e51b815260206004820152602c60248201527f416363657373436f6e74726f6c3a2064656661756c742061646d696e20616c7260448201526b1958591e4819dc985b9d195960a21b6064820152608401610907565b61019280546001600160a01b0319166001600160a01b0383161790555b61092d8282612faa565b60006001600160e01b03198216637965db0b60e01b14806108af57506301ffc9a760e01b6001600160e01b03198316146108af565b60008181526001830160205260408120541515610fce565b6060600080856001600160a01b031685604051612d9291906137b3565b600060405180830381855af49150503d8060008114612dcd576040519150601f19603f3d011682016040523d82523d6000602084013e612dd2565b606091505b5091509150612de386838387612fcd565b9695505050505050565b6000818152600183016020526040812054612e34575081546001818101845560008481526020808220909301849055845484825282860190935260409020919091556108af565b5060006108af565b603254610100900460ff16612e635760405162461bcd60e51b815260040161090790613639565b60fb805460ff19169055565b603254610100900460ff16612e965760405162461bcd60e51b815260040161090790613639565b6001600160a01b038116612eec5760405162461bcd60e51b815260206004820152601e60248201527f416363657373436f6e74726f6c3a20302064656661756c742061646d696e00006044820152606401610907565b61019180546001600160d01b0316600160d01b65ffffffffffff85160217905561092d6000826128d2565b81612f7d5760405162461bcd60e51b815260206004820152603060248201527f416363657373436f6e74726f6c3a2063616e27742076696f6c6174652064656660448201526f61756c742061646d696e2072756c657360801b6064820152608401610907565b61092d8282613046565b612f918282613092565b600082815261015f602052604090206109109082611e94565b612fb482826130fa565b600082815261015f602052604090206109109082613181565b6060831561303c578251600003613035576001600160a01b0385163b6130355760405162461bcd60e51b815260206004820152601d60248201527f416464726573733a2063616c6c20746f206e6f6e2d636f6e74726163740000006044820152606401610907565b5081611e82565b611e828383613196565b600082815261012d6020526040808220600101805490849055905190918391839186917fbd79b86ffe0ab8e8776151514217cd7cacd52c909f66475c3af44e129f0b00ff9190a4505050565b61309c8282610fd5565b1561092d57600082815261012d602090815260408083206001600160a01b0385168085529252808320805460ff1916905551339285917ff6391f5c32d9c69d2a47ea670b442974b53935d1edc7fd64eb21e047a839171b9190a45050565b6131048282610fd5565b61092d57600082815261012d602090815260408083206001600160a01b03851684529091529020805460ff1916600117905561313d3390565b6001600160a01b0316816001600160a01b0316837f2f8788117e7eff1d82e926ec794901d17c78024a50270940304540a733656f0d60405160405180910390a45050565b6000610fce836001600160a01b038416612ded565b8151156131a65781518083602001fd5b8060405162461bcd60e51b8152600401610907919061371d565b6000602082840312156131d257600080fd5b81356001600160e01b031981168114610fce57600080fd5b80356001600160a01b038116811461320157600080fd5b919050565b60008060006060848603121561321b57600080fd5b8335925061322b602085016131ea565b9150604084013590509250925092565b60006020828403121561324d57600080fd5b5035919050565b6000806040838503121561326757600080fd5b82359150613277602084016131ea565b90509250929050565b60006020828403121561329257600080fd5b610fce826131ea565b602080825282518282018190526000919060409081850190868401855b828110156132fe57815180518552868101516001600160a01b039081168887015286820151168686015260609081015190850152608090930192908501906001016132b8565b5091979650505050505050565b60006020828403121561331d57600080fd5b813565ffffffffffff81168114610fce57600080fd5b60008060006060848603121561334857600080fd5b83359250613358602085016131ea565b9150613366604085016131ea565b90509250925092565b634e487b7160e01b600052604160045260246000fd5b6000806040838503121561339857600080fd5b6133a1836131ea565b9150602083013567ffffffffffffffff808211156133be57600080fd5b818501915085601f8301126133d257600080fd5b8135818111156133e4576133e461336f565b604051601f8201601f19908116603f0116810190838211818310171561340c5761340c61336f565b8160405282815288602084870101111561342557600080fd5b8260208601602083013760006020848301015280955050505050509250929050565b6000806040838503121561345a57600080fd5b50508035926020909101359150565b6000806000806080858703121561347f57600080fd5b8435935061348f602086016131ea565b925061349d604086016131ea565b9396929550929360600135925050565b6020808252602c908201527f46756e6374696f6e206d7573742062652063616c6c6564207468726f7567682060408201526b19195b1959d85d1958d85b1b60a21b606082015260800190565b6020808252602c908201527f46756e6374696f6e206d7573742062652063616c6c6564207468726f7567682060408201526b6163746976652070726f787960a01b606082015260800190565b634e487b7160e01b600052603260045260246000fd5b634e487b7160e01b600052601160045260246000fd5b6000600182016135835761358361355b565b5060010190565b9485526001600160a01b0393841660208601529190921660408401526060830191909152608082015260a00190565b808201808211156108af576108af61355b565b6000602082840312156135de57600080fd5b5051919050565b818103818111156108af576108af61355b565b60006020828403121561360a57600080fd5b81518015158114610fce57600080fd5b65ffffffffffff8181168382160190808211156127d1576127d161355b565b6020808252602b908201527f496e697469616c697a61626c653a20636f6e7472616374206973206e6f74206960408201526a6e697469616c697a696e6760a81b606082015260800190565b60005b8381101561369f578181015183820152602001613687565b50506000910152565b7f416363657373436f6e74726f6c3a206163636f756e74200000000000000000008152600083516136e0816017850160208801613684565b7001034b99036b4b9b9b4b733903937b6329607d1b6017918401918201528351613711816028840160208801613684565b01602801949350505050565b602081526000825180602084015261373c816040850160208701613684565b601f01601f19169190910160400192915050565b65ffffffffffff8281168282160390808211156127d1576127d161355b565b634e487b7160e01b600052603160045260246000fd5b80820281158282048414176108af576108af61355b565b6000816137ab576137ab61355b565b506000190190565b600082516137c5818460208701613684565b919091019291505056fe360894a13ba1a3210667c828492db98dca3e2076cc3735a920a3ca505d382bbc97667070c54ef182b0f5858b034beac1b6f3089aa2d3188bb1e8929f4fa9b92965d7a28e3265b37a6474929f336521b332c1681b933f6cb9f3376673440d862a416464726573733a206c6f772d6c6576656c2064656c65676174652063616c6c206661696c6564a49807205ce4d355092ef5a8a18f56e8913cf4a201fbe287825b095693c21775a26469706673582212208922111f30fa80ecd95f9e10f715347e40bc132c0a5977e08f02bbefa75b376464736f6c63430008120033",
  "implementation": "0xd190BE4bEE5a6125D5C8fc868b8108E1690d945A",
  "devdoc": {
    "custom:security-contact": "security@hydranet.ai",
    "events": {
      "AdminChanged(address,address)": {
        "details": "Emitted when the admin account has changed."
      },
      "BeaconUpgraded(address)": {
        "details": "Emitted when the beacon is changed."
      },
      "DefaultAdminDelayChangeCanceled()": {
        "details": "Emitted when a {pendingDefaultAdminDelay} is reset if its schedule didn't pass."
      },
      "DefaultAdminDelayChangeScheduled(uint48,uint48)": {
        "details": "Emitted when a {defaultAdminDelay} change is started, setting `newDelay` as the next delay to be applied between default admin transfer after `effectSchedule` has passed."
      },
      "DefaultAdminTransferCanceled()": {
        "details": "Emitted when a {pendingDefaultAdmin} is reset if it was never accepted, regardless of its schedule."
      },
      "DefaultAdminTransferScheduled(address,uint48)": {
        "details": "Emitted when a {defaultAdmin} transfer is started, setting `newAdmin` as the next address to become the {defaultAdmin} by calling {acceptDefaultAdminTransfer} only after `acceptSchedule` passes."
      },
      "Initialized(uint8)": {
        "details": "Triggered when the contract has been initialized or reinitialized."
      },
      "Paused(address)": {
        "details": "Emitted when the pause is triggered by `account`."
      },
      "RoleAdminChanged(bytes32,bytes32,bytes32)": {
        "details": "Emitted when `newAdminRole` is set as ``role``'s admin role, replacing `previousAdminRole` `DEFAULT_ADMIN_ROLE` is the starting admin for all roles, despite {RoleAdminChanged} not being emitted signaling this. _Available since v3.1._"
      },
      "RoleGranted(bytes32,address,address)": {
        "details": "Emitted when `account` is granted `role`. `sender` is the account that originated the contract call, an admin role bearer except when using {AccessControl-_setupRole}."
      },
      "RoleRevoked(bytes32,address,address)": {
        "details": "Emitted when `account` is revoked `role`. `sender` is the account that originated the contract call:   - if using `revokeRole`, it is the admin role bearer   - if using `renounceRole`, it is the role bearer (i.e. `account`)"
      },
      "Unpaused(address)": {
        "details": "Emitted when the pause is lifted by `account`."
      },
      "Upgraded(address)": {
        "details": "Emitted when the implementation is upgraded."
      }
    },
    "kind": "dev",
    "methods": {
      "acceptDefaultAdminTransfer()": {
        "details": "Completes a {defaultAdmin} transfer previously started with {beginDefaultAdminTransfer}. After calling the function: - `DEFAULT_ADMIN_ROLE` should be granted to the caller. - `DEFAULT_ADMIN_ROLE` should be revoked from the previous holder. - {pendingDefaultAdmin} should be reset to zero values. Requirements: - Only can be called by the {pendingDefaultAdmin}'s `newAdmin`. - The {pendingDefaultAdmin}'s `acceptSchedule` should've passed."
      },
      "beginDefaultAdminTransfer(address)": {
        "details": "Starts a {defaultAdmin} transfer by setting a {pendingDefaultAdmin} scheduled for acceptance after the current timestamp plus a {defaultAdminDelay}. Requirements: - Only can be called by the current {defaultAdmin}. Emits a DefaultAdminRoleChangeStarted event."
      },
      "cancelDefaultAdminTransfer()": {
        "details": "Cancels a {defaultAdmin} transfer previously started with {beginDefaultAdminTransfer}. A {pendingDefaultAdmin} not yet accepted can also be cancelled with this function. Requirements: - Only can be called by the current {defaultAdmin}. May emit a DefaultAdminTransferCanceled event."
      },
      "changeDefaultAdminDelay(uint48)": {
        "details": "Initiates a {defaultAdminDelay} update by setting a {pendingDefaultAdminDelay} scheduled for getting into effect after the current timestamp plus a {defaultAdminDelay}. This function guarantees that any call to {beginDefaultAdminTransfer} done between the timestamp this method is called and the {pendingDefaultAdminDelay} effect schedule will use the current {defaultAdminDelay} set before calling. The {pendingDefaultAdminDelay}'s effect schedule is defined in a way that waiting until the schedule and then calling {beginDefaultAdminTransfer} with the new delay will take at least the same as another {defaultAdmin} complete transfer (including acceptance). The schedule is designed for two scenarios: - When the delay is changed for a larger one the schedule is `block.timestamp + newDelay` capped by {defaultAdminDelayIncreaseWait}. - When the delay is changed for a shorter one, the schedule is `block.timestamp + (current delay - new delay)`. A {pendingDefaultAdminDelay} that never got into effect will be canceled in favor of a new scheduled change. Requirements: - Only can be called by the current {defaultAdmin}. Emits a DefaultAdminDelayChangeScheduled event and may emit a DefaultAdminDelayChangeCanceled event."
      },
      "constructor": {
        "custom:oz-upgrades-unsafe-allow": "constructor"
      },
      "defaultAdmin()": {
        "details": "Returns the address of the current `DEFAULT_ADMIN_ROLE` holder."
      },
      "defaultAdminDelay()": {
        "details": "Returns the delay required to schedule the acceptance of a {defaultAdmin} transfer started. This delay will be added to the current timestamp when calling {beginDefaultAdminTransfer} to set the acceptance schedule. NOTE: If a delay change has been scheduled, it will take effect as soon as the schedule passes, making this function returns the new delay. See {changeDefaultAdminDelay}."
      },
      "defaultAdminDelayIncreaseWait()": {
        "details": "Maximum time in seconds for an increase to {defaultAdminDelay} (that is scheduled using {changeDefaultAdminDelay}) to take effect. Default to 5 days. When the {defaultAdminDelay} is scheduled to be increased, it goes into effect after the new delay has passed with the purpose of giving enough time for reverting any accidental change (i.e. using milliseconds instead of seconds) that may lock the contract. However, to avoid excessive schedules, the wait is capped by this function and it can be overrode for a custom {defaultAdminDelay} increase scheduling. IMPORTANT: Make sure to add a reasonable amount of time while overriding this value, otherwise, there's a risk of setting a high new delay that goes into effect almost immediately without the possibility of human intervention in the case of an input error (eg. set milliseconds instead of seconds)."
      },
      "getRoleAdmin(bytes32)": {
        "details": "Returns the admin role that controls `role`. See {grantRole} and {revokeRole}. To change a role's admin, use {_setRoleAdmin}."
      },
      "getRoleMember(bytes32,uint256)": {
        "details": "Returns one of the accounts that have `role`. `index` must be a value between 0 and {getRoleMemberCount}, non-inclusive. Role bearers are not sorted in any particular way, and their ordering may change at any point. WARNING: When using {getRoleMember} and {getRoleMemberCount}, make sure you perform all queries on the same block. See the following https://forum.openzeppelin.com/t/iterating-over-elements-on-enumerableset-in-openzeppelin-contracts/2296[forum post] for more information."
      },
      "getRoleMemberCount(bytes32)": {
        "details": "Returns the number of accounts that have `role`. Can be used together with {getRoleMember} to enumerate all bearers of a role."
      },
      "hasRole(bytes32,address)": {
        "details": "Returns `true` if `account` has been granted `role`."
      },
      "owner()": {
        "details": "See {IERC5313-owner}."
      },
      "paused()": {
        "details": "Returns true if the contract is paused, and false otherwise."
      },
      "pendingDefaultAdmin()": {
        "details": "Returns a tuple of a `newAdmin` and an accept schedule. After the `schedule` passes, the `newAdmin` will be able to accept the {defaultAdmin} role by calling {acceptDefaultAdminTransfer}, completing the role transfer. A zero value only in `acceptSchedule` indicates no pending admin transfer. NOTE: A zero address `newAdmin` means that {defaultAdmin} is being renounced."
      },
      "pendingDefaultAdminDelay()": {
        "details": "Returns a tuple of `newDelay` and an effect schedule. After the `schedule` passes, the `newDelay` will get into effect immediately for every new {defaultAdmin} transfer started with {beginDefaultAdminTransfer}. A zero value only in `effectSchedule` indicates no pending delay change. NOTE: A zero value only for `newDelay` means that the next {defaultAdminDelay} will be zero after the effect schedule."
      },
      "proxiableUUID()": {
        "details": "Implementation of the ERC1822 {proxiableUUID} function. This returns the storage slot used by the implementation. It is used to validate the implementation's compatibility when performing an upgrade. IMPORTANT: A proxy pointing at a proxiable contract should not be considered proxiable itself, because this risks bricking a proxy that upgrades to it, by delegating to itself until out of gas. Thus it is critical that this function revert if invoked through a proxy. This is guaranteed by the `notDelegated` modifier."
      },
      "rollbackDefaultAdminDelay()": {
        "details": "Cancels a scheduled {defaultAdminDelay} change. Requirements: - Only can be called by the current {defaultAdmin}. May emit a DefaultAdminDelayChangeCanceled event."
      },
      "supportsInterface(bytes4)": {
        "details": "See {IERC165-supportsInterface}."
      },
      "upgradeTo(address)": {
        "custom:oz-upgrades-unsafe-allow-reachable": "delegatecall",
        "details": "Upgrade the implementation of the proxy to `newImplementation`. Calls {_authorizeUpgrade}. Emits an {Upgraded} event."
      },
      "upgradeToAndCall(address,bytes)": {
        "custom:oz-upgrades-unsafe-allow-reachable": "delegatecall",
        "details": "Upgrade the implementation of the proxy to `newImplementation`, and subsequently execute the function call encoded in `data`. Calls {_authorizeUpgrade}. Emits an {Upgraded} event."
      }
    },
    "version": 1
  },
  "userdoc": {
    "kind": "user",
    "methods": {
      "defaultElevationDuration()": {
        "notice": "VIEWS ///"
      },
      "pause()": {
        "notice": "OZ INTERFACE ///"
      },
      "requestElevation(bytes32,address)": {
        "notice": "IMPLEMENTATION ///"
      },
      "setDefaultElevationDuration(uint48)": {
        "notice": "ADMIN ACTIONS ///"
      }
    },
    "version": 1
  },
  "storageLayout": {
    "storage": [
      {
        "astId": 10054,
        "contract": "contracts/Treasury.sol:Treasury",
        "label": "__gap",
        "offset": 0,
        "slot": "0",
        "type": "t_array(t_uint256)50_storage"
      },
      {
        "astId": 1758,
        "contract": "contracts/Treasury.sol:Treasury",
        "label": "_initialized",
        "offset": 0,
        "slot": "50",
        "type": "t_uint8"
      },
      {
        "astId": 1761,
        "contract": "contracts/Treasury.sol:Treasury",
        "label": "_initializing",
        "offset": 1,
        "slot": "50",
        "type": "t_bool"
      },
      {
        "astId": 1740,
        "contract": "contracts/Treasury.sol:Treasury",
        "label": "__gap",
        "offset": 0,
        "slot": "51",
        "type": "t_array(t_uint256)50_storage"
      },
      {
        "astId": 2638,
        "contract": "contracts/Treasury.sol:Treasury",
        "label": "__gap",
        "offset": 0,
        "slot": "101",
        "type": "t_array(t_uint256)50_storage"
      },
      {
        "astId": 3095,
        "contract": "contracts/Treasury.sol:Treasury",
        "label": "__gap",
        "offset": 0,
        "slot": "151",
        "type": "t_array(t_uint256)50_storage"
      },
      {
        "astId": 2055,
        "contract": "contracts/Treasury.sol:Treasury",
        "label": "__gap",
        "offset": 0,
        "slot": "201",
        "type": "t_array(t_uint256)50_storage"
      },
      {
        "astId": 2077,
        "contract": "contracts/Treasury.sol:Treasury",
        "label": "_paused",
        "offset": 0,
        "slot": "251",
        "type": "t_bool"
      },
      {
        "astId": 2182,
        "contract": "contracts/Treasury.sol:Treasury",
        "label": "__gap",
        "offset": 0,
        "slot": "252",
        "type": "t_array(t_uint256)49_storage"
      },
      {
        "astId": 897,
        "contract": "contracts/Treasury.sol:Treasury",
        "label": "_roles",
        "offset": 0,
        "slot": "301",
        "type": "t_mapping(t_bytes32,t_struct(RoleData)892_storage)"
      },
      {
        "astId": 1192,
        "contract": "contracts/Treasury.sol:Treasury",
        "label": "__gap",
        "offset": 0,
        "slot": "302",
        "type": "t_array(t_uint256)49_storage"
      },
      {
        "astId": 746,
        "contract": "contracts/Treasury.sol:Treasury",
        "label": "_roleMembers",
        "offset": 0,
        "slot": "351",
        "type": "t_mapping(t_bytes32,t_struct(AddressSet)7204_storage)"
      },
      {
        "astId": 856,
        "contract": "contracts/Treasury.sol:Treasury",
        "label": "__gap",
        "offset": 0,
        "slot": "352",
        "type": "t_array(t_uint256)49_storage"
      },
      {
        "astId": 17,
        "contract": "contracts/Treasury.sol:Treasury",
        "label": "_pendingDefaultAdmin",
        "offset": 0,
        "slot": "401",
        "type": "t_address"
      },
      {
        "astId": 19,
        "contract": "contracts/Treasury.sol:Treasury",
        "label": "_pendingDefaultAdminSchedule",
        "offset": 20,
        "slot": "401",
        "type": "t_uint48"
      },
      {
        "astId": 21,
        "contract": "contracts/Treasury.sol:Treasury",
        "label": "_currentDelay",
        "offset": 26,
        "slot": "401",
        "type": "t_uint48"
      },
      {
        "astId": 23,
        "contract": "contracts/Treasury.sol:Treasury",
        "label": "_currentDefaultAdmin",
        "offset": 0,
        "slot": "402",
        "type": "t_address"
      },
      {
        "astId": 25,
        "contract": "contracts/Treasury.sol:Treasury",
        "label": "_pendingDelay",
        "offset": 20,
        "slot": "402",
        "type": "t_uint48"
      },
      {
        "astId": 27,
        "contract": "contracts/Treasury.sol:Treasury",
        "label": "_pendingDelaySchedule",
        "offset": 26,
        "slot": "402",
        "type": "t_uint48"
      },
      {
        "astId": 711,
        "contract": "contracts/Treasury.sol:Treasury",
        "label": "__gap",
        "offset": 0,
        "slot": "403",
        "type": "t_array(t_uint256)48_storage"
      },
      {
        "astId": 9678,
        "contract": "contracts/Treasury.sol:Treasury",
        "label": "_elevationDuration",
        "offset": 0,
        "slot": "451",
        "type": "t_uint48"
      },
      {
        "astId": 9681,
        "contract": "contracts/Treasury.sol:Treasury",
        "label": "_elevationKeys",
        "offset": 0,
        "slot": "452",
        "type": "t_struct(AddressSet)7204_storage"
      },
      {
        "astId": 9686,
        "contract": "contracts/Treasury.sol:Treasury",
        "label": "_elevations",
        "offset": 0,
        "slot": "454",
        "type": "t_mapping(t_address,t_struct(Elevation)9699_storage)"
      },
      {
        "astId": 10374,
        "contract": "contracts/Treasury.sol:Treasury",
        "label": "__gap",
        "offset": 0,
        "slot": "455",
        "type": "t_array(t_uint256)50_storage"
      },
      {
        "astId": 10418,
        "contract": "contracts/Treasury.sol:Treasury",
        "label": "__gap",
        "offset": 0,
        "slot": "505",
        "type": "t_array(t_uint256)50_storage"
      },
      {
        "astId": 9016,
        "contract": "contracts/Treasury.sol:Treasury",
        "label": "_allowances",
        "offset": 0,
        "slot": "555",
        "type": "t_struct(UintToUintMap)5882_storage"
      },
      {
        "astId": 9019,
        "contract": "contracts/Treasury.sol:Treasury",
        "label": "_index",
        "offset": 0,
        "slot": "558",
        "type": "t_struct(Index)9101_storage"
      }
    ],
    "types": {
      "t_address": {
        "encoding": "inplace",
        "label": "address",
        "numberOfBytes": "20"
      },
      "t_array(t_bytes32)dyn_storage": {
        "base": "t_bytes32",
        "encoding": "dynamic_array",
        "label": "bytes32[]",
        "numberOfBytes": "32"
      },
      "t_array(t_uint256)48_storage": {
        "base": "t_uint256",
        "encoding": "inplace",
        "label": "uint256[48]",
        "numberOfBytes": "1536"
      },
      "t_array(t_uint256)49_storage": {
        "base": "t_uint256",
        "encoding": "inplace",
        "label": "uint256[49]",
        "numberOfBytes": "1568"
      },
      "t_array(t_uint256)50_storage": {
        "base": "t_uint256",
        "encoding": "inplace",
        "label": "uint256[50]",
        "numberOfBytes": "1600"
      },
      "t_bool": {
        "encoding": "inplace",
        "label": "bool",
        "numberOfBytes": "1"
      },
      "t_bytes32": {
        "encoding": "inplace",
        "label": "bytes32",
        "numberOfBytes": "32"
      },
      "t_mapping(t_address,t_bool)": {
        "encoding": "mapping",
        "key": "t_address",
        "label": "mapping(address => bool)",
        "numberOfBytes": "32",
        "value": "t_bool"
      },
      "t_mapping(t_address,t_mapping(t_address,t_uint256))": {
        "encoding": "mapping",
        "key": "t_address",
        "label": "mapping(address => mapping(address => uint256))",
        "numberOfBytes": "32",
        "value": "t_mapping(t_address,t_uint256)"
      },
      "t_mapping(t_address,t_struct(Elevation)9699_storage)": {
        "encoding": "mapping",
        "key": "t_address",
        "label": "mapping(address => struct AccessControlElevation.Elevation)",
        "numberOfBytes": "32",
        "value": "t_struct(Elevation)9699_storage"
      },
      "t_mapping(t_address,t_uint256)": {
        "encoding": "mapping",
        "key": "t_address",
        "label": "mapping(address => uint256)",
        "numberOfBytes": "32",
        "value": "t_uint256"
      },
      "t_mapping(t_bytes32,t_bytes32)": {
        "encoding": "mapping",
        "key": "t_bytes32",
        "label": "mapping(bytes32 => bytes32)",
        "numberOfBytes": "32",
        "value": "t_bytes32"
      },
      "t_mapping(t_bytes32,t_mapping(t_address,t_mapping(t_address,t_uint256)))": {
        "encoding": "mapping",
        "key": "t_bytes32",
        "label": "mapping(bytes32 => mapping(address => mapping(address => uint256)))",
        "numberOfBytes": "32",
        "value": "t_mapping(t_address,t_mapping(t_address,t_uint256))"
      },
      "t_mapping(t_bytes32,t_struct(AddressSet)7204_storage)": {
        "encoding": "mapping",
        "key": "t_bytes32",
        "label": "mapping(bytes32 => struct EnumerableSetUpgradeable.AddressSet)",
        "numberOfBytes": "32",
        "value": "t_struct(AddressSet)7204_storage"
      },
      "t_mapping(t_bytes32,t_struct(RoleData)892_storage)": {
        "encoding": "mapping",
        "key": "t_bytes32",
        "label": "mapping(bytes32 => struct AccessControlUpgradeable.RoleData)",
        "numberOfBytes": "32",
        "value": "t_struct(RoleData)892_storage"
      },
      "t_mapping(t_bytes32,t_uint256)": {
        "encoding": "mapping",
        "key": "t_bytes32",
        "label": "mapping(bytes32 => uint256)",
        "numberOfBytes": "32",
        "value": "t_uint256"
      },
      "t_mapping(t_uint256,t_address)": {
        "encoding": "mapping",
        "key": "t_uint256",
        "label": "mapping(uint256 => address)",
        "numberOfBytes": "32",
        "value": "t_address"
      },
      "t_mapping(t_uint256,t_bytes32)": {
        "encoding": "mapping",
        "key": "t_uint256",
        "label": "mapping(uint256 => bytes32)",
        "numberOfBytes": "32",
        "value": "t_bytes32"
      },
      "t_struct(AddressSet)7204_storage": {
        "encoding": "inplace",
        "label": "struct EnumerableSetUpgradeable.AddressSet",
        "members": [
          {
            "astId": 7203,
            "contract": "contracts/Treasury.sol:Treasury",
            "label": "_inner",
            "offset": 0,
            "slot": "0",
            "type": "t_struct(Set)6889_storage"
          }
        ],
        "numberOfBytes": "64"
      },
      "t_struct(Bytes32Set)7083_storage": {
        "encoding": "inplace",
        "label": "struct EnumerableSetUpgradeable.Bytes32Set",
        "members": [
          {
            "astId": 7082,
            "contract": "contracts/Treasury.sol:Treasury",
            "label": "_inner",
            "offset": 0,
            "slot": "0",
            "type": "t_struct(Set)6889_storage"
          }
        ],
        "numberOfBytes": "64"
      },
      "t_struct(Bytes32ToBytes32Map)5636_storage": {
        "encoding": "inplace",
        "label": "struct EnumerableMapUpgradeable.Bytes32ToBytes32Map",
        "members": [
          {
            "astId": 5631,
            "contract": "contracts/Treasury.sol:Treasury",
            "label": "_keys",
            "offset": 0,
            "slot": "0",
            "type": "t_struct(Bytes32Set)7083_storage"
          },
          {
            "astId": 5635,
            "contract": "contracts/Treasury.sol:Treasury",
            "label": "_values",
            "offset": 0,
            "slot": "2",
            "type": "t_mapping(t_bytes32,t_bytes32)"
          }
        ],
        "numberOfBytes": "96"
      },
      "t_struct(Elevation)9699_storage": {
        "encoding": "inplace",
        "label": "struct AccessControlElevation.Elevation",
        "members": [
          {
            "astId": 9692,
            "contract": "contracts/Treasury.sol:Treasury",
            "label": "role",
            "offset": 0,
            "slot": "0",
            "type": "t_bytes32"
          },
          {
            "astId": 9694,
            "contract": "contracts/Treasury.sol:Treasury",
            "label": "elevatedAddress",
            "offset": 0,
            "slot": "1",
            "type": "t_address"
          },
          {
            "astId": 9696,
            "contract": "contracts/Treasury.sol:Treasury",
            "label": "elevatedBy",
            "offset": 0,
            "slot": "2",
            "type": "t_address"
          },
          {
            "astId": 9698,
            "contract": "contracts/Treasury.sol:Treasury",
            "label": "expires",
            "offset": 0,
            "slot": "3",
            "type": "t_uint256"
          }
        ],
        "numberOfBytes": "128"
      },
      "t_struct(Index)9101_storage": {
        "encoding": "inplace",
        "label": "struct Treasury.Index",
        "members": [
          {
            "astId": 9088,
            "contract": "contracts/Treasury.sol:Treasury",
            "label": "ix",
            "offset": 0,
            "slot": "0",
            "type": "t_mapping(t_bytes32,t_mapping(t_address,t_mapping(t_address,t_uint256)))"
          },
          {
            "astId": 9092,
            "contract": "contracts/Treasury.sol:Treasury",
            "label": "operation",
            "offset": 0,
            "slot": "1",
            "type": "t_mapping(t_uint256,t_bytes32)"
          },
          {
            "astId": 9096,
            "contract": "contracts/Treasury.sol:Treasury",
            "label": "token",
            "offset": 0,
            "slot": "2",
            "type": "t_mapping(t_uint256,t_address)"
          },
          {
            "astId": 9100,
            "contract": "contracts/Treasury.sol:Treasury",
            "label": "spender",
            "offset": 0,
            "slot": "3",
            "type": "t_mapping(t_uint256,t_address)"
          }
        ],
        "numberOfBytes": "128"
      },
      "t_struct(RoleData)892_storage": {
        "encoding": "inplace",
        "label": "struct AccessControlUpgradeable.RoleData",
        "members": [
          {
            "astId": 889,
            "contract": "contracts/Treasury.sol:Treasury",
            "label": "members",
            "offset": 0,
            "slot": "0",
            "type": "t_mapping(t_address,t_bool)"
          },
          {
            "astId": 891,
            "contract": "contracts/Treasury.sol:Treasury",
            "label": "adminRole",
            "offset": 0,
            "slot": "1",
            "type": "t_bytes32"
          }
        ],
        "numberOfBytes": "64"
      },
      "t_struct(Set)6889_storage": {
        "encoding": "inplace",
        "label": "struct EnumerableSetUpgradeable.Set",
        "members": [
          {
            "astId": 6884,
            "contract": "contracts/Treasury.sol:Treasury",
            "label": "_values",
            "offset": 0,
            "slot": "0",
            "type": "t_array(t_bytes32)dyn_storage"
          },
          {
            "astId": 6888,
            "contract": "contracts/Treasury.sol:Treasury",
            "label": "_indexes",
            "offset": 0,
            "slot": "1",
            "type": "t_mapping(t_bytes32,t_uint256)"
          }
        ],
        "numberOfBytes": "64"
      },
      "t_struct(UintToUintMap)5882_storage": {
        "encoding": "inplace",
        "label": "struct EnumerableMapUpgradeable.UintToUintMap",
        "members": [
          {
            "astId": 5881,
            "contract": "contracts/Treasury.sol:Treasury",
            "label": "_inner",
            "offset": 0,
            "slot": "0",
            "type": "t_struct(Bytes32ToBytes32Map)5636_storage"
          }
        ],
        "numberOfBytes": "96"
      },
      "t_uint256": {
        "encoding": "inplace",
        "label": "uint256",
        "numberOfBytes": "32"
      },
      "t_uint48": {
        "encoding": "inplace",
        "label": "uint48",
        "numberOfBytes": "6"
      },
      "t_uint8": {
        "encoding": "inplace",
        "label": "uint8",
        "numberOfBytes": "1"
      }
    }
  }
}